{
  "address": "0x4c561a6c55b6637CF5decac0B6ad016F252092d1",
  "abi": [
    {
      "inputs": [
        {
          "internalType": "address",
          "name": "_compoundOracle",
          "type": "address"
        }
      ],
      "stateMutability": "nonpayable",
      "type": "constructor"
    },
    {
      "inputs": [
        {
          "internalType": "string",
          "name": "tokenSymbol",
          "type": "string"
        }
      ],
      "name": "getPrice",
      "outputs": [
        {
          "internalType": "uint256",
          "name": "",
          "type": "uint256"
        }
      ],
      "stateMutability": "view",
      "type": "function"
    },
    {
      "inputs": [],
      "name": "oraclePriceScale",
      "outputs": [
        {
          "internalType": "uint256",
          "name": "",
          "type": "uint256"
        }
      ],
      "stateMutability": "view",
      "type": "function"
    }
  ],
  "transactionHash": "0xa17696617ab1418646160c10bf7adce6da82b92416a391f49cc53c29b155c3e4",
  "args": [
    "0xbBdE93962Ca9fe39537eeA7380550ca6845F8db7"
  ],
  "solcInputHash": "69cfe5e3194d275709b15863e9c31e00",
  "bytecode": "0x608060405234801561001057600080fd5b5060405161062538038061062583398101604081905261002f91610054565b600080546001600160a01b0319166001600160a01b0392909216919091179055610082565b600060208284031215610065578081fd5b81516001600160a01b038116811461007b578182fd5b9392505050565b610594806100916000396000f3fe608060405234801561001057600080fd5b50600436106100365760003560e01c8063524f38891461003b578063d4ff913014610064575b600080fd5b61004e61004936600461038b565b61006c565b60405161005b9190610534565b60405180910390f35b61004e61020d565b6040805180820190915260048152630ae8aa8960e31b6020918201528151908201206000907f0f8a193ff464434486c0daf7db2a895884365d2bc84ba47a68fcf89c1b14b5b814156100d7576040518060400160405280600381526020016208aa8960eb1b81525091505b60008054604051631fc58c3360e31b81526001600160a01b039091169190829063fe2c61989061010b9087906004016104e1565b60206040518083038186803b15801561012357600080fd5b505afa158015610137573d6000803e3d6000fd5b505050506040513d601f19601f8201168201806040525081019061015b91906104c9565b90506000826001600160a01b031663276c2cba866040518263ffffffff1660e01b815260040161018b91906104e1565b6101006040518083038186803b1580156101a457600080fd5b505afa1580156101b8573d6000803e3d6000fd5b505050506040513d601f19601f820116820180604052508101906101dc9190610420565b9050610202620f42406101fc83606001518561021490919063ffffffff16565b90610276565b93505050505b919050565b620f424081565b60008261022357506000610270565b8282028284828161023057fe5b041461026d5760405162461bcd60e51b815260040180806020018281038252602181526020018061053e6021913960400191505060405180910390fd5b90505b92915050565b600061026d83836040518060400160405280601a81526020017f536166654d6174683a206469766973696f6e206279207a65726f0000000000008152506000818361033f5760405162461bcd60e51b81526004018080602001828103825283818151815260200191508051906020019080838360005b838110156103045781810151838201526020016102ec565b50505050905090810190601f1680156103315780820380516001836020036101000a031916815260200191505b509250505060405180910390fd5b50600083858161034b57fe5b0495945050505050565b80516001600160a01b038116811461020857600080fd5b8051801515811461020857600080fd5b80516003811061020857600080fd5b6000602080838503121561039d578182fd5b823567ffffffffffffffff808211156103b4578384fd5b818501915085601f8301126103c7578384fd5b8135818111156103d357fe5b604051601f8201601f19168101850183811182821017156103f057fe5b6040528181528382018501881015610406578586fd5b818585018683013790810190930193909352509392505050565b6000610100808385031215610433578182fd5b6040519081019067ffffffffffffffff8211818310171561045057fe5b8160405261045d84610355565b815261046b60208501610355565b602082015260408401516040820152606084015160608201526104906080850161037c565b608082015260a084015160a08201526104ab60c08501610355565b60c08201526104bc60e0850161036c565b60e0820152949350505050565b6000602082840312156104da578081fd5b5051919050565b6000602080835283518082850152825b8181101561050d578581018301518582016040015282016104f1565b8181111561051e5783604083870101525b50601f01601f1916929092016040019392505050565b9081526020019056fe536166654d6174683a206d756c7469706c69636174696f6e206f766572666c6f77a26469706673582212202232f54d5349bf3649103d43c2661c6b99fe63a0a67685a21c0920298bff5a6a64736f6c63430007060033",
  "devdoc": {
    "kind": "dev",
    "methods": {},
    "version": 1
  },
  "userdoc": {
    "kind": "user",
    "methods": {},
    "version": 1
  },
  "storageLayout": {
    "storage": [
      {
        "astId": 8391,
        "contract": "contracts/GyroPriceOracle.sol:CompoundPriceWrapper",
        "label": "compoundOracle",
        "offset": 0,
        "slot": "0",
        "type": "t_address"
      }
    ],
    "types": {
      "t_address": {
        "encoding": "inplace",
        "label": "address",
        "numberOfBytes": "20"
      }
    }
  }
}