{
  "address": "0xFD8ca66dEBcF6F1F918edeFB9d3072914A507e38",
  "abi": [
    {
      "inputs": [
        {
          "internalType": "uint256",
          "name": "_portfolioWeightEpsilon",
          "type": "uint256"
        },
        {
          "internalType": "uint256[]",
          "name": "_initialPoolWeights",
          "type": "uint256[]"
        },
        {
          "internalType": "address[]",
          "name": "_gyroPoolAddresses",
          "type": "address[]"
        },
        {
          "internalType": "address",
          "name": "_priceOracleAddress",
          "type": "address"
        },
        {
          "internalType": "address",
          "name": "_routerAddress",
          "type": "address"
        },
        {
          "internalType": "address[]",
          "name": "_underlyingTokenAddresses",
          "type": "address[]"
        },
        {
          "internalType": "address[]",
          "name": "_underlyingTokenOracleAddresses",
          "type": "address[]"
        },
        {
          "internalType": "bytes32[]",
          "name": "_underlyingTokenSymbols",
          "type": "bytes32[]"
        },
        {
          "internalType": "address[]",
          "name": "_stablecoinAddresses",
          "type": "address[]"
        },
        {
          "internalType": "uint256",
          "name": "_memoryParam",
          "type": "uint256"
        }
      ],
      "stateMutability": "nonpayable",
      "type": "constructor"
    },
    {
      "anonymous": false,
      "inputs": [
        {
          "indexed": true,
          "internalType": "address",
          "name": "owner",
          "type": "address"
        },
        {
          "indexed": true,
          "internalType": "address",
          "name": "spender",
          "type": "address"
        },
        {
          "indexed": false,
          "internalType": "uint256",
          "name": "value",
          "type": "uint256"
        }
      ],
      "name": "Approval",
      "type": "event"
    },
    {
      "anonymous": false,
      "inputs": [
        {
          "indexed": false,
          "internalType": "address",
          "name": "minter",
          "type": "address"
        },
        {
          "indexed": false,
          "internalType": "uint256",
          "name": "amount",
          "type": "uint256"
        }
      ],
      "name": "Mint",
      "type": "event"
    },
    {
      "anonymous": false,
      "inputs": [
        {
          "indexed": true,
          "internalType": "address",
          "name": "previousOwner",
          "type": "address"
        },
        {
          "indexed": true,
          "internalType": "address",
          "name": "newOwner",
          "type": "address"
        }
      ],
      "name": "OwnershipTransferred",
      "type": "event"
    },
    {
      "anonymous": false,
      "inputs": [
        {
          "indexed": false,
          "internalType": "address",
          "name": "redeemer",
          "type": "address"
        },
        {
          "indexed": false,
          "internalType": "uint256",
          "name": "amount",
          "type": "uint256"
        }
      ],
      "name": "Redeem",
      "type": "event"
    },
    {
      "anonymous": false,
      "inputs": [
        {
          "indexed": true,
          "internalType": "address",
          "name": "from",
          "type": "address"
        },
        {
          "indexed": true,
          "internalType": "address",
          "name": "to",
          "type": "address"
        },
        {
          "indexed": false,
          "internalType": "uint256",
          "name": "value",
          "type": "uint256"
        }
      ],
      "name": "Transfer",
      "type": "event"
    },
    {
      "inputs": [
        {
          "internalType": "address",
          "name": "owner",
          "type": "address"
        },
        {
          "internalType": "address",
          "name": "spender",
          "type": "address"
        }
      ],
      "name": "allowance",
      "outputs": [
        {
          "internalType": "uint256",
          "name": "",
          "type": "uint256"
        }
      ],
      "stateMutability": "view",
      "type": "function"
    },
    {
      "inputs": [
        {
          "internalType": "address",
          "name": "spender",
          "type": "address"
        },
        {
          "internalType": "uint256",
          "name": "amount",
          "type": "uint256"
        }
      ],
      "name": "approve",
      "outputs": [
        {
          "internalType": "bool",
          "name": "",
          "type": "bool"
        }
      ],
      "stateMutability": "nonpayable",
      "type": "function"
    },
    {
      "inputs": [
        {
          "internalType": "address",
          "name": "account",
          "type": "address"
        }
      ],
      "name": "balanceOf",
      "outputs": [
        {
          "internalType": "uint256",
          "name": "",
          "type": "uint256"
        }
      ],
      "stateMutability": "view",
      "type": "function"
    },
    {
      "inputs": [],
      "name": "decimals",
      "outputs": [
        {
          "internalType": "uint8",
          "name": "",
          "type": "uint8"
        }
      ],
      "stateMutability": "view",
      "type": "function"
    },
    {
      "inputs": [
        {
          "internalType": "address",
          "name": "spender",
          "type": "address"
        },
        {
          "internalType": "uint256",
          "name": "subtractedValue",
          "type": "uint256"
        }
      ],
      "name": "decreaseAllowance",
      "outputs": [
        {
          "internalType": "bool",
          "name": "",
          "type": "bool"
        }
      ],
      "stateMutability": "nonpayable",
      "type": "function"
    },
    {
      "inputs": [],
      "name": "getUnderlyingTokenAddresses",
      "outputs": [
        {
          "internalType": "address[]",
          "name": "",
          "type": "address[]"
        }
      ],
      "stateMutability": "view",
      "type": "function"
    },
    {
      "inputs": [],
      "name": "gyroPriceOracle",
      "outputs": [
        {
          "internalType": "contract GyroPriceOracle",
          "name": "",
          "type": "address"
        }
      ],
      "stateMutability": "view",
      "type": "function"
    },
    {
      "inputs": [],
      "name": "gyroRouter",
      "outputs": [
        {
          "internalType": "contract GyroRouter",
          "name": "",
          "type": "address"
        }
      ],
      "stateMutability": "view",
      "type": "function"
    },
    {
      "inputs": [
        {
          "internalType": "address",
          "name": "spender",
          "type": "address"
        },
        {
          "internalType": "uint256",
          "name": "addedValue",
          "type": "uint256"
        }
      ],
      "name": "increaseAllowance",
      "outputs": [
        {
          "internalType": "bool",
          "name": "",
          "type": "bool"
        }
      ],
      "stateMutability": "nonpayable",
      "type": "function"
    },
    {
      "inputs": [],
      "name": "initializeOwner",
      "outputs": [],
      "stateMutability": "nonpayable",
      "type": "function"
    },
    {
      "inputs": [
        {
          "internalType": "address[]",
          "name": "_BPTokensIn",
          "type": "address[]"
        },
        {
          "internalType": "uint256[]",
          "name": "_amountsIn",
          "type": "uint256[]"
        },
        {
          "internalType": "uint256",
          "name": "_minGyroMinted",
          "type": "uint256"
        }
      ],
      "name": "mint",
      "outputs": [
        {
          "internalType": "uint256",
          "name": "amountToMint",
          "type": "uint256"
        }
      ],
      "stateMutability": "nonpayable",
      "type": "function"
    },
    {
      "inputs": [
        {
          "internalType": "address[]",
          "name": "_BPTokensIn",
          "type": "address[]"
        },
        {
          "internalType": "uint256[]",
          "name": "_amountsIn",
          "type": "uint256[]"
        },
        {
          "internalType": "uint256",
          "name": "_minGyroMinted",
          "type": "uint256"
        },
        {
          "internalType": "bool",
          "name": "realMint",
          "type": "bool"
        }
      ],
      "name": "mintChecksPass",
      "outputs": [
        {
          "internalType": "bool",
          "name": "",
          "type": "bool"
        },
        {
          "internalType": "uint256",
          "name": "",
          "type": "uint256"
        },
        {
          "internalType": "uint256",
          "name": "",
          "type": "uint256"
        },
        {
          "internalType": "uint256",
          "name": "",
          "type": "uint256"
        },
        {
          "internalType": "uint256",
          "name": "",
          "type": "uint256"
        },
        {
          "internalType": "uint256",
          "name": "",
          "type": "uint256"
        },
        {
          "internalType": "uint256",
          "name": "",
          "type": "uint256"
        }
      ],
      "stateMutability": "view",
      "type": "function"
    },
    {
      "inputs": [],
      "name": "name",
      "outputs": [
        {
          "internalType": "string",
          "name": "",
          "type": "string"
        }
      ],
      "stateMutability": "view",
      "type": "function"
    },
    {
      "inputs": [],
      "name": "owner",
      "outputs": [
        {
          "internalType": "address",
          "name": "",
          "type": "address"
        }
      ],
      "stateMutability": "view",
      "type": "function"
    },
    {
      "inputs": [],
      "name": "poolAddresses",
      "outputs": [
        {
          "internalType": "address[]",
          "name": "",
          "type": "address[]"
        }
      ],
      "stateMutability": "view",
      "type": "function"
    },
    {
      "inputs": [
        {
          "internalType": "uint256",
          "name": "",
          "type": "uint256"
        }
      ],
      "name": "poolProperties",
      "outputs": [
        {
          "internalType": "address",
          "name": "poolAddress",
          "type": "address"
        },
        {
          "internalType": "uint256",
          "name": "initialPoolWeight",
          "type": "uint256"
        },
        {
          "internalType": "uint256",
          "name": "initialPoolPrice",
          "type": "uint256"
        }
      ],
      "stateMutability": "view",
      "type": "function"
    },
    {
      "inputs": [],
      "name": "priceOracle",
      "outputs": [
        {
          "internalType": "contract PriceOracle",
          "name": "",
          "type": "address"
        }
      ],
      "stateMutability": "view",
      "type": "function"
    },
    {
      "inputs": [
        {
          "internalType": "address[]",
          "name": "_BPTokensOut",
          "type": "address[]"
        },
        {
          "internalType": "uint256[]",
          "name": "_amountsOut",
          "type": "uint256[]"
        },
        {
          "internalType": "uint256",
          "name": "_maxGyroRedeemed",
          "type": "uint256"
        }
      ],
      "name": "redeem",
      "outputs": [
        {
          "internalType": "uint256",
          "name": "_gyroRedeemed",
          "type": "uint256"
        }
      ],
      "stateMutability": "nonpayable",
      "type": "function"
    },
    {
      "inputs": [
        {
          "internalType": "address[]",
          "name": "_BPTokensOut",
          "type": "address[]"
        },
        {
          "internalType": "uint256[]",
          "name": "_amountsOut",
          "type": "uint256[]"
        },
        {
          "internalType": "uint256",
          "name": "_maxGyroRedeemed",
          "type": "uint256"
        },
        {
          "internalType": "bool",
          "name": "realRedeem",
          "type": "bool"
        }
      ],
      "name": "redeemChecksPass",
      "outputs": [
        {
          "internalType": "bool",
          "name": "",
          "type": "bool"
        },
        {
          "internalType": "uint256",
          "name": "",
          "type": "uint256"
        },
        {
          "internalType": "uint256",
          "name": "",
          "type": "uint256"
        },
        {
          "internalType": "uint256",
          "name": "",
          "type": "uint256"
        },
        {
          "internalType": "uint256",
          "name": "",
          "type": "uint256"
        },
        {
          "internalType": "uint256",
          "name": "",
          "type": "uint256"
        },
        {
          "internalType": "uint256",
          "name": "",
          "type": "uint256"
        }
      ],
      "stateMutability": "view",
      "type": "function"
    },
    {
      "inputs": [
        {
          "internalType": "address",
          "name": "token",
          "type": "address"
        },
        {
          "internalType": "address",
          "name": "oracleAddress",
          "type": "address"
        }
      ],
      "name": "registerToken",
      "outputs": [],
      "stateMutability": "nonpayable",
      "type": "function"
    },
    {
      "inputs": [],
      "name": "renounceOwnership",
      "outputs": [],
      "stateMutability": "nonpayable",
      "type": "function"
    },
    {
      "inputs": [],
      "name": "symbol",
      "outputs": [
        {
          "internalType": "string",
          "name": "",
          "type": "string"
        }
      ],
      "stateMutability": "view",
      "type": "function"
    },
    {
      "inputs": [],
      "name": "totalSupply",
      "outputs": [
        {
          "internalType": "uint256",
          "name": "",
          "type": "uint256"
        }
      ],
      "stateMutability": "view",
      "type": "function"
    },
    {
      "inputs": [
        {
          "internalType": "address",
          "name": "recipient",
          "type": "address"
        },
        {
          "internalType": "uint256",
          "name": "amount",
          "type": "uint256"
        }
      ],
      "name": "transfer",
      "outputs": [
        {
          "internalType": "bool",
          "name": "",
          "type": "bool"
        }
      ],
      "stateMutability": "nonpayable",
      "type": "function"
    },
    {
      "inputs": [
        {
          "internalType": "address",
          "name": "sender",
          "type": "address"
        },
        {
          "internalType": "address",
          "name": "recipient",
          "type": "address"
        },
        {
          "internalType": "uint256",
          "name": "amount",
          "type": "uint256"
        }
      ],
      "name": "transferFrom",
      "outputs": [
        {
          "internalType": "bool",
          "name": "",
          "type": "bool"
        }
      ],
      "stateMutability": "nonpayable",
      "type": "function"
    },
    {
      "inputs": [
        {
          "internalType": "address",
          "name": "newOwner",
          "type": "address"
        }
      ],
      "name": "transferOwnership",
      "outputs": [],
      "stateMutability": "nonpayable",
      "type": "function"
    }
  ],
  "transactionHash": "0x845be9132e995a4b21dbb0dc7493d2cf2a68c6a5187cde237bd9b4416bf2e0f4",
  "args": [
    "100000000000000000",
    [
      "500000000000000000",
      "500000000000000000"
    ],
    [
      "0xdc6d6e66d690339a97dfb51d50c1f7415d30d8f6",
      "0x56Ca37E2a2B6C9129d748415ec0c1e5E2Bc089de"
    ],
    "0x98719C5FF4ab9076c26af542069EDd27Eeb96DEA",
    "0x30FDdd6F88220A0E641ba6110F0d036d37bfa2a9",
    [
      "0xd0a1e359811322d97991e03f863a0c30c2cf029c",
      "0x2f375e94fc336cdec2dc0ccb5277fe59cbf1cae5",
      "0x1528f3fcc26d13f7079325fb78d9442607781c8c"
    ],
    [
      "0x4c561a6c55b6637CF5decac0B6ad016F252092d1",
      "0x4c561a6c55b6637CF5decac0B6ad016F252092d1",
      "0x4c561a6c55b6637CF5decac0B6ad016F252092d1"
    ],
    [
      "0x5745544800000000000000000000000000000000000000000000000000000000",
      "0x5553444300000000000000000000000000000000000000000000000000000000",
      "0x4441490000000000000000000000000000000000000000000000000000000000"
    ],
    [
      "0x2f375e94fc336cdec2dc0ccb5277fe59cbf1cae5",
      "0x1528f3fcc26d13f7079325fb78d9442607781c8c"
    ],
    "999993123563518195"
  ],
  "solcInputHash": "69cfe5e3194d275709b15863e9c31e00",
  "bytecode": "0x60806040523480156200001157600080fd5b5060405162004c2d38038062004c2d83398181016040526101408110156200003857600080fd5b8151602083018051604051929492938301929190846401000000008211156200006057600080fd5b9083019060208201858111156200007657600080fd5b82518660208202830111640100000000821117156200009457600080fd5b82525081516020918201928201910280838360005b83811015620000c3578181015183820152602001620000a9565b5050505090500160405260200180516040519392919084640100000000821115620000ed57600080fd5b9083019060208201858111156200010357600080fd5b82518660208202830111640100000000821117156200012157600080fd5b82525081516020918201928201910280838360005b838110156200015057818101518382015260200162000136565b5050505091909101604081815260208401519084015160609094018051919694959294935090846401000000008211156200018a57600080fd5b908301906020820185811115620001a057600080fd5b8251866020820283011164010000000082111715620001be57600080fd5b82525081516020918201928201910280838360005b83811015620001ed578181015183820152602001620001d3565b50505050905001604052602001805160405193929190846401000000008211156200021757600080fd5b9083019060208201858111156200022d57600080fd5b82518660208202830111640100000000821117156200024b57600080fd5b82525081516020918201928201910280838360005b838110156200027a57818101518382015260200162000260565b5050505090500160405260200180516040519392919084640100000000821115620002a457600080fd5b908301906020820185811115620002ba57600080fd5b8251866020820283011164010000000082111715620002d857600080fd5b82525081516020918201928201910280838360005b8381101562000307578181015183820152602001620002ed565b50505050905001604052602001805160405193929190846401000000008211156200033157600080fd5b9083019060208201858111156200034757600080fd5b82518660208202830111640100000000821117156200036557600080fd5b82525081516020918201928201910280838360005b83811015620003945781810151838201526020016200037a565b505050509190910160408181526020938401518183018252601083526f23bcb9379029ba30b136329021b7b4b760811b85840190815282518084019093526004808452634759524f60e01b9684019690965283519197509295509093620003fe9350919062000d58565b5080516200041490600590602084019062000d58565b5050600680546001600160a01b03808b1661010002610100600160a81b031960ff199093166012908117939093161790925560078054928a166001600160a01b03199093169290921790915543600f55600060108190556011558290555084516200048790600d90602088019062000ded565b50600e8a905560005b8851811015620004e8576001600b60008b8481518110620004ad57fe5b6020908102919091018101516001600160a01b03168252810191909152604001600020805460ff191691151591909117905560010162000490565b5060005b88518110156200059857600960405180606001604052808b84815181106200051057fe5b60200260200101516001600160a01b031681526020018c84815181106200053357fe5b6020908102919091018101518252600091810182905283546001808201865594835291819020835160039093020180546001600160a01b0319166001600160a01b039093169290921782558201518184015560409091015160029091015501620004ec565b5060005b855181101562000673576040518060600160405280868381518110620005be57fe5b60200260200101516001600160a01b03168152602001858381518110620005e157fe5b602002602001015181526020018261ffff16815250600a60008884815181106200060757fe5b6020908102919091018101516001600160a01b039081168352828201939093526040918201600020845181546001600160a01b03191694169390931783558301516001808401919091559201516002909101805461ffff191661ffff909216919091179055016200059c565b5060006200068062000a23565b905060005b600954811015620009b557600060098281548110620006a057fe5b6000918252602082206003909102015460408051635f1dde9760e11b815290516001600160a01b039092169350839163be3bbd2e916004808201928692909190829003018186803b158015620006f557600080fd5b505afa1580156200070a573d6000803e3d6000fd5b505050506040513d6000823e601f3d908101601f1916820160405260208110156200073457600080fd5b81019080805160405193929190846401000000008211156200075557600080fd5b9083019060208201858111156200076b57600080fd5b82518660208202830111640100000000821117156200078957600080fd5b82525081516020918201928201910280838360005b83811015620007b85781810151838201526020016200079e565b505050509050016040525050509050600081516001600160401b0381118015620007e157600080fd5b506040519080825280602002602001820160405280156200080c578160200160208202803683370190505b50905060005b8251811015620008905785600a60008584815181106200082e57fe5b6020908102919091018101516001600160a01b0316825281019190915260400160002060020154815161ffff9091169081106200086757fe5b60200260200101518282815181106200087c57fe5b602090810291909101015260010162000812565b50600060098581548110620008a157fe5b600091825260208083206003909202909101546006546040805163305cbde760e01b81526001600160a01b0393841660048201818152602483019384528951604484015289519198506101009094049094169563305cbde79588958a959493606401928683019291909102908190849084905b838110156200092e57818101518382015260200162000914565b50505050905001935050505060206040518083038186803b1580156200095357600080fd5b505afa15801562000968573d6000803e3d6000fd5b505050506040513d60208110156200097f57600080fd5b505160098054879081106200099057fe5b6000918252602090912060026003909202010155505060019092019150620006859050565b5060005b835181101562000a11576001600c6000868481518110620009d657fe5b6020908102919091018101516001600160a01b03168252810191909152604001600020805460ff1916911515919091179055600101620009b9565b50505050505050505050505062000e5c565b600d546060906000906001600160401b038111801562000a4257600080fd5b5060405190808252806020026020018201604052801562000a6d578160200160208202803683370190505b50905060005b600d5481101562000b18576000600d828154811062000a8e57fe5b6000918252602082200154600d80546001600160a01b039092169350600a918391908690811062000abb57fe5b60009182526020808320909101546001600160a01b03168352820192909252604001812060010154915062000af1838362000b1e565b90508085858151811062000b0157fe5b602090810291909101015250505060010162000a73565b50905090565b6001600160a01b038083166000908152600a602052604081205490911663524f388962000b4b8462000c1a565b6040518263ffffffff1660e01b81526004018080602001828103825283818151815260200191508051906020019080838360005b8381101562000b9957818101518382015260200162000b7f565b50505050905090810190601f16801562000bc75780820380516001836020036101000a031916815260200191505b509250505060206040518083038186803b15801562000be557600080fd5b505afa15801562000bfa573d6000803e3d6000fd5b505050506040513d602081101562000c1157600080fd5b50519392505050565b604080516020808252818301909252606091600091906020820181803683370190505090506000805b602081101562000cb5576008810260020a85027fff0000000000000000000000000000000000000000000000000000000000000081161562000cab578084848151811062000c8d57fe5b60200101906001600160f81b031916908160001a9053506001909201915b5060010162000c43565b506000816001600160401b038111801562000ccf57600080fd5b506040519080825280601f01601f19166020018201604052801562000cfb576020820181803683370190505b50905060005b8281101562000d4f5783818151811062000d1757fe5b602001015160f81c60f81b82828151811062000d2f57fe5b60200101906001600160f81b031916908160001a90535060010162000d01565b50949350505050565b828054600181600116156101000203166002900490600052602060002090601f01602090048101928262000d90576000855562000ddb565b82601f1062000dab57805160ff191683800117855562000ddb565b8280016001018555821562000ddb579182015b8281111562000ddb57825182559160200191906001019062000dbe565b5062000de992915062000e45565b5090565b82805482825590600052602060002090810192821562000ddb579160200282015b8281111562000ddb57825182546001600160a01b0319166001600160a01b0390911617825560209092019160019091019062000e0e565b5b8082111562000de9576000815560010162000e46565b613dc18062000e6c6000396000f3fe608060405234801561001057600080fd5b506004361061018e5760003560e01c806370a08231116100de578063a652db1f11610097578063be48b5e411610071578063be48b5e414610837578063dd62ed3e1461083f578063f2fde38b1461086d578063f9522af5146108935761018e565b8063a652db1f146106a1578063a9059cbb146106e6578063af1a1531146107125761018e565b806370a082311461062f578063715018a6146106555780638da5cb5b1461065d5780638f7873ed1461066557806395d89b411461066d578063a457c2d7146106755761018e565b8063390976171161014b5780634f5548bb116101255780634f5548bb146104a257806355af8e18146104fa5780635e2a0023146105025780635f53837f146106275761018e565b806339097617146102e257806339509351146104465780634739f7e5146104725761018e565b806306fdde0314610193578063095ea7b31461021057806318160ddd1461025057806323b872dd1461026a5780632630c12f146102a0578063313ce567146102c4575b600080fd5b61019b6109bd565b6040805160208082528351818301528351919283929083019185019080838360005b838110156101d55781810151838201526020016101bd565b50505050905090810190601f1680156102025780820380516001836020036101000a031916815260200191505b509250505060405180910390f35b61023c6004803603604081101561022657600080fd5b506001600160a01b038135169060200135610a53565b604080519115158252519081900360200190f35b610258610a71565b60408051918252519081900360200190f35b61023c6004803603606081101561028057600080fd5b506001600160a01b03813581169160208101359091169060400135610a77565b6102a8610afe565b604080516001600160a01b039092168252519081900360200190f35b6102cc610b0d565b6040805160ff9092168252519081900360200190f35b61040c600480360360808110156102f857600080fd5b810190602081018135600160201b81111561031257600080fd5b82018360208201111561032457600080fd5b803590602001918460208302840111600160201b8311171561034557600080fd5b9190808060200260200160405190810160405280939291908181526020018383602002808284376000920191909152509295949360208101935035915050600160201b81111561039457600080fd5b8201836020820111156103a657600080fd5b803590602001918460208302840111600160201b831117156103c757600080fd5b91908080602002602001604051908101604052809392919081815260200183836020028082843760009201919091525092955050823593505050602001351515610b16565b6040805197151588526020880196909652868601949094526060860192909252608085015260a084015260c0830152519081900360e00190f35b61023c6004803603604081101561045c57600080fd5b506001600160a01b038135169060200135610b76565b6104a06004803603604081101561048857600080fd5b506001600160a01b0381358116916020013516610bc4565b005b6104aa610bf2565b60408051602080825283518183015283519192839290830191858101910280838360005b838110156104e65781810151838201526020016104ce565b505050509050019250505060405180910390f35b6102a8610ca7565b6102586004803603606081101561051857600080fd5b810190602081018135600160201b81111561053257600080fd5b82018360208201111561054457600080fd5b803590602001918460208302840111600160201b8311171561056557600080fd5b9190808060200260200160405190810160405280939291908181526020018383602002808284376000920191909152509295949360208101935035915050600160201b8111156105b457600080fd5b8201836020820111156105c657600080fd5b803590602001918460208302840111600160201b831117156105e757600080fd5b9190808060200260200160405190810160405280939291908181526020018383602002808284376000920191909152509295505091359250610cbb915050565b6104a0610e6e565b6102586004803603602081101561064557600080fd5b50356001600160a01b0316610ee0565b6104a0610efb565b6102a8610fa4565b6104aa610fb3565b61019b611063565b61023c6004803603604081101561068b57600080fd5b506001600160a01b0381351690602001356110c4565b6106be600480360360208110156106b757600080fd5b503561112c565b604080516001600160a01b039094168452602084019290925282820152519081900360600190f35b61023c600480360360408110156106fc57600080fd5b506001600160a01b038135169060200135611169565b6102586004803603606081101561072857600080fd5b810190602081018135600160201b81111561074257600080fd5b82018360208201111561075457600080fd5b803590602001918460208302840111600160201b8311171561077557600080fd5b9190808060200260200160405190810160405280939291908181526020018383602002808284376000920191909152509295949360208101935035915050600160201b8111156107c457600080fd5b8201836020820111156107d657600080fd5b803590602001918460208302840111600160201b831117156107f757600080fd5b919080806020026020016040519081016040528093929190818152602001838360200280828437600092019190915250929550509135925061117d915050565b6102a8611563565b6102586004803603604081101561085557600080fd5b506001600160a01b0381358116916020013516611572565b6104a06004803603602081101561088357600080fd5b50356001600160a01b031661159d565b61040c600480360360808110156108a957600080fd5b810190602081018135600160201b8111156108c357600080fd5b8201836020820111156108d557600080fd5b803590602001918460208302840111600160201b831117156108f657600080fd5b9190808060200260200160405190810160405280939291908181526020018383602002808284376000920191909152509295949360208101935035915050600160201b81111561094557600080fd5b82018360208201111561095757600080fd5b803590602001918460208302840111600160201b8311171561097857600080fd5b9190808060200260200160405190810160405280939291908181526020018383602002808284376000920191909152509295505082359350505060200135151561169c565b60048054604080516020601f6002600019610100600188161502019095169490940493840181900481028201810190925282815260609390929091830182828015610a495780601f10610a1e57610100808354040283529160200191610a49565b820191906000526020600020905b815481529060010190602001808311610a2c57829003601f168201915b5050505050905090565b6000610a67610a606116b6565b84846116ba565b5060015b92915050565b60035490565b6000610a848484846117a6565b610af484610a906116b6565b610aef85604051806060016040528060288152602001613c6c602891396001600160a01b038a16600090815260026020526040812090610ace6116b6565b6001600160a01b031681526020810191909152604001600020549190611903565b6116ba565b5060019392505050565b6008546001600160a01b031681565b60065460ff1690565b6000806000806000806000806000610b308d8d8d8d61199a565b915091508160c001518261012001518360e00151836000015184602001518560400151866060015198509850985098509850985098505050949950949992975094509450565b6000610a67610b836116b6565b84610aef8560026000610b946116b6565b6001600160a01b03908116825260208083019390935260409182016000908120918c168152925290205490611d24565b6001600160a01b039182166000908152600a6020526040902080546001600160a01b03191691909216179055565b600d546060906000906001600160401b0381118015610c1057600080fd5b50604051908082528060200260200182016040528015610c3a578160200160208202803683370190505b50905060005b600d54811015610ca157600d8181548110610c5757fe5b9060005260206000200160009054906101000a90046001600160a01b0316828281518110610c8157fe5b6001600160a01b0390921660209283029190910190910152600101610c40565b50905090565b60065461010090046001600160a01b031681565b60006001610cc7613a41565b600080610cd68888888761169c565b60608a0152604089015260208801528652909650909250905060005b8851811015610dfe576000898281518110610d0957fe5b60200260200101516001600160a01b03166323b872dd33308c8681518110610d2d57fe5b60200260200101516040518463ffffffff1660e01b815260040180846001600160a01b03168152602001836001600160a01b031681526020018281526020019350505050602060405180830381600087803b158015610d8b57600080fd5b505af1158015610d9f573d6000803e3d6000fd5b505050506040513d6020811015610db557600080fd5b5051905080610df55760405162461bcd60e51b815260040180806020018281038252602a815260200180613b2a602a913960400191505060405180910390fd5b50600101610cf2565b50610e093386611d85565b610e288360000151846020015187600087604001518860600151611e77565b604080513381526020810187905281517f0f6798a560793a54c3bcfe86a93cde1e73087d944c0ea20544137d4121396885929181900390910190a1505050509392505050565b6000546001600160a01b031615610ecc576040805162461bcd60e51b815260206004820152601960248201527f6f776e657220616c726561647920696e697469616c697a656400000000000000604482015290519081900360640190fd5b600080546001600160a01b03191633179055565b6001600160a01b031660009081526001602052604090205490565b6000546001600160a01b03163314610f5a576040805162461bcd60e51b815260206004820181905260248201527f4f776e61626c653a2063616c6c6572206973206e6f7420746865206f776e6572604482015290519081900360640190fd5b600080546040516001600160a01b03909116907f8be0079c531659141344cd1fd0a4f28419497f9722a3daafe3b4186f6b6457e0908390a3600080546001600160a01b0319169055565b6000546001600160a01b031690565b6009546060906000906001600160401b0381118015610fd157600080fd5b50604051908082528060200260200182016040528015610ffb578160200160208202803683370190505b50905060005b600954811015610ca1576009818154811061101857fe5b600091825260209091206003909102015482516001600160a01b039091169083908390811061104357fe5b6001600160a01b0390921660209283029190910190910152600101611001565b60058054604080516020601f6002600019610100600188161502019095169490940493840181900481028201810190925282815260609390929091830182828015610a495780601f10610a1e57610100808354040283529160200191610a49565b6000610a676110d16116b6565b84610aef85604051806060016040528060258152602001613d6760259139600260006110fb6116b6565b6001600160a01b03908116825260208083019390935260409182016000908120918d16815292529020549190611903565b6009818154811061113c57600080fd5b60009182526020909120600390910201805460018201546002909201546001600160a01b03909116925083565b6000610a676111766116b6565b84846117a6565b60006001818061118b613a41565b61119788888887610b16565b606088015260408701526020860152845290965090935091506111ba3386611eb5565b60075460408051636f36b6cb60e11b8152600481019182528a5160448201528a516001600160a01b039093169263de6d6d96928c928c92829160248101916064909101906020808801910280838360005b8381101561122357818101518382015260200161120b565b50505050905001838103825284818151815260200191508051906020019060200280838360005b8381101561126257818101518382015260200161124a565b50505050905001945050505050600060405180830381600087803b15801561128957600080fd5b505af115801561129d573d6000803e3d6000fd5b505050506040513d6000823e601f3d908101601f1916820160409081528110156112c657600080fd5b8101908080516040519392919084600160201b8211156112e557600080fd5b9083019060208201858111156112fa57600080fd5b82518660208202830111600160201b8211171561131657600080fd5b82525081516020918201928201910280838360005b8381101561134357818101518382015260200161132b565b5050505090500160405260200180516040519392919084600160201b82111561136b57600080fd5b90830190602082018581111561138057600080fd5b82518660208202830111600160201b8211171561139c57600080fd5b82525081516020918201928201910280838360005b838110156113c95781810151838201526020016113b1565b50505050905001604052505050505060005b87518110156114fd5760008982815181106113f257fe5b60200260200101516001600160a01b03166323b872dd30338c868151811061141657fe5b60200260200101516040518463ffffffff1660e01b815260040180846001600160a01b03168152602001836001600160a01b031681526020018281526020019350505050602060405180830381600087803b15801561147457600080fd5b505af1158015611488573d6000803e3d6000fd5b505050506040513d602081101561149e57600080fd5b50519050806114f4576040805162461bcd60e51b815260206004820152601960248201527f6661696c656420746f207472616e7366657220746f6b656e7300000000000000604482015290519081900360640190fd5b506001016113db565b50604080513381526020810187905281517f222838db2794d11532d940e8dec38ae307ed0b63cd97c233322e221f998767a6929181900390910190a16115588160000151826020015160008885604001518660600151611e77565b505050509392505050565b6007546001600160a01b031681565b6001600160a01b03918216600090815260026020908152604080832093909416825291909152205490565b6000546001600160a01b031633146115fc576040805162461bcd60e51b815260206004820181905260248201527f4f776e61626c653a2063616c6c6572206973206e6f7420746865206f776e6572604482015290519081900360640190fd5b6001600160a01b0381166116415760405162461bcd60e51b8152600401808060200182810382526026815260200180613b546026913960400191505060405180910390fd5b600080546040516001600160a01b03808516939216917f8be0079c531659141344cd1fd0a4f28419497f9722a3daafe3b4186f6b6457e091a3600080546001600160a01b0319166001600160a01b0392909216919091179055565b6000806000806000806000806000610b308d8d8d8d611fb1565b3390565b6001600160a01b0383166116ff5760405162461bcd60e51b8152600401808060200182810382526024815260200180613cda6024913960400191505060405180910390fd5b6001600160a01b0382166117445760405162461bcd60e51b8152600401808060200182810382526022815260200180613b7a6022913960400191505060405180910390fd5b6001600160a01b03808416600081815260026020908152604080832094871680845294825291829020859055815185815291517f8c5be1e5ebec7d5bd14f71427d1e84f3dd0314c0f7b2291e5b200ac8c7c3b9259281900390910190a3505050565b6001600160a01b0383166117eb5760405162461bcd60e51b8152600401808060200182810382526025815260200180613cb56025913960400191505060405180910390fd5b6001600160a01b0382166118305760405162461bcd60e51b8152600401808060200182810382526023815260200180613ae56023913960400191505060405180910390fd5b61183b838383612334565b61187881604051806060016040528060268152602001613b9c602691396001600160a01b0386166000908152600160205260409020549190611903565b6001600160a01b0380851660009081526001602052604080822093909355908416815220546118a79082611d24565b6001600160a01b0380841660008181526001602090815260409182902094909455805185815290519193928716927fddf252ad1be2c89b69c2b068fc378daa952ba7f163c4a11628f55a4df523b3ef92918290030190a3505050565b600081848411156119925760405162461bcd60e51b81526004018080602001828103825283818151815260200191508051906020019080838360005b8381101561195757818101518382015260200161193f565b50505050905090810190601f1680156119845780820380516001836020036101000a031916815260200191505b509250505060405180910390fd5b505050900390565b6119a2613a69565b6119aa613a41565b84518651146119ea5760405162461bcd60e51b815260040180806020018281038252603d815260200180613bc2603d913960400191505060405180910390fd5b6119f386612339565b611a2e5760405162461bcd60e51b8152600401808060200182810382526036815260200180613cfe6036913960400191505060405180910390fd5b611a36613a69565b86516001600160401b0381118015611a4d57600080fd5b50604051908082528060200260200182016040528015611a77578160200160208202803683370190505b5061010082015260005b8751811015611ab05760008261010001518281518110611a9d57fe5b6020908102919091010152600101611a81565b506000611abb6123ed565b90506000611ac8826124d9565b9050611adb818a8561010001518b612854565b60a088015260608701526040860181905260208601829052828652611b01928c92612a5e565b151560c0840152600060e08401528515611b5a578260c00151611b555760405162461bcd60e51b815260040180806020018281038252604c815260200180613bff604c913960600191505060405180910390fd5b611b66565b60e08301805160011790525b6000608084018190525b8951811015611bcd57611bc0611bb5838381518110611b8b57fe5b60200260200101518b8481518110611b9f57fe5b6020026020010151612b8690919063ffffffff16565b608086015190611d24565b6080850152600101611b70565b50611bd6613a41565b611bde612b94565b60608581019190915260408086019290925260208086018490529385526006546080890151918901518351630220ab7760e21b815260048101939093526024830194909452604482019390935290516101009092046001600160a01b031692630882addc92606480840193829003018186803b158015611c5d57600080fd5b505afa158015611c71573d6000803e3d6000fd5b505050506040513d6020811015611c8757600080fd5b50516101208501528615611cf457878461012001511115611cef576040805162461bcd60e51b815260206004820152601d60248201527f546f6f206d75636820736c697070616765206973206578706563746564000000604482015290519081900360640190fd5b611d14565b878461012001511115611d1457600060c085015260e08401805160021790525b9299929850919650505050505050565b600082820183811015611d7e576040805162461bcd60e51b815260206004820152601b60248201527f536166654d6174683a206164646974696f6e206f766572666c6f770000000000604482015290519081900360640190fd5b9392505050565b6001600160a01b038216611de0576040805162461bcd60e51b815260206004820152601f60248201527f45524332303a206d696e7420746f20746865207a65726f206164647265737300604482015290519081900360640190fd5b611dec60008383612334565b600354611df99082611d24565b6003556001600160a01b038216600090815260016020526040902054611e1f9082611d24565b6001600160a01b03831660008181526001602090815260408083209490945583518581529351929391927fddf252ad1be2c89b69c2b068fc378daa952ba7f163c4a11628f55a4df523b3ef9281900390910190a35050565b8315611e8b57611e878685611d24565b6010555b8215611e9f57611e9b8584611d24565b6011555b81811015611ead57600f8290555b505050505050565b6001600160a01b038216611efa5760405162461bcd60e51b8152600401808060200182810382526021815260200180613c946021913960400191505060405180910390fd5b611f0682600083612334565b611f4381604051806060016040528060228152602001613b08602291396001600160a01b0385166000908152600160205260409020549190611903565b6001600160a01b038316600090815260016020526040902055600354611f699082612bf0565b6003556040805182815290516000916001600160a01b038516917fddf252ad1be2c89b69c2b068fc378daa952ba7f163c4a11628f55a4df523b3ef9181900360200190a35050565b611fb9613a69565b611fc1613a41565b84518651146120015760405162461bcd60e51b815260040180806020018281038252603d815260200180613bc2603d913960400191505060405180910390fd5b600061200c87612339565b90508061204a5760405162461bcd60e51b8152600401808060200182810382526036815260200180613cfe6036913960400191505060405180910390fd5b60006120546123ed565b90506000612061826124d9565b905061206b613a69565b89516001600160401b038111801561208257600080fd5b506040519080825280602002602001820160405280156120ac578160200160208202803683370190505b5061010082015260005b8a518110156120e557600082610100015182815181106120d257fe5b60209081029190910101526001016120b6565b506120f7828b8b846101000151612854565b60a086015260608501526040840181905260208401829052828452612123928d9287908e908890612c32565b151560c0820152600060e0820152861561217c578060c001516121775760405162461bcd60e51b815260040180806020018281038252604c815260200180613bff604c913960600191505060405180910390fd5b612188565b60e08101805160011790525b6000608082018190525b8a518110156121d9576121cc6121c18483815181106121ad57fe5b60200260200101518c8481518110611b9f57fe5b608084015190611d24565b6080830152600101612192565b506121e2613a41565b6121ea612b94565b6060858101919091526040808601929092526020808601939093528385526006546080870151918701518351634999a2ef60e01b815260048101939093526024830195909552604482019490945290516101009093046001600160a01b031692634999a2ef92606480840193919291829003018186803b15801561226d57600080fd5b505afa158015612281573d6000803e3d6000fd5b505050506040513d602081101561229757600080fd5b50516101208301528715612304578882610120015110156122ff576040805162461bcd60e51b815260206004820152601d60248201527f546f6f206d75636820736c697070616765206973206578706563746564000000604482015290519081900360640190fd5b612324565b88826101200151101561232457600060c083015260e08201805160021790525b909a909950975050505050505050565b505050565b60095481516000911461237d5760405162461bcd60e51b8152600401808060200182810382526033815260200180613d346033913960400191505060405180910390fd5b50600160005b6009548110156123e75782818151811061239957fe5b60200260200101516001600160a01b0316600982815481106123b757fe5b60009182526020909120600390910201546001600160a01b0316146123df57600091506123e7565b600101612383565b50919050565b600d546060906000906001600160401b038111801561240b57600080fd5b50604051908082528060200260200182016040528015612435578160200160208202803683370190505b50905060005b600d54811015610ca1576000600d828154811061245457fe5b6000918252602082200154600d80546001600160a01b039092169350600a918391908690811061248057fe5b60009182526020808320909101546001600160a01b0316835282019290925260400181206001015491506124b48383612cdf565b9050808585815181106124c357fe5b602090810291909101015250505060010161243b565b6009546060906000906001600160401b03811180156124f757600080fd5b50604051908082528060200260200182016040528015612521578160200160208202803683370190505b50905060005b60095481101561284d5760006009828154811061254057fe5b6000918252602082206003909102015460408051635f1dde9760e11b815290516001600160a01b039092169350839163be3bbd2e916004808201928692909190829003018186803b15801561259457600080fd5b505afa1580156125a8573d6000803e3d6000fd5b505050506040513d6000823e601f3d908101601f1916820160405260208110156125d157600080fd5b8101908080516040519392919084600160201b8211156125f057600080fd5b90830190602082018581111561260557600080fd5b82518660208202830111600160201b8211171561262157600080fd5b82525081516020918201928201910280838360005b8381101561264e578181015183820152602001612636565b5050505090500160405250505090506000600d805490506001600160401b038111801561267a57600080fd5b506040519080825280602002602001820160405280156126a4578160200160208202803683370190505b50905060005b82518110156127235787600a60008584815181106126c457fe5b6020908102919091018101516001600160a01b0316825281019190915260400160002060020154815161ffff9091169081106126fc57fe5b602002602001015182828151811061271057fe5b60209081029190910101526001016126aa565b50600660019054906101000a90046001600160a01b03166001600160a01b031663305cbde76009868154811061275557fe5b906000526020600020906003020160000160009054906101000a90046001600160a01b0316836040518363ffffffff1660e01b815260040180836001600160a01b0316815260200180602001828103825283818151815260200191508051906020019060200280838360005b838110156127d95781810151838201526020016127c1565b50505050905001935050505060206040518083038186803b1580156127fd57600080fd5b505afa158015612811573d6000803e3d6000fd5b505050506040513d602081101561282757600080fd5b5051855186908690811061283757fe5b6020908102919091010152505050600101612527565b5092915050565b606080606060008061286589612dd3565b9450600088516001600160401b038111801561288057600080fd5b506040519080825280602002602001820160405280156128aa578160200160208202803683370190505b509050600089516001600160401b03811180156128c657600080fd5b506040519080825280602002602001820160405280156128f0578160200160208202803683370190505b50905060005b8a51811015612a205760008b828151811061290d57fe5b60200260200101519050806001600160a01b03166370a08231306040518263ffffffff1660e01b815260040180826001600160a01b0316815260200191505060206040518083038186803b15801561296457600080fd5b505afa158015612978573d6000803e3d6000fd5b505050506040513d602081101561298e57600080fd5b5051835184908490811061299e57fe5b602002602001018181525050612a008a83815181106129b957fe5b60200260200101516129fa8d85815181106129d057fe5b60200260200101518686815181106129e457fe5b6020026020010151611d2490919063ffffffff16565b90612bf0565b848381518110612a0c57fe5b6020908102919091010152506001016128f6565b50612a2b818c613077565b909650925082612a39578695505b612a428361317b565b9350612a4e828c613077565b5094505050945094509450945094565b6000806000905060008087516001600160401b0381118015612a7f57600080fd5b50604051908082528060200260200182016040528015612aa9578160200160208202803683370190505b509050612ab78888886131b7565b90925090508115612acf575060019250612b7e915050565b6000805b8951811015612b6c57828181518110612ae857fe5b6020026020010151612b64576000612b268a8381518110612b0557fe5b60200260200101518a8481518110612b1957fe5b60200260200101516132e8565b90506000612b4d898481518110612b3957fe5b60200260200101518b8581518110612b1957fe5b9050808210612b6157600193505050612b6c565b50505b600101612ad3565b5080612b7757600193505b5091925050505b949350505050565b6000611d7e8383601261330c565b600f546010546011546012549192909143919082821015612be957612bcd612bc6612bbf8585612bf0565b8390613326565b8690612b86565b9450612be6612bdf612bbf8585612bf0565b8590612b86565b93505b5090919293565b6000611d7e83836040518060400160405280601e81526020017f536166654d6174683a207375627472616374696f6e206f766572666c6f770000815250611903565b6000612c3c613abe565b612c4889898989613334565b60608501526040840152151560208301521580158252612c7657806020015115612c7157600191505b612cd2565b600080612c838787613077565b915091508060001415612c94578891505b826020015115612cb557612cae8b8460400151848c61342b565b9350612ccf565b612ccc8b8460400151848c8e8a89606001516134a6565b93505b50505b505b979650505050505050565b6001600160a01b038083166000908152600a602052604081205490911663524f3889612d0a84613593565b6040518263ffffffff1660e01b81526004018080602001828103825283818151815260200191508051906020019080838360005b83811015612d56578181015183820152602001612d3e565b50505050905090810190601f168015612d835780820380516001836020036101000a031916815260200191505b509250505060206040518083038186803b158015612da057600080fd5b505afa158015612db4573d6000803e3d6000fd5b505050506040513d6020811015612dca57600080fd5b50519392505050565b6060600082516001600160401b0381118015612dee57600080fd5b50604051908082528060200260200182016040528015612e18578160200160208202803683370190505b509050600083516001600160401b0381118015612e3457600080fd5b50604051908082528060200260200182016040528015612e5e578160200160208202803683370190505b509050600084516001600160401b0381118015612e7a57600080fd5b50604051908082528060200260200182016040528015612ea4578160200160208202803683370190505b509050600085516001600160401b0381118015612ec057600080fd5b50604051908082528060200260200182016040528015612eea578160200160208202803683370190505b50905060005b600954811015612f6f5760098181548110612f0757fe5b906000526020600020906003020160020154838281518110612f2557fe5b60200260200101818152505060098181548110612f3e57fe5b906000526020600020906003020160010154828281518110612f5c57fe5b6020908102919091010152600101612ef0565b5060005b8651811015612ff157612fd2828281518110612f8b57fe5b6020026020010151612fcc858481518110612fa257fe5b60200260200101518a8581518110612fb657fe5b60200260200101516136a690919063ffffffff16565b90612b86565b848281518110612fde57fe5b6020908102919091010152600101612f73565b506000805b875181101561302f5761302585828151811061300e57fe5b602002602001015183611d2490919063ffffffff16565b9150600101612ff6565b5060005b875181101561306b5761304c82868381518110612fb657fe5b86828151811061305857fe5b6020908102919091010152600101613033565b50939695505050505050565b6060600060606000805b86518110156130c1576130b76130b087838151811061309c57fe5b6020026020010151898481518110611b9f57fe5b8390611d24565b9150600101613081565b50806130d1579092509050613174565b84516001600160401b03811180156130e857600080fd5b50604051908082528060200260200182016040528015613112578160200160208202803683370190505b50915060005b865181101561316d5761314e8261314888848151811061313457fe5b60200260200101518a8581518110611b9f57fe5b906136a6565b83828151811061315a57fe5b6020908102919091010152600101613118565b5090925090505b9250929050565b600080613186610a71565b905080156131a7576131a0613199610a71565b84906136a6565b91506123e7565b50670de0b6b3a764000092915050565b60006060600060019050600086516001600160401b03811180156131da57600080fd5b50604051908082528060200260200182016040528015613204578160200160208202803683370190505b50905060005b87518110156132db57600182828151811061322157fe5b602002602001019015159081151581525050613245600e548783815181106129e457fe5b87828151811061325157fe5b6020026020010151106132855760009250600082828151811061327057fe5b911515602092830291909101909101526132d3565b85818151811061329157fe5b60200260200101516132ab600e548984815181106129e457fe5b116132d3576000925060008282815181106132c257fe5b911515602092830291909101909101525b60010161320a565b5090969095509350505050565b6000818310613302576132fb8383612bf0565b9050610a6b565b6132fb8284612bf0565b6000612b7e600a83900a61332086866136b4565b9061370d565b6000611d7e8383601261374f565b60008060608060008089516001600160401b038111801561335457600080fd5b5060405190808252806020026020018201604052801561337e578160200160208202803683370190505b50905060008a516001600160401b038111801561339a57600080fd5b506040519080825280602002602001820160405280156133c4578160200160208202803683370190505b50905060016133d48c8c8c6131b7565b909450925060005b8c5181101561341a576133f18a828f85613779565b8483815181106133fd57fe5b9215156020938402919091019092019190915291506001016133dc565b509b929a5098509650945050505050565b60006001815b86518110156134915785818151811061344657fe5b60200260200101516134895783818151811061345e57fe5b602002602001015185828151811061347257fe5b602002602001015111156134895760009150613491565b600101613431565b50801561349d57600191505b50949350505050565b6000805b8851811015613585578781815181106134bf57fe5b6020026020010151613502578581815181106134d757fe5b60200260200101518782815181106134eb57fe5b602002602001015111156135025760019150613585565b82818151811061350e57fe5b602002602001015161357d57600061353f86838151811061352b57fe5b6020026020010151888481518110612b1957fe5b9050600061356686848151811061355257fe5b6020026020010151898581518110612b1957fe5b905080821061357a57600193505050613585565b50505b6001016134aa565b5080612cd457506001612cd4565b604080516020808252818301909252606091600091906020820181803683370190505090506000805b6020811015613612576008810260020a85026001600160f81b031981161561360957808484815181106135eb57fe5b60200101906001600160f81b031916908160001a9053506001909201915b506001016135bc565b506000816001600160401b038111801561362b57600080fd5b506040519080825280601f01601f191660200182016040528015613656576020820181803683370190505b50905060005b8281101561349d5783818151811061367057fe5b602001015160f81c60f81b82828151811061368757fe5b60200101906001600160f81b031916908160001a90535060010161365c565b6000611d7e83836012613994565b6000826136c357506000610a6b565b828202828482816136d057fe5b0414611d7e5760405162461bcd60e51b8152600401808060200182810382526021815260200180613c4b6021913960400191505060405180910390fd5b6000611d7e83836040518060400160405280601a81526020017f536166654d6174683a206469766973696f6e206279207a65726f0000000000008152506139a8565b6000670de0b6b3a7640000815b8481101561349d5761376f82878661330c565b915060010161375c565b60008060006001905060006009878154811061379157fe5b6000918252602082206003909102015460408051635f1dde9760e11b815290516001600160a01b039092169350839163be3bbd2e916004808201928692909190829003018186803b1580156137e557600080fd5b505afa1580156137f9573d6000803e3d6000fd5b505050506040513d6000823e601f3d908101601f19168201604052602081101561382257600080fd5b8101908080516040519392919084600160201b82111561384157600080fd5b90830190602082018581111561385657600080fd5b82518660208202830111600160201b8211171561387257600080fd5b82525081516020918201928201910280838360005b8381101561389f578181015183820152602001613887565b50505050905001604052505050905060005b815181101561398457600c60008383815181106138ca57fe5b6020908102919091018101516001600160a01b031682528101919091526040016000205460ff161561397c5760008a600a600085858151811061390957fe5b6020908102919091018101516001600160a01b0316825281019190915260400160002060020154815161ffff90911690811061394157fe5b60200260200101519050613968818a8c8151811061395b57fe5b6020026020010151613a0d565b61397a57600094506000975050613984565b505b6001016138b1565b5091989497509395505050505050565b6000612b7e8361332086600a86900a6136b4565b600081836139f75760405162461bcd60e51b815260206004820181815283516024840152835190928392604490910191908501908083836000831561195757818101518382015260200161193f565b506000838581613a0357fe5b0495945050505050565b60006001670e92596fd62900008410613a2857506000611d7e565b670d2f13f7789f00008411611d7e575060009392505050565b6040518060800160405280600081526020016000815260200160008152602001600081525090565b6040518061014001604052806060815260200160608152602001606081526020016000815260200160008152602001600081526020016000151581526020016000815260200160608152602001600081525090565b60408051608081018252600080825260208201526060918101829052818101919091529056fe45524332303a207472616e7366657220746f20746865207a65726f206164647265737345524332303a206275726e20616d6f756e7420657863656564732062616c616e63656661696c656420746f207472616e7366657220746f6b656e732c20636865636b20616c6c6f77616e63654f776e61626c653a206e6577206f776e657220697320746865207a65726f206164647265737345524332303a20617070726f766520746f20746865207a65726f206164647265737345524332303a207472616e7366657220616d6f756e7420657863656564732062616c616e6365746f6b656e73496e20616e642076616c756573496e2073686f756c642068617665207468652073616d65206e756d626572206f6620656c656d656e74735468697320636f6d62696e6174696f6e206f6620746f6b656e7320776f756c64206d6f7665206779726f73636f7065207765696768747320746f6f206661722066726f6d207461726765742e536166654d6174683a206d756c7469706c69636174696f6e206f766572666c6f7745524332303a207472616e7366657220616d6f756e74206578636565647320616c6c6f77616e636545524332303a206275726e2066726f6d20746865207a65726f206164647265737345524332303a207472616e736665722066726f6d20746865207a65726f206164647265737345524332303a20617070726f76652066726f6d20746865207a65726f2061646472657373496e70757420746f6b656e7320696e2077726f6e67206f72646572206f7220636f6e7461696e7320696e76616c696420746f6b656e736270746f6b656e7320646f206e6f7420686176652074686520636f7272656374206e756d626572206f6620616464726573657345524332303a2064656372656173656420616c6c6f77616e63652062656c6f77207a65726fa2646970667358221220df3630d804f7f4e3215171eb6892ba8113d551ece4854892941ab6f6409404dc64736f6c63430007060033",
  "devdoc": {
    "kind": "dev",
    "methods": {
      "allowance(address,address)": {
        "details": "See {IERC20-allowance}."
      },
      "approve(address,uint256)": {
        "details": "See {IERC20-approve}. Requirements: - `spender` cannot be the zero address."
      },
      "balanceOf(address)": {
        "details": "See {IERC20-balanceOf}."
      },
      "decimals()": {
        "details": "Returns the number of decimals used to get its user representation. For example, if `decimals` equals `2`, a balance of `505` tokens should be displayed to a user as `5,05` (`505 / 10 ** 2`). Tokens usually opt for a value of 18, imitating the relationship between Ether and Wei. This is the value {ERC20} uses, unless {_setupDecimals} is called. NOTE: This information is only used for _display_ purposes: it in no way affects any of the arithmetic of the contract, including {IERC20-balanceOf} and {IERC20-transfer}."
      },
      "decreaseAllowance(address,uint256)": {
        "details": "Atomically decreases the allowance granted to `spender` by the caller. This is an alternative to {approve} that can be used as a mitigation for problems described in {IERC20-approve}. Emits an {Approval} event indicating the updated allowance. Requirements: - `spender` cannot be the zero address. - `spender` must have allowance for the caller of at least `subtractedValue`."
      },
      "increaseAllowance(address,uint256)": {
        "details": "Atomically increases the allowance granted to `spender` by the caller. This is an alternative to {approve} that can be used as a mitigation for problems described in {IERC20-approve}. Emits an {Approval} event indicating the updated allowance. Requirements: - `spender` cannot be the zero address."
      },
      "name()": {
        "details": "Returns the name of the token."
      },
      "owner()": {
        "details": "Returns the address of the current owner."
      },
      "renounceOwnership()": {
        "details": "Leaves the contract without owner. It will not be possible to call `onlyOwner` functions anymore. Can only be called by the current owner. NOTE: Renouncing ownership will leave the contract without an owner, thereby removing any functionality that is only available to the owner."
      },
      "symbol()": {
        "details": "Returns the symbol of the token, usually a shorter version of the name."
      },
      "totalSupply()": {
        "details": "See {IERC20-totalSupply}."
      },
      "transfer(address,uint256)": {
        "details": "See {IERC20-transfer}. Requirements: - `recipient` cannot be the zero address. - the caller must have a balance of at least `amount`."
      },
      "transferFrom(address,address,uint256)": {
        "details": "See {IERC20-transferFrom}. Emits an {Approval} event indicating the updated allowance. This is not required by the EIP. See the note at the beginning of {ERC20}. Requirements: - `sender` and `recipient` cannot be the zero address. - `sender` must have a balance of at least `amount`. - the caller must have allowance for ``sender``'s tokens of at least `amount`."
      },
      "transferOwnership(address)": {
        "details": "Transfers ownership of the contract to a new account (`newOwner`). Can only be called by the current owner."
      }
    },
    "version": 1
  },
  "userdoc": {
    "kind": "user",
    "methods": {},
    "version": 1
  },
  "storageLayout": {
    "storage": [
      {
        "astId": 8626,
        "contract": "contracts/GyroFund.sol:GyroFundV1",
        "label": "_owner",
        "offset": 0,
        "slot": "0",
        "type": "t_address"
      },
      {
        "astId": 235,
        "contract": "contracts/GyroFund.sol:GyroFundV1",
        "label": "_balances",
        "offset": 0,
        "slot": "1",
        "type": "t_mapping(t_address,t_uint256)"
      },
      {
        "astId": 241,
        "contract": "contracts/GyroFund.sol:GyroFundV1",
        "label": "_allowances",
        "offset": 0,
        "slot": "2",
        "type": "t_mapping(t_address,t_mapping(t_address,t_uint256))"
      },
      {
        "astId": 243,
        "contract": "contracts/GyroFund.sol:GyroFundV1",
        "label": "_totalSupply",
        "offset": 0,
        "slot": "3",
        "type": "t_uint256"
      },
      {
        "astId": 245,
        "contract": "contracts/GyroFund.sol:GyroFundV1",
        "label": "_name",
        "offset": 0,
        "slot": "4",
        "type": "t_string_storage"
      },
      {
        "astId": 247,
        "contract": "contracts/GyroFund.sol:GyroFundV1",
        "label": "_symbol",
        "offset": 0,
        "slot": "5",
        "type": "t_string_storage"
      },
      {
        "astId": 249,
        "contract": "contracts/GyroFund.sol:GyroFundV1",
        "label": "_decimals",
        "offset": 0,
        "slot": "6",
        "type": "t_uint8"
      },
      {
        "astId": 4339,
        "contract": "contracts/GyroFund.sol:GyroFundV1",
        "label": "gyroPriceOracle",
        "offset": 1,
        "slot": "6",
        "type": "t_contract(GyroPriceOracle)8084"
      },
      {
        "astId": 4341,
        "contract": "contracts/GyroFund.sol:GyroFundV1",
        "label": "gyroRouter",
        "offset": 0,
        "slot": "7",
        "type": "t_contract(GyroRouter)8563"
      },
      {
        "astId": 4343,
        "contract": "contracts/GyroFund.sol:GyroFundV1",
        "label": "priceOracle",
        "offset": 0,
        "slot": "8",
        "type": "t_contract(PriceOracle)8051"
      },
      {
        "astId": 4405,
        "contract": "contracts/GyroFund.sol:GyroFundV1",
        "label": "poolProperties",
        "offset": 0,
        "slot": "9",
        "type": "t_array(t_struct(PoolProperties)4357_storage)dyn_storage"
      },
      {
        "astId": 4409,
        "contract": "contracts/GyroFund.sol:GyroFundV1",
        "label": "_tokenAddressToProperties",
        "offset": 0,
        "slot": "10",
        "type": "t_mapping(t_address,t_struct(TokenProperties)4350_storage)"
      },
      {
        "astId": 4413,
        "contract": "contracts/GyroFund.sol:GyroFundV1",
        "label": "_checkPoolIsValid",
        "offset": 0,
        "slot": "11",
        "type": "t_mapping(t_address,t_bool)"
      },
      {
        "astId": 4417,
        "contract": "contracts/GyroFund.sol:GyroFundV1",
        "label": "_checkIsStablecoin",
        "offset": 0,
        "slot": "12",
        "type": "t_mapping(t_address,t_bool)"
      },
      {
        "astId": 4420,
        "contract": "contracts/GyroFund.sol:GyroFundV1",
        "label": "underlyingTokenAddresses",
        "offset": 0,
        "slot": "13",
        "type": "t_array(t_address)dyn_storage"
      },
      {
        "astId": 4422,
        "contract": "contracts/GyroFund.sol:GyroFundV1",
        "label": "portfolioWeightEpsilon",
        "offset": 0,
        "slot": "14",
        "type": "t_uint256"
      },
      {
        "astId": 4424,
        "contract": "contracts/GyroFund.sol:GyroFundV1",
        "label": "lastSeenBlock",
        "offset": 0,
        "slot": "15",
        "type": "t_uint256"
      },
      {
        "astId": 4426,
        "contract": "contracts/GyroFund.sol:GyroFundV1",
        "label": "inflowHistory",
        "offset": 0,
        "slot": "16",
        "type": "t_uint256"
      },
      {
        "astId": 4428,
        "contract": "contracts/GyroFund.sol:GyroFundV1",
        "label": "outflowHistory",
        "offset": 0,
        "slot": "17",
        "type": "t_uint256"
      },
      {
        "astId": 4430,
        "contract": "contracts/GyroFund.sol:GyroFundV1",
        "label": "memoryParam",
        "offset": 0,
        "slot": "18",
        "type": "t_uint256"
      }
    ],
    "types": {
      "t_address": {
        "encoding": "inplace",
        "label": "address",
        "numberOfBytes": "20"
      },
      "t_array(t_address)dyn_storage": {
        "base": "t_address",
        "encoding": "dynamic_array",
        "label": "address[]",
        "numberOfBytes": "32"
      },
      "t_array(t_struct(PoolProperties)4357_storage)dyn_storage": {
        "base": "t_struct(PoolProperties)4357_storage",
        "encoding": "dynamic_array",
        "label": "struct GyroFundV1.PoolProperties[]",
        "numberOfBytes": "32"
      },
      "t_bool": {
        "encoding": "inplace",
        "label": "bool",
        "numberOfBytes": "1"
      },
      "t_bytes32": {
        "encoding": "inplace",
        "label": "bytes32",
        "numberOfBytes": "32"
      },
      "t_contract(GyroPriceOracle)8084": {
        "encoding": "inplace",
        "label": "contract GyroPriceOracle",
        "numberOfBytes": "20"
      },
      "t_contract(GyroRouter)8563": {
        "encoding": "inplace",
        "label": "contract GyroRouter",
        "numberOfBytes": "20"
      },
      "t_contract(PriceOracle)8051": {
        "encoding": "inplace",
        "label": "contract PriceOracle",
        "numberOfBytes": "20"
      },
      "t_mapping(t_address,t_bool)": {
        "encoding": "mapping",
        "key": "t_address",
        "label": "mapping(address => bool)",
        "numberOfBytes": "32",
        "value": "t_bool"
      },
      "t_mapping(t_address,t_mapping(t_address,t_uint256))": {
        "encoding": "mapping",
        "key": "t_address",
        "label": "mapping(address => mapping(address => uint256))",
        "numberOfBytes": "32",
        "value": "t_mapping(t_address,t_uint256)"
      },
      "t_mapping(t_address,t_struct(TokenProperties)4350_storage)": {
        "encoding": "mapping",
        "key": "t_address",
        "label": "mapping(address => struct GyroFundV1.TokenProperties)",
        "numberOfBytes": "32",
        "value": "t_struct(TokenProperties)4350_storage"
      },
      "t_mapping(t_address,t_uint256)": {
        "encoding": "mapping",
        "key": "t_address",
        "label": "mapping(address => uint256)",
        "numberOfBytes": "32",
        "value": "t_uint256"
      },
      "t_string_storage": {
        "encoding": "bytes",
        "label": "string",
        "numberOfBytes": "32"
      },
      "t_struct(PoolProperties)4357_storage": {
        "encoding": "inplace",
        "label": "struct GyroFundV1.PoolProperties",
        "members": [
          {
            "astId": 4352,
            "contract": "contracts/GyroFund.sol:GyroFundV1",
            "label": "poolAddress",
            "offset": 0,
            "slot": "0",
            "type": "t_address"
          },
          {
            "astId": 4354,
            "contract": "contracts/GyroFund.sol:GyroFundV1",
            "label": "initialPoolWeight",
            "offset": 0,
            "slot": "1",
            "type": "t_uint256"
          },
          {
            "astId": 4356,
            "contract": "contracts/GyroFund.sol:GyroFundV1",
            "label": "initialPoolPrice",
            "offset": 0,
            "slot": "2",
            "type": "t_uint256"
          }
        ],
        "numberOfBytes": "96"
      },
      "t_struct(TokenProperties)4350_storage": {
        "encoding": "inplace",
        "label": "struct GyroFundV1.TokenProperties",
        "members": [
          {
            "astId": 4345,
            "contract": "contracts/GyroFund.sol:GyroFundV1",
            "label": "oracleAddress",
            "offset": 0,
            "slot": "0",
            "type": "t_address"
          },
          {
            "astId": 4347,
            "contract": "contracts/GyroFund.sol:GyroFundV1",
            "label": "tokenSymbol",
            "offset": 0,
            "slot": "1",
            "type": "t_bytes32"
          },
          {
            "astId": 4349,
            "contract": "contracts/GyroFund.sol:GyroFundV1",
            "label": "tokenIndex",
            "offset": 0,
            "slot": "2",
            "type": "t_uint16"
          }
        ],
        "numberOfBytes": "96"
      },
      "t_uint16": {
        "encoding": "inplace",
        "label": "uint16",
        "numberOfBytes": "2"
      },
      "t_uint256": {
        "encoding": "inplace",
        "label": "uint256",
        "numberOfBytes": "32"
      },
      "t_uint8": {
        "encoding": "inplace",
        "label": "uint8",
        "numberOfBytes": "1"
      }
    }
  }
}