{
  "address": "0x9162887Fe256A39c7ef0083781e4CDC1371bef55",
  "abi": [
    {
      "inputs": [
        {
          "internalType": "uint256",
          "name": "_dollarValueIn",
          "type": "uint256"
        },
        {
          "internalType": "uint256",
          "name": "_inflowHistory",
          "type": "uint256"
        },
        {
          "internalType": "uint256",
          "name": "_nav",
          "type": "uint256"
        }
      ],
      "name": "getAmountToMint",
      "outputs": [
        {
          "internalType": "uint256",
          "name": "_gyroAmount",
          "type": "uint256"
        }
      ],
      "stateMutability": "pure",
      "type": "function"
    },
    {
      "inputs": [
        {
          "internalType": "uint256",
          "name": "_dollarValueOut",
          "type": "uint256"
        },
        {
          "internalType": "uint256",
          "name": "_outflowHistory",
          "type": "uint256"
        },
        {
          "internalType": "uint256",
          "name": "_nav",
          "type": "uint256"
        }
      ],
      "name": "getAmountToRedeem",
      "outputs": [
        {
          "internalType": "uint256",
          "name": "_gyroAmount",
          "type": "uint256"
        }
      ],
      "stateMutability": "pure",
      "type": "function"
    },
    {
      "inputs": [
        {
          "internalType": "address",
          "name": "_bPoolAddress",
          "type": "address"
        },
        {
          "internalType": "uint256[]",
          "name": "_underlyingPrices",
          "type": "uint256[]"
        }
      ],
      "name": "getBPTPrice",
      "outputs": [
        {
          "internalType": "uint256",
          "name": "_bptPrice",
          "type": "uint256"
        }
      ],
      "stateMutability": "view",
      "type": "function"
    }
  ],
  "transactionHash": "0x4f2093112dd9435bf709f6f6d92fd5e3a2dde12e404d60128acbd4e6bbfc9e18",
  "args": [],
  "solcInputHash": "8e2f9cf30c97efb503408603c2f5b577",
  "bytecode": "0x608060405234801561001057600080fd5b506117f8806100206000396000f3fe608060405234801561001057600080fd5b50600436106100415760003560e01c80630882addc14610046578063305cbde71461006f5780634999a2ef14610082575b600080fd5b6100596100543660046116a5565b610095565b6040516100669190611705565b60405180910390f35b61005961007d36600461154a565b6100ea565b6100596100903660046116a5565b61044d565b6000670de0b6b3a76400008210156100e05764174876e80060006100cb670de0b6b3a76400006100c584886104af565b906104bd565b90506100d786826104af565b925050506100e3565b50825b9392505050565b6000808390506000816001600160a01b03166318160ddd6040518163ffffffff1660e01b815260040160206040518083038186803b15801561012b57600080fd5b505afa15801561013f573d6000803e3d6000fd5b505050506040513d601f19601f82011682018060405250810190610163919061168d565b90506000826001600160a01b031663be3bbd2e6040518163ffffffff1660e01b815260040160006040518083038186803b1580156101a057600080fd5b505afa1580156101b4573d6000803e3d6000fd5b505050506040513d6000823e601f3d908101601f191682016040526101dc91908101906115f4565b9050670de0b6b3a76400008060005b8351811015610427576000866001600160a01b031663f1b8a9b786848151811061021157fe5b60200260200101516040518263ffffffff1660e01b815260040161023591906116f1565b60206040518083038186803b15801561024d57600080fd5b505afa158015610261573d6000803e3d6000fd5b505050506040513d601f19601f82011682018060405250810190610285919061168d565b9050600089838151811061029557fe5b602002602001015190506000886001600160a01b031663f8b2cb4f8886815181106102bc57fe5b60200260200101516040518263ffffffff1660e01b81526004016102e091906116f1565b60206040518083038186803b1580156102f857600080fd5b505afa15801561030c573d6000803e3d6000fd5b505050506040513d601f19601f82011682018060405250810190610330919061168d565b9050600087858151811061034057fe5b60200260200101516001600160a01b031663313ce5676040518163ffffffff1660e01b815260040160206040518083038186803b15801561038057600080fd5b505afa158015610394573d6000803e3d6000fd5b505050506040513d601f19601f820116820180604052508101906103b891906116d0565b60ff16905060128110156103ed576103d7826012839003600a0a610517565b91506103ea836012839003600a0a610517565b92505b6103fa8783866012610570565b965061041561040b848660126105af565b8790866012610570565b955050600190930192506101eb915050565b50600061043e8561043885856104af565b906105d1565b96505050505050505b92915050565b6000670de0b6b3a764000080831015610468578491506104a6565b64174876e800600061047a82876104af565b905082811061048c57600093506104a3565b6104a061049984836105df565b88906104af565b93505b50505b50929392505050565b60006100e383836012610621565b6000828201838110156100e3576040805162461bcd60e51b815260206004820152601b60248201527f536166654d6174683a206164646974696f6e206f766572666c6f770000000000604482015290519081900360640190fd5b60008261052657506000610447565b8282028284828161053357fe5b04146100e35760405162461bcd60e51b81526004018080602001828103825260218152602001806117a26021913960400191505060405180910390fd5b60008061057d8584610635565b9050600061058b8585610635565b90506105a48761059b848461068c565b600f0b906106b3565b979650505050505050565b60006105c9836105c386600a86900a610517565b90610724565b949350505050565b60006100e3838360126105af565b60006100e383836040518060400160405280601e81526020017f536166654d6174683a207375627472616374696f6e206f766572666c6f770000815250610766565b60006105c9600a83900a6105c38686610517565b6000600a82900a8161064f82868161064957fe5b046107fd565b9050600061067661066884888161066257fe5b066107fd565b610671856107fd565b610852565b905061068282826108a5565b9695505050505050565b60006100e36106ab6106a085600f0b6108d8565b600f85900b906109b8565b600f0b6109ee565b6000816106c257506000610447565b600083600f0b12156106d357600080fd5b600f83900b6fffffffffffffffffffffffffffffffff8316810260401c90608084901c026001600160c01b0381111561070b57600080fd5b60401b811981111561071c57600080fd5b019392505050565b60006100e383836040518060400160405280601a81526020017f536166654d6174683a206469766973696f6e206279207a65726f0000000000008152506114e5565b600081848411156107f55760405162461bcd60e51b81526004018080602001828103825283818151815260200191508051906020019080838360005b838110156107ba5781810151838201526020016107a2565b50505050905090810190601f1680156107e75780820380516001836020036101000a031916815260200191505b509250505060405180910390fd5b505050900390565b6000677fffffffffffffff8211156108465760405162461bcd60e51b81526004018080602001828103825260398152602001806117696039913960400191505060405180910390fd5b50604081901b5b919050565b600081600f0b6000141561086557600080fd5b600082600f0b604085600f0b901b8161087a57fe5b05905060016001607f1b0319811280159061089c575060016001607f1b038113155b6100e357600080fd5b6000600f83810b9083900b0160016001607f1b0319811280159061089c575060016001607f1b038113156100e357600080fd5b60008082600f0b136108e957600080fd5b6000600f83900b680100000000000000008112610908576040918201911d5b640100000000811261091c576020918201911d5b62010000811261092e576010918201911d5b610100811261093f576008918201911d5b6010811261094f576004918201911d5b6004811261095f576002918201911d5b6002811261096e576001820191505b603f19820160401b600f85900b607f8490031b6001603f1b5b60008113156109ad5790800260ff81901c8281029390930192607f011c9060011d610987565b509095945050505050565b6000600f83810b9083900b0260401d60016001607f1b0319811280159061089c575060016001607f1b038113156100e357600080fd5b60006840000000000000000082600f0b12610a45576040805162461bcd60e51b81526020600482015260126024820152716578706f6e656e7420746f6f206c6172676560701b604482015290519081900360640190fd5b683fffffffffffffffff1982600f0b1215610a625750600061084d565b6001607f1b60006001603f1b8416600f0b1315610a905770016a09e667f3bcc908b2fb1366ea957d3e0260801c5b60008367400000000000000016600f0b1315610abd577001306fe0a31b7152de8d5a46305c85edec0260801c5b60008367200000000000000016600f0b1315610aea577001172b83c7d517adcdf7c8c50eb14a791f0260801c5b60008367100000000000000016600f0b1315610b175770010b5586cf9890f6298b92b71842a983630260801c5b60008367080000000000000016600f0b1315610b44577001059b0d31585743ae7c548eb68ca417fd0260801c5b60008367040000000000000016600f0b1315610b7157700102c9a3e778060ee6f7caca4f7a29bde80260801c5b60008367020000000000000016600f0b1315610b9e5770010163da9fb33356d84a66ae336dcdfa3f0260801c5b60008367010000000000000016600f0b1315610bcb57700100b1afa5abcbed6129ab13ec11dc95430260801c5b600083668000000000000016600f0b1315610bf75770010058c86da1c09ea1ff19d294cf2f679b0260801c5b600083664000000000000016600f0b1315610c23577001002c605e2e8cec506d21bfc89a23a00f0260801c5b600083662000000000000016600f0b1315610c4f57700100162f3904051fa128bca9c55c31e5df0260801c5b600083661000000000000016600f0b1315610c7b577001000b175effdc76ba38e31671ca9397250260801c5b600083660800000000000016600f0b1315610ca757700100058ba01fb9f96d6cacd4b180917c3d0260801c5b600083660400000000000016600f0b1315610cd35770010002c5cc37da9491d0985c348c68e7b30260801c5b600083660200000000000016600f0b1315610cff577001000162e525ee054754457d59952920260260801c5b600083660100000000000016600f0b1315610d2b5770010000b17255775c040618bf4a4ade83fc0260801c5b6000836580000000000016600f0b1315610d56577001000058b91b5bc9ae2eed81e9b7d4cfab0260801c5b6000836540000000000016600f0b1315610d8157700100002c5c89d5ec6ca4d7c8acc017b7c90260801c5b6000836520000000000016600f0b1315610dac5770010000162e43f4f831060e02d839a9d16d0260801c5b6000836510000000000016600f0b1315610dd757700100000b1721bcfc99d9f890ea069117630260801c5b6000836508000000000016600f0b1315610e025770010000058b90cf1e6d97f9ca14dbcc16280260801c5b6000836504000000000016600f0b1315610e2d577001000002c5c863b73f016468f6bac5ca2b0260801c5b6000836502000000000016600f0b1315610e5857700100000162e430e5a18f6119e3c02282a50260801c5b6000836501000000000016600f0b1315610e83577001000000b1721835514b86e6d96efd1bfe0260801c5b60008364800000000016600f0b1315610ead57700100000058b90c0b48c6be5df846c5b2ef0260801c5b60008364400000000016600f0b1315610ed75770010000002c5c8601cc6b9e94213c72737a0260801c5b60008364200000000016600f0b1315610f01577001000000162e42fff037df38aa2b219f060260801c5b60008364100000000016600f0b1315610f2b5770010000000b17217fba9c739aa5819f44f90260801c5b60008364080000000016600f0b1315610f55577001000000058b90bfcdee5acd3c1cedc8230260801c5b60008364040000000016600f0b1315610f7f57700100000002c5c85fe31f35a6a30da1be500260801c5b60008364020000000016600f0b1315610fa95770010000000162e42ff0999ce3541b9fffcf0260801c5b60008364010000000016600f0b1315610fd357700100000000b17217f80f4ef5aadda455540260801c5b600083638000000016600f0b1315610ffc5770010000000058b90bfbf8479bd5a81b51ad0260801c5b600083634000000016600f0b1315611025577001000000002c5c85fdf84bd62ae30a74cc0260801c5b600083632000000016600f0b131561104e57700100000000162e42fefb2fed257559bdaa0260801c5b600083631000000016600f0b1315611077577001000000000b17217f7d5a7716bba4a9ae0260801c5b600083630800000016600f0b13156110a057700100000000058b90bfbe9ddbac5e109cce0260801c5b600083630400000016600f0b13156110c95770010000000002c5c85fdf4b15de6f17eb0d0260801c5b600083630200000016600f0b13156110f2577001000000000162e42fefa494f1478fde050260801c5b600083630100000016600f0b131561111b5770010000000000b17217f7d20cf927c8e94c0260801c5b6000836280000016600f0b1315611143577001000000000058b90bfbe8f71cb4e4b33d0260801c5b6000836240000016600f0b131561116b57700100000000002c5c85fdf477b662b269450260801c5b6000836220000016600f0b13156111935770010000000000162e42fefa3ae53369388c0260801c5b6000836210000016600f0b13156111bb57700100000000000b17217f7d1d351a389d400260801c5b6000836208000016600f0b13156111e35770010000000000058b90bfbe8e8b2d3d4ede0260801c5b6000836204000016600f0b131561120b577001000000000002c5c85fdf4741bea6e77e0260801c5b6000836202000016600f0b131561123357700100000000000162e42fefa39fe95583c20260801c5b6000836201000016600f0b131561125b577001000000000000b17217f7d1cfb72b45e10260801c5b60008361800016600f0b131561128257700100000000000058b90bfbe8e7cc35c3f00260801c5b60008361400016600f0b13156112a95770010000000000002c5c85fdf473e242ea380260801c5b60008361200016600f0b13156112d0577001000000000000162e42fefa39f02b772c0260801c5b60008361100016600f0b13156112f75770010000000000000b17217f7d1cf7d83c1a0260801c5b60008361080016600f0b131561131e577001000000000000058b90bfbe8e7bdcbe2e0260801c5b60008361040016600f0b131561134557700100000000000002c5c85fdf473dea871f0260801c5b60008361020016600f0b131561136c5770010000000000000162e42fefa39ef44d910260801c5b60008361010016600f0b131561139357700100000000000000b17217f7d1cf79e9490260801c5b600083608016600f0b13156113b95770010000000000000058b90bfbe8e7bce5440260801c5b600083604016600f0b13156113df577001000000000000002c5c85fdf473de6eca0260801c5b600083602016600f0b131561140557700100000000000000162e42fefa39ef366f0260801c5b600083601016600f0b131561142b577001000000000000000b17217f7d1cf79afa0260801c5b600083600816600f0b131561145157700100000000000000058b90bfbe8e7bcd6d0260801c5b600083600416600f0b13156114775770010000000000000002c5c85fdf473de6b20260801c5b600083600216600f0b131561149d577001000000000000000162e42fefa39ef3580260801c5b600083600116600f0b13156114c35770010000000000000000b17217f7d1cf79ab0260801c5b600f83810b60401d603f03900b1c60016001607f1b0381111561044757600080fd5b600081836115345760405162461bcd60e51b81526020600482018181528351602484015283519092839260449091019190850190808383600083156107ba5781810151838201526020016107a2565b50600083858161154057fe5b0495945050505050565b6000806040838503121561155c578182fd5b823561156781611750565b915060208381013567ffffffffffffffff811115611583578283fd5b8401601f81018613611593578283fd5b80356115a66115a182611732565b61170e565b81815283810190838501858402850186018a10156115c2578687fd5b8694505b838510156115e45780358352600194909401939185019185016115c6565b5080955050505050509250929050565b60006020808385031215611606578182fd5b825167ffffffffffffffff81111561161c578283fd5b8301601f8101851361162c578283fd5b805161163a6115a182611732565b8181528381019083850185840285018601891015611656578687fd5b8694505b8385101561168157805161166d81611750565b83526001949094019391850191850161165a565b50979650505050505050565b60006020828403121561169e578081fd5b5051919050565b6000806000606084860312156116b9578081fd5b505081359360208301359350604090920135919050565b6000602082840312156116e1578081fd5b815160ff811681146100e3578182fd5b6001600160a01b0391909116815260200190565b90815260200190565b60405181810167ffffffffffffffff8111828210171561172a57fe5b604052919050565b600067ffffffffffffffff82111561174657fe5b5060209081020190565b6001600160a01b038116811461176557600080fd5b5056fe76616c756520697320746f6f206869676820746f206265207472616e73666f726d656420696e20612036342e36342d626974206e756d626572536166654d6174683a206d756c7469706c69636174696f6e206f766572666c6f77a2646970667358221220726cc2908e8221ea3f22dfcea4cd49591151b9c267d2047d84e7f080a2937f5764736f6c63430007060033",
  "devdoc": {
    "kind": "dev",
    "methods": {},
    "version": 1
  },
  "userdoc": {
    "kind": "user",
    "methods": {},
    "version": 1
  },
  "storageLayout": {
    "storage": [],
    "types": null
  }
}