{
  "address": "0x2bDc0E418424f6369F30BaA471D6a2c6146A3546",
  "abi": [
    {
      "anonymous": false,
      "inputs": [
        {
          "indexed": true,
          "internalType": "address",
          "name": "owner",
          "type": "address"
        },
        {
          "indexed": true,
          "internalType": "address",
          "name": "spender",
          "type": "address"
        },
        {
          "indexed": false,
          "internalType": "uint256",
          "name": "value",
          "type": "uint256"
        }
      ],
      "name": "Approval",
      "type": "event"
    },
    {
      "anonymous": false,
      "inputs": [
        {
          "indexed": true,
          "internalType": "address",
          "name": "minter",
          "type": "address"
        },
        {
          "indexed": true,
          "internalType": "uint256",
          "name": "amount",
          "type": "uint256"
        }
      ],
      "name": "Mint",
      "type": "event"
    },
    {
      "anonymous": false,
      "inputs": [
        {
          "indexed": true,
          "internalType": "address",
          "name": "previousOwner",
          "type": "address"
        },
        {
          "indexed": true,
          "internalType": "address",
          "name": "newOwner",
          "type": "address"
        }
      ],
      "name": "OwnershipTransferred",
      "type": "event"
    },
    {
      "anonymous": false,
      "inputs": [
        {
          "indexed": true,
          "internalType": "address",
          "name": "redeemer",
          "type": "address"
        },
        {
          "indexed": true,
          "internalType": "uint256",
          "name": "amount",
          "type": "uint256"
        }
      ],
      "name": "Redeem",
      "type": "event"
    },
    {
      "anonymous": false,
      "inputs": [
        {
          "indexed": true,
          "internalType": "address",
          "name": "from",
          "type": "address"
        },
        {
          "indexed": true,
          "internalType": "address",
          "name": "to",
          "type": "address"
        },
        {
          "indexed": false,
          "internalType": "uint256",
          "name": "value",
          "type": "uint256"
        }
      ],
      "name": "Transfer",
      "type": "event"
    },
    {
      "inputs": [
        {
          "internalType": "address",
          "name": "_bpoolAddress",
          "type": "address"
        },
        {
          "internalType": "uint256",
          "name": "_initialPoolWeight",
          "type": "uint256"
        }
      ],
      "name": "addPool",
      "outputs": [],
      "stateMutability": "nonpayable",
      "type": "function"
    },
    {
      "inputs": [
        {
          "internalType": "address",
          "name": "tokenAddress",
          "type": "address"
        },
        {
          "internalType": "address",
          "name": "oracleAddress",
          "type": "address"
        },
        {
          "internalType": "bool",
          "name": "isStable",
          "type": "bool"
        }
      ],
      "name": "addToken",
      "outputs": [],
      "stateMutability": "nonpayable",
      "type": "function"
    },
    {
      "inputs": [
        {
          "internalType": "address",
          "name": "owner",
          "type": "address"
        },
        {
          "internalType": "address",
          "name": "spender",
          "type": "address"
        }
      ],
      "name": "allowance",
      "outputs": [
        {
          "internalType": "uint256",
          "name": "",
          "type": "uint256"
        }
      ],
      "stateMutability": "view",
      "type": "function"
    },
    {
      "inputs": [
        {
          "internalType": "address",
          "name": "spender",
          "type": "address"
        },
        {
          "internalType": "uint256",
          "name": "amount",
          "type": "uint256"
        }
      ],
      "name": "approve",
      "outputs": [
        {
          "internalType": "bool",
          "name": "",
          "type": "bool"
        }
      ],
      "stateMutability": "nonpayable",
      "type": "function"
    },
    {
      "inputs": [
        {
          "internalType": "address",
          "name": "account",
          "type": "address"
        }
      ],
      "name": "balanceOf",
      "outputs": [
        {
          "internalType": "uint256",
          "name": "",
          "type": "uint256"
        }
      ],
      "stateMutability": "view",
      "type": "function"
    },
    {
      "inputs": [
        {
          "internalType": "uint256[]",
          "name": "_allUnderlyingPrices",
          "type": "uint256[]"
        }
      ],
      "name": "calculateAllPoolPrices",
      "outputs": [
        {
          "internalType": "uint256[]",
          "name": "",
          "type": "uint256[]"
        }
      ],
      "stateMutability": "view",
      "type": "function"
    },
    {
      "inputs": [],
      "name": "decimals",
      "outputs": [
        {
          "internalType": "uint8",
          "name": "",
          "type": "uint8"
        }
      ],
      "stateMutability": "view",
      "type": "function"
    },
    {
      "inputs": [
        {
          "internalType": "address",
          "name": "spender",
          "type": "address"
        },
        {
          "internalType": "uint256",
          "name": "subtractedValue",
          "type": "uint256"
        }
      ],
      "name": "decreaseAllowance",
      "outputs": [
        {
          "internalType": "bool",
          "name": "",
          "type": "bool"
        }
      ],
      "stateMutability": "nonpayable",
      "type": "function"
    },
    {
      "inputs": [
        {
          "internalType": "uint256",
          "name": "errorCode",
          "type": "uint256"
        }
      ],
      "name": "errorCodeToString",
      "outputs": [
        {
          "internalType": "string",
          "name": "",
          "type": "string"
        }
      ],
      "stateMutability": "pure",
      "type": "function"
    },
    {
      "inputs": [],
      "name": "getAllTokenPrices",
      "outputs": [
        {
          "internalType": "uint256[]",
          "name": "",
          "type": "uint256[]"
        }
      ],
      "stateMutability": "view",
      "type": "function"
    },
    {
      "inputs": [],
      "name": "getReserveValues",
      "outputs": [
        {
          "internalType": "uint256",
          "name": "",
          "type": "uint256"
        },
        {
          "internalType": "address[]",
          "name": "",
          "type": "address[]"
        },
        {
          "internalType": "uint256[]",
          "name": "",
          "type": "uint256[]"
        }
      ],
      "stateMutability": "view",
      "type": "function"
    },
    {
      "inputs": [],
      "name": "getUnderlyingTokenAddresses",
      "outputs": [
        {
          "internalType": "address[]",
          "name": "",
          "type": "address[]"
        }
      ],
      "stateMutability": "view",
      "type": "function"
    },
    {
      "inputs": [],
      "name": "gyroPriceOracle",
      "outputs": [
        {
          "internalType": "contract GyroPriceOracle",
          "name": "",
          "type": "address"
        }
      ],
      "stateMutability": "view",
      "type": "function"
    },
    {
      "inputs": [],
      "name": "gyroRouter",
      "outputs": [
        {
          "internalType": "contract GyroRouter",
          "name": "",
          "type": "address"
        }
      ],
      "stateMutability": "view",
      "type": "function"
    },
    {
      "inputs": [
        {
          "internalType": "address",
          "name": "spender",
          "type": "address"
        },
        {
          "internalType": "uint256",
          "name": "addedValue",
          "type": "uint256"
        }
      ],
      "name": "increaseAllowance",
      "outputs": [
        {
          "internalType": "bool",
          "name": "",
          "type": "bool"
        }
      ],
      "stateMutability": "nonpayable",
      "type": "function"
    },
    {
      "inputs": [
        {
          "internalType": "uint256",
          "name": "_portfolioWeightEpsilon",
          "type": "uint256"
        },
        {
          "internalType": "address",
          "name": "_priceOracleAddress",
          "type": "address"
        },
        {
          "internalType": "address",
          "name": "_routerAddress",
          "type": "address"
        },
        {
          "internalType": "uint256",
          "name": "_memoryParam",
          "type": "uint256"
        }
      ],
      "name": "initialize",
      "outputs": [],
      "stateMutability": "nonpayable",
      "type": "function"
    },
    {
      "inputs": [],
      "name": "initializeOwner",
      "outputs": [],
      "stateMutability": "nonpayable",
      "type": "function"
    },
    {
      "inputs": [
        {
          "internalType": "address[]",
          "name": "_BPTokensIn",
          "type": "address[]"
        },
        {
          "internalType": "uint256[]",
          "name": "_amountsIn",
          "type": "uint256[]"
        },
        {
          "internalType": "uint256",
          "name": "_minGyroMinted",
          "type": "uint256"
        }
      ],
      "name": "mint",
      "outputs": [
        {
          "internalType": "uint256",
          "name": "amountToMint",
          "type": "uint256"
        }
      ],
      "stateMutability": "nonpayable",
      "type": "function"
    },
    {
      "inputs": [
        {
          "internalType": "address[]",
          "name": "_BPTokensIn",
          "type": "address[]"
        },
        {
          "internalType": "uint256[]",
          "name": "_amountsIn",
          "type": "uint256[]"
        },
        {
          "internalType": "uint256",
          "name": "_minGyroMinted",
          "type": "uint256"
        }
      ],
      "name": "mintChecksPass",
      "outputs": [
        {
          "internalType": "uint256",
          "name": "errorCode",
          "type": "uint256"
        },
        {
          "internalType": "uint256",
          "name": "estimatedMint",
          "type": "uint256"
        }
      ],
      "stateMutability": "view",
      "type": "function"
    },
    {
      "inputs": [
        {
          "internalType": "address[]",
          "name": "_BPTokensIn",
          "type": "address[]"
        },
        {
          "internalType": "uint256[]",
          "name": "_amountsIn",
          "type": "uint256[]"
        }
      ],
      "name": "mintTest",
      "outputs": [
        {
          "internalType": "uint256",
          "name": "",
          "type": "uint256"
        }
      ],
      "stateMutability": "nonpayable",
      "type": "function"
    },
    {
      "inputs": [],
      "name": "name",
      "outputs": [
        {
          "internalType": "string",
          "name": "",
          "type": "string"
        }
      ],
      "stateMutability": "view",
      "type": "function"
    },
    {
      "inputs": [],
      "name": "owner",
      "outputs": [
        {
          "internalType": "address",
          "name": "",
          "type": "address"
        }
      ],
      "stateMutability": "view",
      "type": "function"
    },
    {
      "inputs": [],
      "name": "poolAddresses",
      "outputs": [
        {
          "internalType": "address[]",
          "name": "",
          "type": "address[]"
        }
      ],
      "stateMutability": "view",
      "type": "function"
    },
    {
      "inputs": [
        {
          "internalType": "uint256",
          "name": "",
          "type": "uint256"
        }
      ],
      "name": "poolProperties",
      "outputs": [
        {
          "internalType": "address",
          "name": "poolAddress",
          "type": "address"
        },
        {
          "internalType": "uint256",
          "name": "initialPoolWeight",
          "type": "uint256"
        },
        {
          "internalType": "uint256",
          "name": "initialPoolPrice",
          "type": "uint256"
        }
      ],
      "stateMutability": "view",
      "type": "function"
    },
    {
      "inputs": [],
      "name": "portfolioWeightEpsilon",
      "outputs": [
        {
          "internalType": "uint256",
          "name": "",
          "type": "uint256"
        }
      ],
      "stateMutability": "view",
      "type": "function"
    },
    {
      "inputs": [],
      "name": "priceOracle",
      "outputs": [
        {
          "internalType": "contract PriceOracle",
          "name": "",
          "type": "address"
        }
      ],
      "stateMutability": "view",
      "type": "function"
    },
    {
      "inputs": [
        {
          "internalType": "address[]",
          "name": "_BPTokensOut",
          "type": "address[]"
        },
        {
          "internalType": "uint256[]",
          "name": "_amountsOut",
          "type": "uint256[]"
        },
        {
          "internalType": "uint256",
          "name": "_maxGyroRedeemed",
          "type": "uint256"
        }
      ],
      "name": "redeem",
      "outputs": [
        {
          "internalType": "uint256",
          "name": "_gyroRedeemed",
          "type": "uint256"
        }
      ],
      "stateMutability": "nonpayable",
      "type": "function"
    },
    {
      "inputs": [
        {
          "internalType": "address[]",
          "name": "_BPTokensOut",
          "type": "address[]"
        },
        {
          "internalType": "uint256[]",
          "name": "_amountsOut",
          "type": "uint256[]"
        },
        {
          "internalType": "uint256",
          "name": "_maxGyroRedeemed",
          "type": "uint256"
        }
      ],
      "name": "redeemChecksPass",
      "outputs": [
        {
          "internalType": "uint256",
          "name": "errorCode",
          "type": "uint256"
        },
        {
          "internalType": "uint256",
          "name": "estimatedAmount",
          "type": "uint256"
        }
      ],
      "stateMutability": "view",
      "type": "function"
    },
    {
      "inputs": [],
      "name": "renounceOwnership",
      "outputs": [],
      "stateMutability": "nonpayable",
      "type": "function"
    },
    {
      "inputs": [],
      "name": "symbol",
      "outputs": [
        {
          "internalType": "string",
          "name": "",
          "type": "string"
        }
      ],
      "stateMutability": "view",
      "type": "function"
    },
    {
      "inputs": [],
      "name": "totalSupply",
      "outputs": [
        {
          "internalType": "uint256",
          "name": "",
          "type": "uint256"
        }
      ],
      "stateMutability": "view",
      "type": "function"
    },
    {
      "inputs": [
        {
          "internalType": "address",
          "name": "recipient",
          "type": "address"
        },
        {
          "internalType": "uint256",
          "name": "amount",
          "type": "uint256"
        }
      ],
      "name": "transfer",
      "outputs": [
        {
          "internalType": "bool",
          "name": "",
          "type": "bool"
        }
      ],
      "stateMutability": "nonpayable",
      "type": "function"
    },
    {
      "inputs": [
        {
          "internalType": "address",
          "name": "sender",
          "type": "address"
        },
        {
          "internalType": "address",
          "name": "recipient",
          "type": "address"
        },
        {
          "internalType": "uint256",
          "name": "amount",
          "type": "uint256"
        }
      ],
      "name": "transferFrom",
      "outputs": [
        {
          "internalType": "bool",
          "name": "",
          "type": "bool"
        }
      ],
      "stateMutability": "nonpayable",
      "type": "function"
    },
    {
      "inputs": [
        {
          "internalType": "address",
          "name": "newOwner",
          "type": "address"
        }
      ],
      "name": "transferOwnership",
      "outputs": [],
      "stateMutability": "nonpayable",
      "type": "function"
    }
  ],
  "transactionHash": "0x21bf1b81bbfdd9641af4532c8eb969d9babe370849c1dfd73f05cf8514442fa3",
  "args": [],
  "solcInputHash": "b29d5fca00c3a941b0c6bd4437a52e25",
  "bytecode": "0x608060405234801561001057600080fd5b506150ad806100206000396000f3fe608060405234801561001057600080fd5b50600436106102065760003560e01c8063715018a61161011a578063a9059cbb116100ad578063e37259e91161007c578063e37259e914610bbd578063e858a4d414610bf9578063ec6756dc14610c9a578063ef1c69a214610cb7578063f2fde38b14610cef57610206565b8063a9059cbb14610a36578063af1a153114610a62578063be48b5e414610b87578063dd62ed3e14610b8f57610206565b806395d89b41116100e957806395d89b4114610898578063a3767d0f146108a0578063a457c2d7146109c5578063a652db1f146109f157610206565b8063715018a61461075d5780637a61edf4146107655780638da5cb5b146108885780638f7873ed1461089057610206565b8063395093511161019d5780635e2a00231161016c5780635e2a0023146104245780635f53837f14610549578063639431e81461055157806367691bf3146105f957806370a082311461073757610206565b806339509351146103e05780633c1cd0da1461040c5780634f5548bb1461041457806355af8e181461041c57610206565b806323b872dd116101d957806323b872dd1461033a5780632630c12f14610370578063313ce5671461039457806332a9caba146103b257610206565b806306fdde031461020b578063095ea7b31461028857806318160ddd146102c85780631b23fcb0146102e2575b600080fd5b610213610d15565b6040805160208082528351818301528351919283929083019185019080838360005b8381101561024d578181015183820152602001610235565b50505050905090810190601f16801561027a5780820380516001836020036101000a031916815260200191505b509250505060405180910390f35b6102b46004803603604081101561029e57600080fd5b506001600160a01b038135169060200135610dab565b604080519115158252519081900360200190f35b6102d0610dc9565b60408051918252519081900360200190f35b6102ea610dcf565b60408051602080825283518183015283519192839290830191858101910280838360005b8381101561032657818101518382015260200161030e565b505050509050019250505060405180910390f35b6102b46004803603606081101561035057600080fd5b506001600160a01b03813581169160208101359091169060400135610f52565b610378610fd9565b604080516001600160a01b039092168252519081900360200190f35b61039c610fe8565b6040805160ff9092168252519081900360200190f35b6103de600480360360408110156103c857600080fd5b506001600160a01b038135169060200135610ff1565b005b6102b4600480360360408110156103f657600080fd5b506001600160a01b038135169060200135611540565b6102d061158e565b6102ea611594565b610378611643565b6102d06004803603606081101561043a57600080fd5b810190602081018135600160201b81111561045457600080fd5b82018360208201111561046657600080fd5b803590602001918460208302840111600160201b8311171561048757600080fd5b9190808060200260200160405190810160405280939291908181526020018383602002808284376000920191909152509295949360208101935035915050600160201b8111156104d657600080fd5b8201836020820111156104e857600080fd5b803590602001918460208302840111600160201b8311171561050957600080fd5b9190808060200260200160405190810160405280939291908181526020018383602002808284376000920191909152509295505091359250611652915050565b6103de61187b565b6105596118ed565b604051808481526020018060200180602001838103835285818151815260200191508051906020019060200280838360005b838110156105a357818101518382015260200161058b565b50505050905001838103825284818151815260200191508051906020019060200280838360005b838110156105e25781810151838201526020016105ca565b505050509050019550505050505060405180910390f35b61071e6004803603606081101561060f57600080fd5b810190602081018135600160201b81111561062957600080fd5b82018360208201111561063b57600080fd5b803590602001918460208302840111600160201b8311171561065c57600080fd5b9190808060200260200160405190810160405280939291908181526020018383602002808284376000920191909152509295949360208101935035915050600160201b8111156106ab57600080fd5b8201836020820111156106bd57600080fd5b803590602001918460208302840111600160201b831117156106de57600080fd5b9190808060200260200160405190810160405280939291908181526020018383602002808284376000920191909152509295505091359250611aae915050565b6040805192835260208301919091528051918290030190f35b6102d06004803603602081101561074d57600080fd5b50356001600160a01b0316611ad2565b6103de611af1565b6102d06004803603604081101561077b57600080fd5b810190602081018135600160201b81111561079557600080fd5b8201836020820111156107a757600080fd5b803590602001918460208302840111600160201b831117156107c857600080fd5b9190808060200260200160405190810160405280939291908181526020018383602002808284376000920191909152509295949360208101935035915050600160201b81111561081757600080fd5b82018360208201111561082957600080fd5b803590602001918460208302840111600160201b8311171561084a57600080fd5b919080806020026020016040519081016040528093929190818152602001838360200280828437600092019190915250929550611b88945050505050565b610378611deb565b6102ea611dfa565b610213611eaa565b61071e600480360360608110156108b657600080fd5b810190602081018135600160201b8111156108d057600080fd5b8201836020820111156108e257600080fd5b803590602001918460208302840111600160201b8311171561090357600080fd5b9190808060200260200160405190810160405280939291908181526020018383602002808284376000920191909152509295949360208101935035915050600160201b81111561095257600080fd5b82018360208201111561096457600080fd5b803590602001918460208302840111600160201b8311171561098557600080fd5b9190808060200260200160405190810160405280939291908181526020018383602002808284376000920191909152509295505091359250611f0b915050565b6102b4600480360360408110156109db57600080fd5b506001600160a01b038135169060200135611f1c565b610a0e60048036036020811015610a0757600080fd5b5035611f84565b604080516001600160a01b039094168452602084019290925282820152519081900360600190f35b6102b460048036036040811015610a4c57600080fd5b506001600160a01b038135169060200135611fc1565b6102d060048036036060811015610a7857600080fd5b810190602081018135600160201b811115610a9257600080fd5b820183602082011115610aa457600080fd5b803590602001918460208302840111600160201b83111715610ac557600080fd5b9190808060200260200160405190810160405280939291908181526020018383602002808284376000920191909152509295949360208101935035915050600160201b811115610b1457600080fd5b820183602082011115610b2657600080fd5b803590602001918460208302840111600160201b83111715610b4757600080fd5b9190808060200260200160405190810160405280939291908181526020018383602002808284376000920191909152509295505091359250611fd5915050565b6103786123f1565b6102d060048036036040811015610ba557600080fd5b506001600160a01b0381358116916020013516612400565b6103de60048036036080811015610bd357600080fd5b508035906001600160a01b0360208201358116916040810135909116906060013561242b565b6102ea60048036036020811015610c0f57600080fd5b810190602081018135600160201b811115610c2957600080fd5b820183602082011115610c3b57600080fd5b803590602001918460208302840111600160201b83111715610c5c57600080fd5b919080806020026020016040519081016040528093929190818152602001838360200280828437600092019190915250929550612557945050505050565b61021360048036036020811015610cb057600080fd5b50356128c5565b6103de60048036036060811015610ccd57600080fd5b506001600160a01b03813581169160208101359091169060400135151561296d565b6103de60048036036020811015610d0557600080fd5b50356001600160a01b0316612c73565b60378054604080516020601f6002600019610100600188161502019095169490940493840181900481028201810190925282815260609390929091830182828015610da15780601f10610d7657610100808354040283529160200191610da1565b820191906000526020600020905b815481529060010190602001808311610d8457829003601f168201915b5050505050905090565b6000610dbf610db8612d61565b8484612d65565b5060015b92915050565b60365490565b606d546060906000906001600160401b0381118015610ded57600080fd5b50604051908082528060200260200182016040528015610e17578160200160208202803683370190505b50905060005b606d54811015610f4c576000606d8281548110610e3657fe5b6000918252602082200154606d80546001600160a01b039092169350606a9183919086908110610e6257fe5b60009182526020808320909101546001600160a01b031683528281019390935260409182019020600190810180548351601f6002600019958416156101000295909501909216939093049081018590048502830185019093528282529092909190830182828015610f145780601f10610ee957610100808354040283529160200191610f14565b820191906000526020600020905b815481529060010190602001808311610ef757829003601f168201915b505050505090506000610f278383612e51565b905080858581518110610f3657fe5b6020908102919091010152505050600101610e1d565b50905090565b6000610f5f848484612f3f565b610fcf84610f6b612d61565b610fca85604051806060016040528060288152602001614f38602891396001600160a01b038a16600090815260356020526040812090610fa9612d61565b6001600160a01b03168152602081019190915260400160002054919061309c565b612d65565b5060019392505050565b6068546001600160a01b031681565b60395460ff1690565b6033546001600160a01b0316331461103e576040805162461bcd60e51b81526020600482018190526024820152600080516020614f60833981519152604482015290519081900360640190fd5b60005b6069548110156110d757826001600160a01b03166069828154811061106257fe5b60009182526020909120600390910201546001600160a01b031614156110cf576040805162461bcd60e51b815260206004820152601860248201527f7468697320706f6f6c20616c7265616479206578697374730000000000000000604482015290519081900360640190fd5b600101611041565b506001600160a01b0382166000818152606b6020526040808220805460ff191660011790558051635f1dde9760e11b8152905185939163be3bbd2e9160048083019286929190829003018186803b15801561113157600080fd5b505afa158015611145573d6000803e3d6000fd5b505050506040513d6000823e601f3d908101601f19168201604052602081101561116e57600080fd5b8101908080516040519392919084600160201b82111561118d57600080fd5b9083019060208201858111156111a257600080fd5b82518660208202830111600160201b821117156111be57600080fd5b82525081516020918201928201910280838360005b838110156111eb5781810151838201526020016111d3565b505050509050016040525050509050600081516001600160401b038111801561121357600080fd5b5060405190808252806020026020018201604052801561123d578160200160208202803683370190505b50905060005b82518110156113b757600083828151811061125a57fe5b602002602001015190506000816001600160a01b03166395d89b416040518163ffffffff1660e01b815260040160006040518083038186803b15801561129f57600080fd5b505afa1580156112b3573d6000803e3d6000fd5b505050506040513d6000823e601f3d908101601f1916820160405260208110156112dc57600080fd5b8101908080516040519392919084600160201b8211156112fb57600080fd5b90830190602082018581111561131057600080fd5b8251600160201b81118282018810171561132957600080fd5b82525081516020918201929091019080838360005b8381101561135657818101518382015260200161133e565b50505050905090810190601f1680156113835780820380516001836020036101000a031916815260200191505b5060405250505090506113968282612e51565b8484815181106113a257fe5b60209081029190910101525050600101611243565b506066546040805163305cbde760e01b81526001600160a01b038881166004830190815260248301938452855160448401528551600095929092169363305cbde7938b938893929160640190602080860191028083838c5b8381101561142757818101518382015260200161140f565b50505050905001935050505060206040518083038186803b15801561144b57600080fd5b505afa15801561145f573d6000803e3d6000fd5b505050506040513d602081101561147557600080fd5b5051604080516060810182526001600160a01b039889168152602081019788529081019182526069805460018101825560009190915290517f7fb4302e8e91f9110a6554c2c0a24601252c2a42c2220ca988efcfe399914308600390920291820180546001600160a01b031916919099161790975594517f7fb4302e8e91f9110a6554c2c0a24601252c2a42c2220ca988efcfe399914309870155505091517f7fb4302e8e91f9110a6554c2c0a24601252c2a42c2220ca988efcfe39991430a909301929092555050565b6000610dbf61154d612d61565b84610fca856035600061155e612d61565b6001600160a01b03908116825260208083019390935260409182016000908120918c1681529252902054906130f6565b606e5481565b606d546060906000906001600160401b03811180156115b257600080fd5b506040519080825280602002602001820160405280156115dc578160200160208202803683370190505b50905060005b606d54811015610f4c57606d81815481106115f957fe5b9060005260206000200160009054906101000a90046001600160a01b031682828151811061162357fe5b6001600160a01b03909216602092830291909101909101526001016115e2565b6066546001600160a01b031681565b600080600080611663878787613157565b92509250925082600014611676846128c5565b906116ff5760405162461bcd60e51b81526004018080602001828103825283818151815260200191508051906020019080838360005b838110156116c45781810151838201526020016116ac565b50505050905090810190601f1680156116f15780820380516001836020036101000a031916815260200191505b509250505060405180910390fd5b5060005b875181101561180f57600088828151811061171a57fe5b60200260200101516001600160a01b03166323b872dd33308b868151811061173e57fe5b60200260200101516040518463ffffffff1660e01b815260040180846001600160a01b03168152602001836001600160a01b031681526020018281526020019350505050602060405180830381600087803b15801561179c57600080fd5b505af11580156117b0573d6000803e3d6000fd5b505050506040513d60208110156117c657600080fd5b50519050806118065760405162461bcd60e51b815260040180806020018281038252602a815260200180614e14602a913960400191505060405180910390fd5b50600101611703565b508160e00151935061182133856133e3565b611844816000015182602001518460e001516000856040015186606001516134d5565b604051849033907f0f6798a560793a54c3bcfe86a93cde1e73087d944c0ea20544137d412139688590600090a35050509392505050565b6033546001600160a01b0316156118d9576040805162461bcd60e51b815260206004820152601960248201527f6f776e657220616c726561647920696e697469616c697a656400000000000000604482015290519081900360640190fd5b603380546001600160a01b03191633179055565b600060608060006069805490506001600160401b038111801561190f57600080fd5b50604051908082528060200260200182016040528015611939578160200160208202803683370190505b506069549091506000906001600160401b038111801561195857600080fd5b50604051908082528060200260200182016040528015611982578160200160208202803683370190505b50905060005b6069548110156119ea576069818154811061199f57fe5b600091825260209091206003909102015483516001600160a01b03909116908490839081106119ca57fe5b6001600160a01b0390921660209283029190910190910152600101611988565b506000806119fa84846000613157565b5091509150600084516001600160401b0381118015611a1857600080fd5b50604051908082528060200260200182016040528015611a42578160200160208202803683370190505b50905060005b8551811015611a9e57611a7f8360a0015184602001518381518110611a6957fe5b602002602001015161351390919063ffffffff16565b828281518110611a8b57fe5b6020908102919091010152600101611a48565b5091965092945092505050909192565b600080600080611abf878787613521565b5060e00151909890975095505050505050565b6001600160a01b0381166000908152603460205260409020545b919050565b6033546001600160a01b03163314611b3e576040805162461bcd60e51b81526020600482018190526024820152600080516020614f60833981519152604482015290519081900360640190fd5b6033546040516000916001600160a01b0316907f8be0079c531659141344cd1fd0a4f28419497f9722a3daafe3b4186f6b6457e0908390a3603380546001600160a01b0319169055565b6033546000906001600160a01b03163314611bd8576040805162461bcd60e51b81526020600482018190526024820152600080516020614f60833981519152604482015290519081900360640190fd5b60005b8351811015611ce7576000848281518110611bf257fe5b60200260200101516001600160a01b03166323b872dd3330878681518110611c1657fe5b60200260200101516040518463ffffffff1660e01b815260040180846001600160a01b03168152602001836001600160a01b031681526020018281526020019350505050602060405180830381600087803b158015611c7457600080fd5b505af1158015611c88573d6000803e3d6000fd5b505050506040513d6020811015611c9e57600080fd5b5051905080611cde5760405162461bcd60e51b815260040180806020018281038252602a815260200180614e14602a913960400191505060405180910390fd5b50600101611bdb565b506000611cf2610dcf565b90506000611cff82612557565b90506000805b8651811015611d4557611d3b611d34848381518110611d2057fe5b6020026020010151888481518110611a6957fe5b83906130f6565b9150600101611d05565b5060665460408051634999a2ef60e01b815260048101849052600060248201819052670de0b6b3a76400006044830152915191926001600160a01b031691634999a2ef91606480820192602092909190829003018186803b158015611da957600080fd5b505afa158015611dbd573d6000803e3d6000fd5b505050506040513d6020811015611dd357600080fd5b50519050611de133826133e3565b9695505050505050565b6033546001600160a01b031690565b6069546060906000906001600160401b0381118015611e1857600080fd5b50604051908082528060200260200182016040528015611e42578160200160208202803683370190505b50905060005b606954811015610f4c5760698181548110611e5f57fe5b600091825260209091206003909102015482516001600160a01b0390911690839083908110611e8a57fe5b6001600160a01b0390921660209283029190910190910152600101611e48565b60388054604080516020601f6002600019610100600188161502019095169490940493840181900481028201810190925282815260609390929091830182828015610da15780601f10610d7657610100808354040283529160200191610da1565b600080600080611abf878787613157565b6000610dbf611f29612d61565b84610fca856040518060600160405280602581526020016150536025913960356000611f53612d61565b6001600160a01b03908116825260208083019390935260409182016000908120918d1681529252902054919061309c565b60698181548110611f9457600080fd5b60009182526020909120600390910201805460018201546002909201546001600160a01b03909116925083565b6000610dbf611fce612d61565b8484612f3f565b600080600080611fe6878787613521565b92509250925082600014611ff9846128c5565b906120455760405162461bcd60e51b81526020600482018181528351602484015283519092839260449091019190850190808383600083156116c45781810151838201526020016116ac565b508160e00151935061205733856137a2565b60675460408051636f36b6cb60e11b8152600481019182528951604482015289516001600160a01b039093169263de6d6d96928b928b92829160248101916064909101906020808801910280838360005b838110156120c05781810151838201526020016120a8565b50505050905001838103825284818151815260200191508051906020019060200280838360005b838110156120ff5781810151838201526020016120e7565b50505050905001945050505050600060405180830381600087803b15801561212657600080fd5b505af115801561213a573d6000803e3d6000fd5b505050506040513d6000823e601f3d908101601f19168201604090815281101561216357600080fd5b8101908080516040519392919084600160201b82111561218257600080fd5b90830190602082018581111561219757600080fd5b82518660208202830111600160201b821117156121b357600080fd5b82525081516020918201928201910280838360005b838110156121e05781810151838201526020016121c8565b5050505090500160405260200180516040519392919084600160201b82111561220857600080fd5b90830190602082018581111561221d57600080fd5b82518660208202830111600160201b8211171561223957600080fd5b82525081516020918201928201910280838360005b8381101561226657818101518382015260200161224e565b50505050905001604052505050505060005b865181101561239a57600088828151811061228f57fe5b60200260200101516001600160a01b03166323b872dd30338b86815181106122b357fe5b60200260200101516040518463ffffffff1660e01b815260040180846001600160a01b03168152602001836001600160a01b031681526020018281526020019350505050602060405180830381600087803b15801561231157600080fd5b505af1158015612325573d6000803e3d6000fd5b505050506040513d602081101561233b57600080fd5b5051905080612391576040805162461bcd60e51b815260206004820152601960248201527f6661696c656420746f207472616e7366657220746f6b656e7300000000000000604482015290519081900360640190fd5b50600101612278565b50604051849033907f222838db2794d11532d940e8dec38ae307ed0b63cd97c233322e221f998767a690600090a36123e781600001518260200151600087856040015186606001516134d5565b5050509392505050565b6067546001600160a01b031681565b6001600160a01b03918216600090815260356020908152604080832093909416825291909152205490565b600054610100900460ff1680612444575061244461389e565b80612452575060005460ff16155b61248d5760405162461bcd60e51b815260040180806020018281038252602e815260200180614ee9602e913960400191505060405180910390fd5b600054610100900460ff161580156124b8576000805460ff1961ff0019909116610100171660011790555b6125006040518060400160405280600b81526020016a23bcb937902237b63630b960a91b8152506040518060400160405280600381526020016211d65160ea1b8152506138af565b606680546001600160a01b038087166001600160a01b031992831617909255606780549286169290911691909117905543606f556072829055606e8590558015612550576000805461ff00191690555b5050505050565b6069546060906000906001600160401b038111801561257557600080fd5b5060405190808252806020026020018201604052801561259f578160200160208202803683370190505b50905060005b6069548110156128be576000606982815481106125be57fe5b6000918252602082206003909102015460408051635f1dde9760e11b815290516001600160a01b039092169350839163be3bbd2e916004808201928692909190829003018186803b15801561261257600080fd5b505afa158015612626573d6000803e3d6000fd5b505050506040513d6000823e601f3d908101601f19168201604052602081101561264f57600080fd5b8101908080516040519392919084600160201b82111561266e57600080fd5b90830190602082018581111561268357600080fd5b82518660208202830111600160201b8211171561269f57600080fd5b82525081516020918201928201910280838360005b838110156126cc5781810151838201526020016126b4565b5050505090500160405250505090506000606d805490506001600160401b03811180156126f857600080fd5b50604051908082528060200260200182016040528015612722578160200160208202803683370190505b50905060005b82518110156127a15787606a600085848151811061274257fe5b6020908102919091018101516001600160a01b0316825281019190915260400160002060020154815161ffff90911690811061277a57fe5b602002602001015182828151811061278e57fe5b6020908102919091010152600101612728565b50606654606980546001600160a01b039092169163305cbde79190879081106127c657fe5b906000526020600020906003020160000160009054906101000a90046001600160a01b0316836040518363ffffffff1660e01b815260040180836001600160a01b0316815260200180602001828103825283818151815260200191508051906020019060200280838360005b8381101561284a578181015183820152602001612832565b50505050905001935050505060206040518083038186803b15801561286e57600080fd5b505afa158015612882573d6000803e3d6000fd5b505050506040513d602081101561289857600080fd5b505185518690869081106128a857fe5b60209081029190910101525050506001016125a5565b5092915050565b6060600182161561290a575060408051808201909152601d81527f4552525f574f554c445f554e42414c414e43455f4759524f53434f50450000006020820152611aec565b600282161561294557506040805180820190915260158152744552525f544f4f5f4d5543485f534c49505041474560581b6020820152611aec565b5060408051808201909152600b81526a22a9292faaa725a727aba760a91b6020820152611aec565b6033546001600160a01b031633146129ba576040805162461bcd60e51b81526020600482018190526024820152600080516020614f60833981519152604482015290519081900360640190fd5b60005b606d54811015612a4e57836001600160a01b0316606d82815481106129de57fe5b6000918252602090912001546001600160a01b03161415612a46576040805162461bcd60e51b815260206004820152601960248201527f7468697320746f6b656e20616c72656164792065786973747300000000000000604482015290519081900360640190fd5b6001016129bd565b506001600160a01b0383166000818152606c6020526040808220805460ff191685151517905580516395d89b4160e01b815290519192916395d89b41916004808201928692909190829003018186803b158015612aaa57600080fd5b505afa158015612abe573d6000803e3d6000fd5b505050506040513d6000823e601f3d908101601f191682016040526020811015612ae757600080fd5b8101908080516040519392919084600160201b821115612b0657600080fd5b908301906020820185811115612b1b57600080fd5b8251600160201b811182820188101715612b3457600080fd5b82525081516020918201929091019080838360005b83811015612b61578181015183820152602001612b49565b50505050905090810190601f168015612b8e5780820380516001836020036101000a031916815260200191505b506060810160409081526001600160a01b0389811683526020808401888152606d5461ffff16848601528c83166000908152606a835293909320845181546001600160a01b0319169316929092178255915180519798509296909550612bfd9450600186019350910190614c9e565b50604091909101516002909101805461ffff191661ffff9092169190911790555050606d80546001810182556000919091527f5006b838207c6a9ae9b84d68f467dd4bb5c305fbfb6b04eab8faaabeec1e18d80180546001600160a01b0319166001600160a01b03939093169290921790915550565b6033546001600160a01b03163314612cc0576040805162461bcd60e51b81526020600482018190526024820152600080516020614f60833981519152604482015290519081900360640190fd5b6001600160a01b038116612d055760405162461bcd60e51b8152600401808060200182810382526026815260200180614e3e6026913960400191505060405180910390fd5b6033546040516001600160a01b038084169216907f8be0079c531659141344cd1fd0a4f28419497f9722a3daafe3b4186f6b6457e090600090a3603380546001600160a01b0319166001600160a01b0392909216919091179055565b3390565b6001600160a01b038316612daa5760405162461bcd60e51b8152600401808060200182810382526024815260200180614fc66024913960400191505060405180910390fd5b6001600160a01b038216612def5760405162461bcd60e51b8152600401808060200182810382526022815260200180614e646022913960400191505060405180910390fd5b6001600160a01b03808416600081815260356020908152604080832094871680845294825291829020859055815185815291517f8c5be1e5ebec7d5bd14f71427d1e84f3dd0314c0f7b2291e5b200ac8c7c3b9259281900390910190a3505050565b6001600160a01b038083166000908152606a6020908152604080832054905163524f388960e01b8152600481018381528651602483015286519495929092169363524f38899387939283926044909101918501908083838b5b83811015612ec2578181015183820152602001612eaa565b50505050905090810190601f168015612eef5780820380516001836020036101000a031916815260200191505b509250505060206040518083038186803b158015612f0c57600080fd5b505afa158015612f20573d6000803e3d6000fd5b505050506040513d6020811015612f3657600080fd5b50519392505050565b6001600160a01b038316612f845760405162461bcd60e51b8152600401808060200182810382526025815260200180614fa16025913960400191505060405180910390fd5b6001600160a01b038216612fc95760405162461bcd60e51b8152600401808060200182810382526023815260200180614dcf6023913960400191505060405180910390fd5b612fd4838383613960565b61301181604051806060016040528060268152602001614e86602691396001600160a01b038616600090815260346020526040902054919061309c565b6001600160a01b03808516600090815260346020526040808220939093559084168152205461304090826130f6565b6001600160a01b0380841660008181526034602090815260409182902094909455805185815290519193928716927fddf252ad1be2c89b69c2b068fc378daa952ba7f163c4a11628f55a4df523b3ef92918290030190a3505050565b600081848411156130ee5760405162461bcd60e51b81526020600482018181528351602484015283519092839260449091019190850190808383600083156116c45781810151838201526020016116ac565b505050900390565b600082820183811015613150576040805162461bcd60e51b815260206004820152601b60248201527f536166654d6174683a206164646974696f6e206f766572666c6f770000000000604482015290519081900360640190fd5b9392505050565b6000613161614d26565b613169614d6b565b84518651146131a95760405162461bcd60e51b815260040180806020018281038252603d815260200180614eac603d913960400191505060405180910390fd5b60006131b487613965565b9050806131f25760405162461bcd60e51b8152600401808060200182810382526036815260200180614fea6036913960400191505060405180910390fd5b60006131fc610dcf565b9050600061320982612557565b905088516001600160401b038111801561322257600080fd5b5060405190808252806020026020018201604052801561324c578160200160208202803683370190505b5060c086015260005b89518110156132835760008660c00151828151811061327057fe5b6020908102919091010152600101613255565b50613294818a8a8860c00151613a19565b60a08a0152606089015260408801819052602088018290528288526000926132c5928d92919087908e908890613c23565b9050806132d3576001871796505b6000608087018190525b8a518110156133245761331761330c8483815181106132f857fe5b60200260200101518c8481518110611a6957fe5b6080890151906130f6565b60808801526001016132dd565b5061332d613cd0565b6066546080880151825160608a015160408051634999a2ef60e01b8152600481019490945260248401929092526044830152519297506001600160a01b0390911691634999a2ef91606480820192602092909190829003018186803b15801561339557600080fd5b505afa1580156133a9573d6000803e3d6000fd5b505050506040513d60208110156133bf57600080fd5b505160e087018190528811156133d6576002871796505b5050505093509350939050565b6001600160a01b03821661343e576040805162461bcd60e51b815260206004820152601f60248201527f45524332303a206d696e7420746f20746865207a65726f206164647265737300604482015290519081900360640190fd5b61344a60008383613960565b60365461345790826130f6565b6036556001600160a01b03821660009081526034602052604090205461347d90826130f6565b6001600160a01b03831660008181526034602090815260408083209490945583518581529351929391927fddf252ad1be2c89b69c2b068fc378daa952ba7f163c4a11628f55a4df523b3ef9281900390910190a35050565b83156134e9576134e586856130f6565b6070555b82156134fd576134f985846130f6565b6071555b8181101561350b57606f8290555b505050505050565b600061315083836012613d63565b600061352b614d26565b613533614d6b565b84518651146135735760405162461bcd60e51b815260040180806020018281038252603d815260200180614eac603d913960400191505060405180910390fd5b61357c86613965565b6135b75760405162461bcd60e51b8152600401808060200182810382526036815260200180614fea6036913960400191505060405180910390fd5b85516001600160401b03811180156135ce57600080fd5b506040519080825280602002602001820160405280156135f8578160200160208202803683370190505b5060c083015260005b865181101561362f5760008360c00151828151811061361c57fe5b6020908102919091010152600101613601565b50600061363a610dcf565b9050600061364782612557565b905061365981898660c001518a613a19565b60a089015260608801526040870181905260208701829052828752600092613684928c929190613d85565b905080613692576001861795505b6000608086018190525b89518110156136e3576136d66136cb8483815181106136b757fe5b60200260200101518b8481518110611a6957fe5b6080880151906130f6565b608087015260010161369c565b506136ec613cd0565b606654608087015160208084015160608a015160408051630220ab7760e21b8152600481019590955260248501929092526044840152519397506001600160a01b0390921692630882addc92606480840193919291829003018186803b15801561375557600080fd5b505afa158015613769573d6000803e3d6000fd5b505050506040513d602081101561377f57600080fd5b505160e08601819052871015613796576002861795505b50505093509350939050565b6001600160a01b0382166137e75760405162461bcd60e51b8152600401808060200182810382526021815260200180614f806021913960400191505060405180910390fd5b6137f382600083613960565b61383081604051806060016040528060228152602001614df2602291396001600160a01b038516600090815260346020526040902054919061309c565b6001600160a01b0383166000908152603460205260409020556036546138569082613eab565b6036556040805182815290516000916001600160a01b038516917fddf252ad1be2c89b69c2b068fc378daa952ba7f163c4a11628f55a4df523b3ef9181900360200190a35050565b60006138a930613f08565b15905090565b600054610100900460ff16806138c857506138c861389e565b806138d6575060005460ff16155b6139115760405162461bcd60e51b815260040180806020018281038252602e815260200180614ee9602e913960400191505060405180910390fd5b600054610100900460ff1615801561393c576000805460ff1961ff0019909116610100171660011790555b613944613f0e565b61394e8383613fb0565b8015613960576000805461ff00191690555b505050565b6069548151600091146139a95760405162461bcd60e51b81526004018080602001828103825260338152602001806150206033913960400191505060405180910390fd5b50600160005b606954811015613a13578281815181106139c557fe5b60200260200101516001600160a01b0316606982815481106139e357fe5b60009182526020909120600390910201546001600160a01b031614613a0b5760009150613a13565b6001016139af565b50919050565b6060806060600080613a2a89614088565b9450600088516001600160401b0381118015613a4557600080fd5b50604051908082528060200260200182016040528015613a6f578160200160208202803683370190505b509050600089516001600160401b0381118015613a8b57600080fd5b50604051908082528060200260200182016040528015613ab5578160200160208202803683370190505b50905060005b8a51811015613be55760008b8281518110613ad257fe5b60200260200101519050806001600160a01b03166370a08231306040518263ffffffff1660e01b815260040180826001600160a01b0316815260200191505060206040518083038186803b158015613b2957600080fd5b505afa158015613b3d573d6000803e3d6000fd5b505050506040513d6020811015613b5357600080fd5b50518351849084908110613b6357fe5b602002602001018181525050613bc58a8381518110613b7e57fe5b6020026020010151613bbf8d8581518110613b9557fe5b6020026020010151868681518110613ba957fe5b60200260200101516130f690919063ffffffff16565b9061432c565b848381518110613bd157fe5b602090810291909101015250600101613abb565b50613bf0818c61436e565b909650925082613bfe578695505b613c078361446a565b9350613c13828c61436e565b5094505050945094509450945094565b6000613c2d614d93565b613c39898989896144a6565b60608501526040840152151560208301521580158252613c6757806020015115613c6257600191505b613cc3565b600080613c74878761436e565b915091508060001415613c85578891505b826020015115613ca657613c9f8b8460400151848c6145b5565b9350613cc0565b613cbd8b8460400151848c8e8a8960600151614630565b93505b50505b505b979650505050505050565b613cd8614d6b565b606f5460608201819052436040830181905260705483526071546020840152607254911015613d5f57613d31613d29613d228460600151856040015161432c90919063ffffffff16565b839061471d565b835190613513565b825260608201516040830151613d5991613d4e91613d229161432c565b602084015190613513565b60208301525b5090565b6000613d7d600a83900a613d77868661472b565b90614784565b949350505050565b6000806000905060008087516001600160401b0381118015613da657600080fd5b50604051908082528060200260200182016040528015613dd0578160200160208202803683370190505b509050613dde8888886147c6565b90925090508115613df6575060019250613d7d915050565b6000805b8951811015613e9357828181518110613e0f57fe5b6020026020010151613e8b576000613e4d8a8381518110613e2c57fe5b60200260200101518a8481518110613e4057fe5b60200260200101516148f7565b90506000613e74898481518110613e6057fe5b60200260200101518b8581518110613e4057fe5b9050808210613e8857600193505050613e93565b50505b600101613dfa565b5080613e9e57600193505b5091979650505050505050565b600082821115613f02576040805162461bcd60e51b815260206004820152601e60248201527f536166654d6174683a207375627472616374696f6e206f766572666c6f770000604482015290519081900360640190fd5b50900390565b3b151590565b600054610100900460ff1680613f275750613f2761389e565b80613f35575060005460ff16155b613f705760405162461bcd60e51b815260040180806020018281038252602e815260200180614ee9602e913960400191505060405180910390fd5b600054610100900460ff16158015613f9b576000805460ff1961ff0019909116610100171660011790555b8015613fad576000805461ff00191690555b50565b600054610100900460ff1680613fc95750613fc961389e565b80613fd7575060005460ff16155b6140125760405162461bcd60e51b815260040180806020018281038252602e815260200180614ee9602e913960400191505060405180910390fd5b600054610100900460ff1615801561403d576000805460ff1961ff0019909116610100171660011790555b8251614050906037906020860190614c9e565b508151614064906038906020850190614c9e565b506039805460ff191660121790558015613960576000805461ff0019169055505050565b6060600082516001600160401b03811180156140a357600080fd5b506040519080825280602002602001820160405280156140cd578160200160208202803683370190505b509050600083516001600160401b03811180156140e957600080fd5b50604051908082528060200260200182016040528015614113578160200160208202803683370190505b509050600084516001600160401b038111801561412f57600080fd5b50604051908082528060200260200182016040528015614159578160200160208202803683370190505b509050600085516001600160401b038111801561417557600080fd5b5060405190808252806020026020018201604052801561419f578160200160208202803683370190505b50905060005b60695481101561422457606981815481106141bc57fe5b9060005260206000209060030201600201548382815181106141da57fe5b602002602001018181525050606981815481106141f357fe5b90600052602060002090600302016001015482828151811061421157fe5b60209081029190910101526001016141a5565b5060005b86518110156142a65761428782828151811061424057fe5b602002602001015161428185848151811061425757fe5b60200260200101518a858151811061426b57fe5b602002602001015161491b90919063ffffffff16565b90613513565b84828151811061429357fe5b6020908102919091010152600101614228565b506000805b87518110156142e4576142da8582815181106142c357fe5b6020026020010151836130f690919063ffffffff16565b91506001016142ab565b5060005b8751811015614320576143018286838151811061426b57fe5b86828151811061430d57fe5b60209081029190910101526001016142e8565b50939695505050505050565b600061315083836040518060400160405280601e81526020017f536166654d6174683a207375627472616374696f6e206f766572666c6f77000081525061309c565b606060008083516001600160401b038111801561438a57600080fd5b506040519080825280602002602001820160405280156143b4578160200160208202803683370190505b5090506000805b86518110156143f4576143ea611d348783815181106143d657fe5b6020026020010151898481518110611a6957fe5b91506001016143bb565b5080614404579092509050614463565b60005b865181101561445c5761443d8261443788848151811061442357fe5b60200260200101518a8581518110611a6957fe5b9061491b565b83828151811061444957fe5b6020908102919091010152600101614407565b5090925090505b9250929050565b600080614475610dc9565b905080156144965761448f614488610dc9565b849061491b565b9150613a13565b50670de0b6b3a764000092915050565b60008060608060008089516001600160401b03811180156144c657600080fd5b506040519080825280602002602001820160405280156144f0578160200160208202803683370190505b50905060008a516001600160401b038111801561450c57600080fd5b50604051908082528060200260200182016040528015614536578160200160208202803683370190505b50905060016145468c8c8c6147c6565b909450925060005b8c518110156145a4576145618a82614929565b83828151811061456d57fe5b9115156020928302919091019091015281801561459a575082818151811061459157fe5b60200260200101515b915060010161454e565b509b929a5098509650945050505050565b60006001815b865181101561461b578581815181106145d057fe5b6020026020010151614613578381815181106145e857fe5b60200260200101518582815181106145fc57fe5b60200260200101511115614613576000915061461b565b6001016145bb565b50801561462757600191505b50949350505050565b6000805b885181101561470f5787818151811061464957fe5b602002602001015161468c5785818151811061466157fe5b602002602001015187828151811061467557fe5b6020026020010151111561468c576001915061470f565b82818151811061469857fe5b60200260200101516147075760006146c98683815181106146b557fe5b6020026020010151888481518110613e4057fe5b905060006146f08684815181106146dc57fe5b6020026020010151898581518110613e4057fe5b90508082106147045760019350505061470f565b50505b600101614634565b5080613cc557506001613cc5565b600061315083836012614b39565b60008261473a57506000610dc3565b8282028284828161474757fe5b04146131505760405162461bcd60e51b8152600401808060200182810382526021815260200180614f176021913960400191505060405180910390fd5b600061315083836040518060400160405280601a81526020017f536166654d6174683a206469766973696f6e206279207a65726f000000000000815250614b79565b60006060600060019050600086516001600160401b03811180156147e957600080fd5b50604051908082528060200260200182016040528015614813578160200160208202803683370190505b50905060005b87518110156148ea57600182828151811061483057fe5b602002602001019015159081151581525050614854606e54878381518110613ba957fe5b87828151811061486057fe5b6020026020010151106148945760009250600082828151811061487f57fe5b911515602092830291909101909101526148e2565b8581815181106148a057fe5b60200260200101516148ba606e54898481518110613ba957fe5b116148e2576000925060008282815181106148d157fe5b911515602092830291909101909101525b600101614819565b5090969095509350505050565b60008183106149115761490a838361432c565b9050610dc3565b61490a828461432c565b600061315083836012614bde565b6000806001905060006069848154811061493f57fe5b6000918252602082206003909102015460408051635f1dde9760e11b815290516001600160a01b039092169350839163be3bbd2e916004808201928692909190829003018186803b15801561499357600080fd5b505afa1580156149a7573d6000803e3d6000fd5b505050506040513d6000823e601f3d908101601f1916820160405260208110156149d057600080fd5b8101908080516040519392919084600160201b8211156149ef57600080fd5b908301906020820185811115614a0457600080fd5b82518660208202830111600160201b82111715614a2057600080fd5b82525081516020918201928201910280838360005b83811015614a4d578181015183820152602001614a35565b50505050905001604052505050905060005b8151811015614b2e57606c6000838381518110614a7857fe5b6020908102919091018101516001600160a01b031682528101919091526040016000205460ff1615614b2657600087606a6000858581518110614ab757fe5b6020908102919091018101516001600160a01b0316825281019190915260400160002060020154815161ffff909116908110614aef57fe5b60200260200101519050614b1681848481518110614b0957fe5b6020026020010151614bf2565b614b24576000945050614b2e565b505b600101614a5f565b509195945050505050565b6000600a82900a5b8315613d7d576002840660011415614b6157614b5e818685613d63565b90505b600284049350614b72858685613d63565b9450614b41565b60008183614bc85760405162461bcd60e51b81526020600482018181528351602484015283519092839260449091019190850190808383600083156116c45781810151838201526020016116ac565b506000838581614bd457fe5b0495945050505050565b6000613d7d83613d7786600a86900a61472b565b600080600190506000836001600160a01b031663313ce5676040518163ffffffff1660e01b815260040160206040518083038186803b158015614c3457600080fd5b505afa158015614c48573d6000803e3d6000fd5b505050506040513d6020811015614c5e57600080fd5b505160ff1690506001198101600a90810a6005029082900a8082018710614c885760009350614b2e565b8181038711614b2e575060009695505050505050565b828054600181600116156101000203166002900490600052602060002090601f016020900481019282614cd45760008555614d1a565b82601f10614ced57805160ff1916838001178555614d1a565b82800160010185558215614d1a579182015b82811115614d1a578251825591602001919060010190614cff565b50613d5f929150614db9565b60405180610100016040528060608152602001606081526020016060815260200160008152602001600081526020016000815260200160608152602001600081525090565b6040518060800160405280600081526020016000815260200160008152602001600081525090565b604080516080810182526000808252602082015260609181018290528181019190915290565b5b80821115613d5f5760008155600101614dba56fe45524332303a207472616e7366657220746f20746865207a65726f206164647265737345524332303a206275726e20616d6f756e7420657863656564732062616c616e63656661696c656420746f207472616e7366657220746f6b656e732c20636865636b20616c6c6f77616e63654f776e61626c653a206e6577206f776e657220697320746865207a65726f206164647265737345524332303a20617070726f766520746f20746865207a65726f206164647265737345524332303a207472616e7366657220616d6f756e7420657863656564732062616c616e6365746f6b656e73496e20616e642076616c756573496e2073686f756c642068617665207468652073616d65206e756d626572206f6620656c656d656e7473496e697469616c697a61626c653a20636f6e747261637420697320616c726561647920696e697469616c697a6564536166654d6174683a206d756c7469706c69636174696f6e206f766572666c6f7745524332303a207472616e7366657220616d6f756e74206578636565647320616c6c6f77616e63654f776e61626c653a2063616c6c6572206973206e6f7420746865206f776e657245524332303a206275726e2066726f6d20746865207a65726f206164647265737345524332303a207472616e736665722066726f6d20746865207a65726f206164647265737345524332303a20617070726f76652066726f6d20746865207a65726f2061646472657373496e70757420746f6b656e7320696e2077726f6e67206f72646572206f7220636f6e7461696e7320696e76616c696420746f6b656e736270746f6b656e7320646f206e6f7420686176652074686520636f7272656374206e756d626572206f6620616464726573657345524332303a2064656372656173656420616c6c6f77616e63652062656c6f77207a65726fa2646970667358221220d66db731d99335b5311d68c699df0db25f6c0a98ba4a7f87c1e6b1cec9181d7a64736f6c63430007060033",
  "devdoc": {
    "kind": "dev",
    "methods": {
      "allowance(address,address)": {
        "details": "See {IERC20-allowance}."
      },
      "approve(address,uint256)": {
        "details": "See {IERC20-approve}. Requirements: - `spender` cannot be the zero address."
      },
      "balanceOf(address)": {
        "details": "See {IERC20-balanceOf}."
      },
      "decimals()": {
        "details": "Returns the number of decimals used to get its user representation. For example, if `decimals` equals `2`, a balance of `505` tokens should be displayed to a user as `5,05` (`505 / 10 ** 2`). Tokens usually opt for a value of 18, imitating the relationship between Ether and Wei. This is the value {ERC20} uses, unless {_setupDecimals} is called. NOTE: This information is only used for _display_ purposes: it in no way affects any of the arithmetic of the contract, including {IERC20-balanceOf} and {IERC20-transfer}."
      },
      "decreaseAllowance(address,uint256)": {
        "details": "Atomically decreases the allowance granted to `spender` by the caller. This is an alternative to {approve} that can be used as a mitigation for problems described in {IERC20-approve}. Emits an {Approval} event indicating the updated allowance. Requirements: - `spender` cannot be the zero address. - `spender` must have allowance for the caller of at least `subtractedValue`."
      },
      "getReserveValues()": {
        "returns": {
          "_0": "of 0 is no error happens or a value described in errors.json",
          "_1": "= array of pool token addresses, in the right order",
          "_2": "= dollar-value held by the reserve in each pool, in same order"
        }
      },
      "increaseAllowance(address,uint256)": {
        "details": "Atomically increases the allowance granted to `spender` by the caller. This is an alternative to {approve} that can be used as a mitigation for problems described in {IERC20-approve}. Emits an {Approval} event indicating the updated allowance. Requirements: - `spender` cannot be the zero address."
      },
      "mintChecksPass(address[],uint256[],uint256)": {
        "params": {
          "_BPTokensIn": "addresses of the input balancer pool tokens",
          "_amountsIn": "amounts of the input balancer pool tokens",
          "_minGyroMinted": "mininum amount of gyro to mint"
        },
        "returns": {
          "errorCode": "of 0 is no error happens or a value described in errors.json"
        }
      },
      "name()": {
        "details": "Returns the name of the token."
      },
      "owner()": {
        "details": "Returns the address of the current owner."
      },
      "redeem(address[],uint256[],uint256)": {
        "params": {
          "_BPTokensOut": "= array of pool token addresses, in the same order as stored in the contract",
          "_amountsOut": "= user-specified pool token amounts to redeem for, in same order as _BPTokensOut",
          "_maxGyroRedeemed": "= slippage parameter for max GYD to redeem or else revert Returns amount of GYD to redeem and emits Redeem event"
        }
      },
      "redeemChecksPass(address[],uint256[],uint256)": {
        "params": {
          "_BPTokensOut": "= array of pool token addresses, in the same order as stored in the contract",
          "_amountsOut": "= user-specified pool token amounts to redeem for, in same order as _BPTokensOut",
          "_maxGyroRedeemed": "= slippage parameter for max GYD to redeem or else revert"
        },
        "returns": {
          "errorCode": "of 0 is no error happens or a value described in errors.json"
        }
      },
      "renounceOwnership()": {
        "details": "Leaves the contract without owner. It will not be possible to call `onlyOwner` functions anymore. Can only be called by the current owner. NOTE: Renouncing ownership will leave the contract without an owner, thereby removing any functionality that is only available to the owner."
      },
      "symbol()": {
        "details": "Returns the symbol of the token, usually a shorter version of the name."
      },
      "totalSupply()": {
        "details": "See {IERC20-totalSupply}."
      },
      "transfer(address,uint256)": {
        "details": "See {IERC20-transfer}. Requirements: - `recipient` cannot be the zero address. - the caller must have a balance of at least `amount`."
      },
      "transferFrom(address,address,uint256)": {
        "details": "See {IERC20-transferFrom}. Emits an {Approval} event indicating the updated allowance. This is not required by the EIP. See the note at the beginning of {ERC20}. Requirements: - `sender` and `recipient` cannot be the zero address. - `sender` must have a balance of at least `amount`. - the caller must have allowance for ``sender``'s tokens of at least `amount`."
      },
      "transferOwnership(address)": {
        "details": "Transfers ownership of the contract to a new account (`newOwner`). Can only be called by the current owner."
      }
    },
    "version": 1
  },
  "userdoc": {
    "kind": "user",
    "methods": {
      "getReserveValues()": {
        "notice": "Gets the current values in the reserve pools"
      },
      "mintChecksPass(address[],uint256[],uint256)": {
        "notice": "Takes in the same parameters as mint and returns whether the mint will succeed or not as well as the estimated mint amount"
      },
      "redeem(address[],uint256[],uint256)": {
        "notice": "Redeems GYD in return for user-specified token amounts from the reserve"
      },
      "redeemChecksPass(address[],uint256[],uint256)": {
        "notice": "Takes in the same parameters as redeem and returns whether the redeem will succeed or not as well as the estimated redeem amount"
      }
    },
    "notice": "GyroFundV1 contains the logic for the Gyroscope Reserve The storage of this contract should be empty, as the Gyroscope storage will be held in the proxy contract. GyroFundV1 contains the mint and redeem functions for GYD and interacts with the GyroPriceOracle for the P-AMM functionality.",
    "version": 1
  },
  "storageLayout": {
    "storage": [
      {
        "astId": 361,
        "contract": "contracts/GyroFund.sol:GyroFundV1",
        "label": "_initialized",
        "offset": 0,
        "slot": "0",
        "type": "t_bool"
      },
      {
        "astId": 364,
        "contract": "contracts/GyroFund.sol:GyroFundV1",
        "label": "_initializing",
        "offset": 1,
        "slot": "0",
        "type": "t_bool"
      },
      {
        "astId": 1316,
        "contract": "contracts/GyroFund.sol:GyroFundV1",
        "label": "__gap",
        "offset": 0,
        "slot": "1",
        "type": "t_array(t_uint256)50_storage"
      },
      {
        "astId": 8348,
        "contract": "contracts/GyroFund.sol:GyroFundV1",
        "label": "_owner",
        "offset": 0,
        "slot": "51",
        "type": "t_address"
      },
      {
        "astId": 440,
        "contract": "contracts/GyroFund.sol:GyroFundV1",
        "label": "_balances",
        "offset": 0,
        "slot": "52",
        "type": "t_mapping(t_address,t_uint256)"
      },
      {
        "astId": 446,
        "contract": "contracts/GyroFund.sol:GyroFundV1",
        "label": "_allowances",
        "offset": 0,
        "slot": "53",
        "type": "t_mapping(t_address,t_mapping(t_address,t_uint256))"
      },
      {
        "astId": 448,
        "contract": "contracts/GyroFund.sol:GyroFundV1",
        "label": "_totalSupply",
        "offset": 0,
        "slot": "54",
        "type": "t_uint256"
      },
      {
        "astId": 450,
        "contract": "contracts/GyroFund.sol:GyroFundV1",
        "label": "_name",
        "offset": 0,
        "slot": "55",
        "type": "t_string_storage"
      },
      {
        "astId": 452,
        "contract": "contracts/GyroFund.sol:GyroFundV1",
        "label": "_symbol",
        "offset": 0,
        "slot": "56",
        "type": "t_string_storage"
      },
      {
        "astId": 454,
        "contract": "contracts/GyroFund.sol:GyroFundV1",
        "label": "_decimals",
        "offset": 0,
        "slot": "57",
        "type": "t_uint8"
      },
      {
        "astId": 949,
        "contract": "contracts/GyroFund.sol:GyroFundV1",
        "label": "__gap",
        "offset": 0,
        "slot": "58",
        "type": "t_array(t_uint256)44_storage"
      },
      {
        "astId": 3951,
        "contract": "contracts/GyroFund.sol:GyroFundV1",
        "label": "gyroPriceOracle",
        "offset": 0,
        "slot": "102",
        "type": "t_contract(GyroPriceOracle)7761"
      },
      {
        "astId": 3953,
        "contract": "contracts/GyroFund.sol:GyroFundV1",
        "label": "gyroRouter",
        "offset": 0,
        "slot": "103",
        "type": "t_contract(GyroRouter)8343"
      },
      {
        "astId": 3955,
        "contract": "contracts/GyroFund.sol:GyroFundV1",
        "label": "priceOracle",
        "offset": 0,
        "slot": "104",
        "type": "t_contract(PriceOracle)7727"
      },
      {
        "astId": 4013,
        "contract": "contracts/GyroFund.sol:GyroFundV1",
        "label": "poolProperties",
        "offset": 0,
        "slot": "105",
        "type": "t_array(t_struct(PoolProperties)3969_storage)dyn_storage"
      },
      {
        "astId": 4017,
        "contract": "contracts/GyroFund.sol:GyroFundV1",
        "label": "_tokenAddressToProperties",
        "offset": 0,
        "slot": "106",
        "type": "t_mapping(t_address,t_struct(TokenProperties)3962_storage)"
      },
      {
        "astId": 4021,
        "contract": "contracts/GyroFund.sol:GyroFundV1",
        "label": "_checkPoolIsValid",
        "offset": 0,
        "slot": "107",
        "type": "t_mapping(t_address,t_bool)"
      },
      {
        "astId": 4025,
        "contract": "contracts/GyroFund.sol:GyroFundV1",
        "label": "_checkIsStablecoin",
        "offset": 0,
        "slot": "108",
        "type": "t_mapping(t_address,t_bool)"
      },
      {
        "astId": 4028,
        "contract": "contracts/GyroFund.sol:GyroFundV1",
        "label": "underlyingTokenAddresses",
        "offset": 0,
        "slot": "109",
        "type": "t_array(t_address)dyn_storage"
      },
      {
        "astId": 4030,
        "contract": "contracts/GyroFund.sol:GyroFundV1",
        "label": "portfolioWeightEpsilon",
        "offset": 0,
        "slot": "110",
        "type": "t_uint256"
      },
      {
        "astId": 4032,
        "contract": "contracts/GyroFund.sol:GyroFundV1",
        "label": "lastSeenBlock",
        "offset": 0,
        "slot": "111",
        "type": "t_uint256"
      },
      {
        "astId": 4034,
        "contract": "contracts/GyroFund.sol:GyroFundV1",
        "label": "inflowHistory",
        "offset": 0,
        "slot": "112",
        "type": "t_uint256"
      },
      {
        "astId": 4036,
        "contract": "contracts/GyroFund.sol:GyroFundV1",
        "label": "outflowHistory",
        "offset": 0,
        "slot": "113",
        "type": "t_uint256"
      },
      {
        "astId": 4038,
        "contract": "contracts/GyroFund.sol:GyroFundV1",
        "label": "memoryParam",
        "offset": 0,
        "slot": "114",
        "type": "t_uint256"
      }
    ],
    "types": {
      "t_address": {
        "encoding": "inplace",
        "label": "address",
        "numberOfBytes": "20"
      },
      "t_array(t_address)dyn_storage": {
        "base": "t_address",
        "encoding": "dynamic_array",
        "label": "address[]",
        "numberOfBytes": "32"
      },
      "t_array(t_struct(PoolProperties)3969_storage)dyn_storage": {
        "base": "t_struct(PoolProperties)3969_storage",
        "encoding": "dynamic_array",
        "label": "struct GyroFundV1.PoolProperties[]",
        "numberOfBytes": "32"
      },
      "t_array(t_uint256)44_storage": {
        "base": "t_uint256",
        "encoding": "inplace",
        "label": "uint256[44]",
        "numberOfBytes": "1408"
      },
      "t_array(t_uint256)50_storage": {
        "base": "t_uint256",
        "encoding": "inplace",
        "label": "uint256[50]",
        "numberOfBytes": "1600"
      },
      "t_bool": {
        "encoding": "inplace",
        "label": "bool",
        "numberOfBytes": "1"
      },
      "t_contract(GyroPriceOracle)7761": {
        "encoding": "inplace",
        "label": "contract GyroPriceOracle",
        "numberOfBytes": "20"
      },
      "t_contract(GyroRouter)8343": {
        "encoding": "inplace",
        "label": "contract GyroRouter",
        "numberOfBytes": "20"
      },
      "t_contract(PriceOracle)7727": {
        "encoding": "inplace",
        "label": "contract PriceOracle",
        "numberOfBytes": "20"
      },
      "t_mapping(t_address,t_bool)": {
        "encoding": "mapping",
        "key": "t_address",
        "label": "mapping(address => bool)",
        "numberOfBytes": "32",
        "value": "t_bool"
      },
      "t_mapping(t_address,t_mapping(t_address,t_uint256))": {
        "encoding": "mapping",
        "key": "t_address",
        "label": "mapping(address => mapping(address => uint256))",
        "numberOfBytes": "32",
        "value": "t_mapping(t_address,t_uint256)"
      },
      "t_mapping(t_address,t_struct(TokenProperties)3962_storage)": {
        "encoding": "mapping",
        "key": "t_address",
        "label": "mapping(address => struct GyroFundV1.TokenProperties)",
        "numberOfBytes": "32",
        "value": "t_struct(TokenProperties)3962_storage"
      },
      "t_mapping(t_address,t_uint256)": {
        "encoding": "mapping",
        "key": "t_address",
        "label": "mapping(address => uint256)",
        "numberOfBytes": "32",
        "value": "t_uint256"
      },
      "t_string_storage": {
        "encoding": "bytes",
        "label": "string",
        "numberOfBytes": "32"
      },
      "t_struct(PoolProperties)3969_storage": {
        "encoding": "inplace",
        "label": "struct GyroFundV1.PoolProperties",
        "members": [
          {
            "astId": 3964,
            "contract": "contracts/GyroFund.sol:GyroFundV1",
            "label": "poolAddress",
            "offset": 0,
            "slot": "0",
            "type": "t_address"
          },
          {
            "astId": 3966,
            "contract": "contracts/GyroFund.sol:GyroFundV1",
            "label": "initialPoolWeight",
            "offset": 0,
            "slot": "1",
            "type": "t_uint256"
          },
          {
            "astId": 3968,
            "contract": "contracts/GyroFund.sol:GyroFundV1",
            "label": "initialPoolPrice",
            "offset": 0,
            "slot": "2",
            "type": "t_uint256"
          }
        ],
        "numberOfBytes": "96"
      },
      "t_struct(TokenProperties)3962_storage": {
        "encoding": "inplace",
        "label": "struct GyroFundV1.TokenProperties",
        "members": [
          {
            "astId": 3957,
            "contract": "contracts/GyroFund.sol:GyroFundV1",
            "label": "oracleAddress",
            "offset": 0,
            "slot": "0",
            "type": "t_address"
          },
          {
            "astId": 3959,
            "contract": "contracts/GyroFund.sol:GyroFundV1",
            "label": "tokenSymbol",
            "offset": 0,
            "slot": "1",
            "type": "t_string_storage"
          },
          {
            "astId": 3961,
            "contract": "contracts/GyroFund.sol:GyroFundV1",
            "label": "tokenIndex",
            "offset": 0,
            "slot": "2",
            "type": "t_uint16"
          }
        ],
        "numberOfBytes": "96"
      },
      "t_uint16": {
        "encoding": "inplace",
        "label": "uint16",
        "numberOfBytes": "2"
      },
      "t_uint256": {
        "encoding": "inplace",
        "label": "uint256",
        "numberOfBytes": "32"
      },
      "t_uint8": {
        "encoding": "inplace",
        "label": "uint8",
        "numberOfBytes": "1"
      }
    }
  }
}