{
  "address": "0xfb32C0B155B36bd96608cC2c3319119f788dB912",
  "abi": [
    {
      "inputs": [
        {
          "internalType": "address",
          "name": "gyroFundAddress",
          "type": "address"
        },
        {
          "internalType": "address",
          "name": "externalTokensRouterAddress",
          "type": "address"
        }
      ],
      "stateMutability": "nonpayable",
      "type": "constructor"
    },
    {
      "anonymous": false,
      "inputs": [
        {
          "indexed": true,
          "internalType": "address",
          "name": "previousOwner",
          "type": "address"
        },
        {
          "indexed": true,
          "internalType": "address",
          "name": "newOwner",
          "type": "address"
        }
      ],
      "name": "OwnershipTransferred",
      "type": "event"
    },
    {
      "inputs": [
        {
          "internalType": "address[]",
          "name": "_tokensIn",
          "type": "address[]"
        },
        {
          "internalType": "uint256[]",
          "name": "_amountsIn",
          "type": "uint256[]"
        }
      ],
      "name": "estimateMintedGyro",
      "outputs": [
        {
          "internalType": "uint256",
          "name": "",
          "type": "uint256"
        }
      ],
      "stateMutability": "view",
      "type": "function"
    },
    {
      "inputs": [
        {
          "internalType": "address[]",
          "name": "_tokensOut",
          "type": "address[]"
        },
        {
          "internalType": "uint256[]",
          "name": "_amountsOut",
          "type": "uint256[]"
        }
      ],
      "name": "estimateRedeemedGyro",
      "outputs": [
        {
          "internalType": "uint256",
          "name": "",
          "type": "uint256"
        }
      ],
      "stateMutability": "view",
      "type": "function"
    },
    {
      "inputs": [],
      "name": "getReserveValues",
      "outputs": [
        {
          "internalType": "uint256",
          "name": "",
          "type": "uint256"
        },
        {
          "internalType": "address[]",
          "name": "",
          "type": "address[]"
        },
        {
          "internalType": "uint256[]",
          "name": "",
          "type": "uint256[]"
        }
      ],
      "stateMutability": "view",
      "type": "function"
    },
    {
      "inputs": [],
      "name": "getSupportedPools",
      "outputs": [
        {
          "internalType": "address[]",
          "name": "",
          "type": "address[]"
        }
      ],
      "stateMutability": "view",
      "type": "function"
    },
    {
      "inputs": [],
      "name": "getSupportedTokens",
      "outputs": [
        {
          "internalType": "address[]",
          "name": "",
          "type": "address[]"
        }
      ],
      "stateMutability": "view",
      "type": "function"
    },
    {
      "inputs": [],
      "name": "initializeOwner",
      "outputs": [],
      "stateMutability": "nonpayable",
      "type": "function"
    },
    {
      "inputs": [
        {
          "internalType": "address[]",
          "name": "_tokensIn",
          "type": "address[]"
        },
        {
          "internalType": "uint256[]",
          "name": "_amountsIn",
          "type": "uint256[]"
        },
        {
          "internalType": "uint256",
          "name": "_minAmountOut",
          "type": "uint256"
        }
      ],
      "name": "mintFromUnderlyingTokens",
      "outputs": [
        {
          "internalType": "uint256",
          "name": "",
          "type": "uint256"
        }
      ],
      "stateMutability": "nonpayable",
      "type": "function"
    },
    {
      "inputs": [],
      "name": "owner",
      "outputs": [
        {
          "internalType": "address",
          "name": "",
          "type": "address"
        }
      ],
      "stateMutability": "view",
      "type": "function"
    },
    {
      "inputs": [
        {
          "internalType": "address[]",
          "name": "_tokensOut",
          "type": "address[]"
        },
        {
          "internalType": "uint256[]",
          "name": "_amountsOut",
          "type": "uint256[]"
        },
        {
          "internalType": "uint256",
          "name": "_maxRedeemed",
          "type": "uint256"
        }
      ],
      "name": "redeemToUnderlyingTokens",
      "outputs": [
        {
          "internalType": "uint256",
          "name": "",
          "type": "uint256"
        }
      ],
      "stateMutability": "nonpayable",
      "type": "function"
    },
    {
      "inputs": [],
      "name": "renounceOwnership",
      "outputs": [],
      "stateMutability": "nonpayable",
      "type": "function"
    },
    {
      "inputs": [
        {
          "internalType": "address",
          "name": "_fundAddress",
          "type": "address"
        }
      ],
      "name": "setFundAddress",
      "outputs": [],
      "stateMutability": "nonpayable",
      "type": "function"
    },
    {
      "inputs": [
        {
          "internalType": "address",
          "name": "_routerAddress",
          "type": "address"
        }
      ],
      "name": "setRouterAddress",
      "outputs": [],
      "stateMutability": "nonpayable",
      "type": "function"
    },
    {
      "inputs": [
        {
          "internalType": "address[]",
          "name": "_BPTokensIn",
          "type": "address[]"
        },
        {
          "internalType": "uint256[]",
          "name": "amounts",
          "type": "uint256[]"
        }
      ],
      "name": "sortBPTokenstoPools",
      "outputs": [
        {
          "internalType": "address[]",
          "name": "",
          "type": "address[]"
        },
        {
          "internalType": "uint256[]",
          "name": "",
          "type": "uint256[]"
        }
      ],
      "stateMutability": "view",
      "type": "function"
    },
    {
      "inputs": [
        {
          "internalType": "address",
          "name": "newOwner",
          "type": "address"
        }
      ],
      "name": "transferOwnership",
      "outputs": [],
      "stateMutability": "nonpayable",
      "type": "function"
    },
    {
      "inputs": [
        {
          "internalType": "address[]",
          "name": "_tokensIn",
          "type": "address[]"
        },
        {
          "internalType": "uint256[]",
          "name": "_amountsIn",
          "type": "uint256[]"
        },
        {
          "internalType": "uint256",
          "name": "_minGyroMinted",
          "type": "uint256"
        }
      ],
      "name": "wouldMintChecksPass",
      "outputs": [
        {
          "internalType": "uint256",
          "name": "",
          "type": "uint256"
        }
      ],
      "stateMutability": "view",
      "type": "function"
    },
    {
      "inputs": [
        {
          "internalType": "address[]",
          "name": "_tokensOut",
          "type": "address[]"
        },
        {
          "internalType": "uint256[]",
          "name": "_amountsOut",
          "type": "uint256[]"
        },
        {
          "internalType": "uint256",
          "name": "_maxGyroRedeemed",
          "type": "uint256"
        }
      ],
      "name": "wouldRedeemChecksPass",
      "outputs": [
        {
          "internalType": "uint256",
          "name": "",
          "type": "uint256"
        }
      ],
      "stateMutability": "view",
      "type": "function"
    }
  ],
  "transactionHash": "0xe2eed37af0e24cced041f0f95223232f79749b0e90559c5d272b5c77d0002739",
  "args": [
    "0x3E7374335a4Ff0aD4453B4D3aa35c6756cDF4d66",
    "0x16eEdebd82e9A4A28D0a26015Ad5b94e92fe5751"
  ],
  "solcInputHash": "d31ce4e7b6f4bbe0415bfea03e917f97",
  "bytecode": "0x608060405234801561001057600080fd5b506040516132d33803806132d38339818101604052604081101561003357600080fd5b508051602090910151600180546001600160a01b039384166001600160a01b031991821617909155600280549390921692169190911790556132598061007a6000396000f3fe608060405234801561001057600080fd5b50600436106101005760003560e01c8063715018a611610097578063ad18971311610066578063ad18971314610850578063c18a987214610a0c578063d3c7c2c714610b2f578063f2fde38b14610b3757610100565b8063715018a6146107a657806385dc3004146107ae5780638b450aba146107d45780638da5cb5b1461082c57610100565b806354347cef116100d357806354347cef146104ac5780635f53837f146105d1578063639431e8146105d957806363ebe07e1461068157610100565b80630a5bf41814610105578063372a47b61461023c57806341cb87fc1461035f5780634435abc114610387575b600080fd5b61022a6004803603606081101561011b57600080fd5b810190602081018135600160201b81111561013557600080fd5b82018360208201111561014757600080fd5b803590602001918460208302840111600160201b8311171561016857600080fd5b9190808060200260200160405190810160405280939291908181526020018383602002808284376000920191909152509295949360208101935035915050600160201b8111156101b757600080fd5b8201836020820111156101c957600080fd5b803590602001918460208302840111600160201b831117156101ea57600080fd5b9190808060200260200160405190810160405280939291908181526020018383602002808284376000920191909152509295505091359250610b5d915050565b60408051918252519081900360200190f35b61022a6004803603604081101561025257600080fd5b810190602081018135600160201b81111561026c57600080fd5b82018360208201111561027e57600080fd5b803590602001918460208302840111600160201b8311171561029f57600080fd5b9190808060200260200160405190810160405280939291908181526020018383602002808284376000920191909152509295949360208101935035915050600160201b8111156102ee57600080fd5b82018360208201111561030057600080fd5b803590602001918460208302840111600160201b8311171561032157600080fd5b9190808060200260200160405190810160405280939291908181526020018383602002808284376000920191909152509295506116ac945050505050565b6103856004803603602081101561037557600080fd5b50356001600160a01b03166119f9565b005b61022a6004803603606081101561039d57600080fd5b810190602081018135600160201b8111156103b757600080fd5b8201836020820111156103c957600080fd5b803590602001918460208302840111600160201b831117156103ea57600080fd5b9190808060200260200160405190810160405280939291908181526020018383602002808284376000920191909152509295949360208101935035915050600160201b81111561043957600080fd5b82018360208201111561044b57600080fd5b803590602001918460208302840111600160201b8311171561046c57600080fd5b9190808060200260200160405190810160405280939291908181526020018383602002808284376000920191909152509295505091359250611a68915050565b61022a600480360360608110156104c257600080fd5b810190602081018135600160201b8111156104dc57600080fd5b8201836020820111156104ee57600080fd5b803590602001918460208302840111600160201b8311171561050f57600080fd5b9190808060200260200160405190810160405280939291908181526020018383602002808284376000920191909152509295949360208101935035915050600160201b81111561055e57600080fd5b82018360208201111561057057600080fd5b803590602001918460208302840111600160201b8311171561059157600080fd5b9190808060200260200160405190810160405280939291908181526020018383602002808284376000920191909152509295505091359250611db1915050565b61038561205a565b6105e16120cc565b604051808481526020018060200180602001838103835285818151815260200191508051906020019060200280838360005b8381101561062b578181015183820152602001610613565b50505050905001838103825284818151815260200191508051906020019060200280838360005b8381101561066a578181015183820152602001610652565b505050509050019550505050505060405180910390f35b61022a6004803603606081101561069757600080fd5b810190602081018135600160201b8111156106b157600080fd5b8201836020820111156106c357600080fd5b803590602001918460208302840111600160201b831117156106e457600080fd5b9190808060200260200160405190810160405280939291908181526020018383602002808284376000920191909152509295949360208101935035915050600160201b81111561073357600080fd5b82018360208201111561074557600080fd5b803590602001918460208302840111600160201b8311171561076657600080fd5b919080806020026020016040519081016040528093929190818152602001838360200280828437600092019190915250929550509135925061227e915050565b61038561293e565b610385600480360360208110156107c457600080fd5b50356001600160a01b03166129d5565b6107dc612a44565b60408051602080825283518183015283519192839290830191858101910280838360005b83811015610818578181015183820152602001610800565b505050509050019250505060405180910390f35b610834612b55565b604080516001600160a01b039092168252519081900360200190f35b6109736004803603604081101561086657600080fd5b810190602081018135600160201b81111561088057600080fd5b82018360208201111561089257600080fd5b803590602001918460208302840111600160201b831117156108b357600080fd5b9190808060200260200160405190810160405280939291908181526020018383602002808284376000920191909152509295949360208101935035915050600160201b81111561090257600080fd5b82018360208201111561091457600080fd5b803590602001918460208302840111600160201b8311171561093557600080fd5b919080806020026020016040519081016040528093929190818152602001838360200280828437600092019190915250929550612b64945050505050565b604051808060200180602001838103835285818151815260200191508051906020019060200280838360005b838110156109b757818101518382015260200161099f565b50505050905001838103825284818151815260200191508051906020019060200280838360005b838110156109f65781810151838201526020016109de565b5050505090500194505050505060405180910390f35b61022a60048036036040811015610a2257600080fd5b810190602081018135600160201b811115610a3c57600080fd5b820183602082011115610a4e57600080fd5b803590602001918460208302840111600160201b83111715610a6f57600080fd5b9190808060200260200160405190810160405280939291908181526020018383602002808284376000920191909152509295949360208101935035915050600160201b811115610abe57600080fd5b820183602082011115610ad057600080fd5b803590602001918460208302840111600160201b83111715610af157600080fd5b919080806020026020016040519081016040528093929190818152602001838360200280828437600092019190915250929550612dcb945050505050565b6107dc613076565b61038560048036036020811015610b4d57600080fd5b50356001600160a01b03166130bb565b6002546040805163c66ca5fb60e01b815260048101918252855160448201528551600093849384936001600160a01b039092169263c66ca5fb928a928a9290918291602482019160640190602080880191028083838d5b83811015610bcc578181015183820152602001610bb4565b50505050905001838103825284818151815260200191508051906020019060200280838360005b83811015610c0b578181015183820152602001610bf3565b5050505090500194505050505060006040518083038186803b158015610c3057600080fd5b505afa158015610c44573d6000803e3d6000fd5b505050506040513d6000823e601f3d908101601f191682016040908152811015610c6d57600080fd5b8101908080516040519392919084600160201b821115610c8c57600080fd5b908301906020820185811115610ca157600080fd5b82518660208202830111600160201b82111715610cbd57600080fd5b82525081516020918201928201910280838360005b83811015610cea578181015183820152602001610cd2565b5050505090500160405260200180516040519392919084600160201b821115610d1257600080fd5b908301906020820185811115610d2757600080fd5b82518660208202830111600160201b82111715610d4357600080fd5b82525081516020918201928201910280838360005b83811015610d70578181015183820152602001610d58565b5050505090500160405250505091509150600080610d8e8484612b64565b91509150600080600160009054906101000a90046001600160a01b03166001600160a01b03166367691bf385858b6040518463ffffffff1660e01b8152600401808060200180602001848152602001838103835286818151815260200191508051906020019060200280838360005b83811015610e15578181015183820152602001610dfd565b50505050905001838103825285818151815260200191508051906020019060200280838360005b83811015610e54578181015183820152602001610e3c565b5050505090500195505050505050604080518083038186803b158015610e7957600080fd5b505afa158015610e8d573d6000803e3d6000fd5b505050506040513d6040811015610ea357600080fd5b50805160209091015160015460408051633b19d5b760e21b81526004810185905290519395509193508415926001600160a01b039091169163ec6756dc916024808301926000929190829003018186803b158015610f0057600080fd5b505afa158015610f14573d6000803e3d6000fd5b505050506040513d6000823e601f3d908101601f191682016040526020811015610f3d57600080fd5b8101908080516040519392919084600160201b821115610f5c57600080fd5b908301906020820185811115610f7157600080fd5b8251600160201b811182820188101715610f8a57600080fd5b82525081516020918201929091019080838360005b83811015610fb7578181015183820152602001610f9f565b50505050905090810190601f168015610fe45780820380516001836020036101000a031916815260200191505b50604052505050906110745760405162461bcd60e51b81526004018080602001828103825283818151815260200191508051906020019080838360005b83811015611039578181015183820152602001611021565b50505050905090810190601f1680156110665780820380516001836020036101000a031916815260200191505b509250505060405180910390fd5b50878111156110be576040805162461bcd60e51b8152602060048201526011602482015270746f6f206d75636820736c69707061676560781b604482015290519081900360640190fd5b600154604080516323b872dd60e01b81523360048201523060248201526044810184905290516001600160a01b03909216916323b872dd916064808201926020929091908290030181600087803b15801561111857600080fd5b505af115801561112c573d6000803e3d6000fd5b505050506040513d602081101561114257600080fd5b5051611195576040805162461bcd60e51b815260206004820152601a60248201527f6661696c656420746f2073656e64206779726f20746f206c6962000000000000604482015290519081900360640190fd5b60015460405163af1a153160e01b8152604481018a90526060600482019081528651606483015286516000936001600160a01b03169263af1a153192899289928f929182916024810191608490910190602080890191028083838e5b838110156112095781810151838201526020016111f1565b50505050905001838103825285818151815260200191508051906020019060200280838360005b83811015611248578181015183820152602001611230565b5050505090500195505050505050602060405180830381600087803b15801561127057600080fd5b505af1158015611284573d6000803e3d6000fd5b505050506040513d602081101561129a57600080fd5b5051905060005b85518110156113c1578581815181106112b657fe5b60200260200101516001600160a01b031663095ea7b3600260009054906101000a90046001600160a01b03168784815181106112ee57fe5b60200260200101516040518363ffffffff1660e01b815260040180836001600160a01b0316815260200182815260200192505050602060405180830381600087803b15801561133c57600080fd5b505af1158015611350573d6000803e3d6000fd5b505050506040513d602081101561136657600080fd5b50516113b9576040805162461bcd60e51b815260206004820152601a60248201527f6661696c656420746f20617070726f7665204250546f6b656e73000000000000604482015290519081900360640190fd5b6001016112a1565b5060025460408051636f36b6cb60e11b8152600481019182528d5160448201528d516001600160a01b039093169263de6d6d96928f928f92829160248101916064909101906020808801910280838360005b8381101561142b578181015183820152602001611413565b50505050905001838103825284818151815260200191508051906020019060200280838360005b8381101561146a578181015183820152602001611452565b50505050905001945050505050600060405180830381600087803b15801561149157600080fd5b505af11580156114a5573d6000803e3d6000fd5b505050506040513d6000823e601f3d908101601f1916820160409081528110156114ce57600080fd5b8101908080516040519392919084600160201b8211156114ed57600080fd5b90830190602082018581111561150257600080fd5b82518660208202830111600160201b8211171561151e57600080fd5b82525081516020918201928201910280838360005b8381101561154b578181015183820152602001611533565b5050505090500160405260200180516040519392919084600160201b82111561157357600080fd5b90830190602082018581111561158857600080fd5b82518660208202830111600160201b821117156115a457600080fd5b82525081516020918201928201910280838360005b838110156115d15781810151838201526020016115b9565b50505050905001604052505050505060005b8b5181101561169d578b81815181106115f857fe5b60200260200101516001600160a01b031663a9059cbb338d848151811061161b57fe5b60200260200101516040518363ffffffff1660e01b815260040180836001600160a01b0316815260200182815260200192505050602060405180830381600087803b15801561166957600080fd5b505af115801561167d573d6000803e3d6000fd5b505050506040513d602081101561169357600080fd5b50506001016115e3565b509a9950505050505050505050565b6002546040805163c66ca5fb60e01b815260048101918252845160448201528451600093849384936001600160a01b039092169263c66ca5fb928992899290918291602482019160640190602080880191028083838d5b8381101561171b578181015183820152602001611703565b50505050905001838103825284818151815260200191508051906020019060200280838360005b8381101561175a578181015183820152602001611742565b5050505090500194505050505060006040518083038186803b15801561177f57600080fd5b505afa158015611793573d6000803e3d6000fd5b505050506040513d6000823e601f3d908101601f1916820160409081528110156117bc57600080fd5b8101908080516040519392919084600160201b8211156117db57600080fd5b9083019060208201858111156117f057600080fd5b82518660208202830111600160201b8211171561180c57600080fd5b82525081516020918201928201910280838360005b83811015611839578181015183820152602001611821565b5050505090500160405260200180516040519392919084600160201b82111561186157600080fd5b90830190602082018581111561187657600080fd5b82518660208202830111600160201b8211171561189257600080fd5b82525081516020918201928201910280838360005b838110156118bf5781810151838201526020016118a7565b50505050905001604052505050915091506000806118dd8484612b64565b6001546040516367691bf360e01b8152600a604482018190526060600483019081528551606484015285519597509395506000946001600160a01b03909316936367691bf39388938893929182916024810191608490910190602080890191028083838e5b8381101561195a578181015183820152602001611942565b50505050905001838103825285818151815260200191508051906020019060200280838360005b83811015611999578181015183820152602001611981565b5050505090500195505050505050604080518083038186803b1580156119be57600080fd5b505afa1580156119d2573d6000803e3d6000fd5b505050506040513d60408110156119e857600080fd5b506020015198975050505050505050565b6000546001600160a01b03163314611a46576040805162461bcd60e51b815260206004820181905260248201526000805160206131cf833981519152604482015290519081900360640190fd5b600280546001600160a01b0319166001600160a01b0392909216919091179055565b60025460408051634fb4dc1f60e11b815260048101918252855160448201528551600093849384936001600160a01b0390921692639f69b83e928a928a9290918291602482019160640190602080880191028083838d5b83811015611ad7578181015183820152602001611abf565b50505050905001838103825284818151815260200191508051906020019060200280838360005b83811015611b16578181015183820152602001611afe565b5050505090500194505050505060006040518083038186803b158015611b3b57600080fd5b505afa158015611b4f573d6000803e3d6000fd5b505050506040513d6000823e601f3d908101601f191682016040908152811015611b7857600080fd5b8101908080516040519392919084600160201b821115611b9757600080fd5b908301906020820185811115611bac57600080fd5b82518660208202830111600160201b82111715611bc857600080fd5b82525081516020918201928201910280838360005b83811015611bf5578181015183820152602001611bdd565b5050505090500160405260200180516040519392919084600160201b821115611c1d57600080fd5b908301906020820185811115611c3257600080fd5b82518660208202830111600160201b82111715611c4e57600080fd5b82525081516020918201928201910280838360005b83811015611c7b578181015183820152602001611c63565b5050505090500160405250505091509150600080611c998484612b64565b60015460405163a3767d0f60e01b8152604481018a90526060600482019081528451606483015284519496509294506000936001600160a01b039092169263a3767d0f92879287928d9290918291602482019160840190602080890191028083838e5b83811015611d14578181015183820152602001611cfc565b50505050905001838103825285818151815260200191508051906020019060200280838360005b83811015611d53578181015183820152602001611d3b565b5050505090500195505050505050604080518083038186803b158015611d7857600080fd5b505afa158015611d8c573d6000803e3d6000fd5b505050506040513d6040811015611da257600080fd5b50519998505050505050505050565b60025460408051634fb4dc1f60e11b815260048101918252855160448201528551600093849384936001600160a01b0390921692639f69b83e928a928a9290918291602482019160640190602080880191028083838d5b83811015611e20578181015183820152602001611e08565b50505050905001838103825284818151815260200191508051906020019060200280838360005b83811015611e5f578181015183820152602001611e47565b5050505090500194505050505060006040518083038186803b158015611e8457600080fd5b505afa158015611e98573d6000803e3d6000fd5b505050506040513d6000823e601f3d908101601f191682016040908152811015611ec157600080fd5b8101908080516040519392919084600160201b821115611ee057600080fd5b908301906020820185811115611ef557600080fd5b82518660208202830111600160201b82111715611f1157600080fd5b82525081516020918201928201910280838360005b83811015611f3e578181015183820152602001611f26565b5050505090500160405260200180516040519392919084600160201b821115611f6657600080fd5b908301906020820185811115611f7b57600080fd5b82518660208202830111600160201b82111715611f9757600080fd5b82525081516020918201928201910280838360005b83811015611fc4578181015183820152602001611fac565b5050505090500160405250505091509150600080611fe28484612b64565b6001546040516367691bf360e01b8152604481018a90526060600482019081528451606483015284519496509294506000936001600160a01b03909216926367691bf392879287928d9290918291602482019160840190602080890191028083838e8315611d14578181015183820152602001611cfc565b6000546001600160a01b0316156120b8576040805162461bcd60e51b815260206004820152601960248201527f6f776e657220616c726561647920696e697469616c697a656400000000000000604482015290519081900360640190fd5b600080546001600160a01b03191633179055565b6000606080600160009054906101000a90046001600160a01b03166001600160a01b031663639431e86040518163ffffffff1660e01b815260040160006040518083038186803b15801561211f57600080fd5b505afa158015612133573d6000803e3d6000fd5b505050506040513d6000823e601f3d908101601f19168201604052606081101561215c57600080fd5b815160208301805160405192949293830192919084600160201b82111561218257600080fd5b90830190602082018581111561219757600080fd5b82518660208202830111600160201b821117156121b357600080fd5b82525081516020918201928201910280838360005b838110156121e05781810151838201526020016121c8565b5050505090500160405260200180516040519392919084600160201b82111561220857600080fd5b90830190602082018581111561221d57600080fd5b82518660208202830111600160201b8211171561223957600080fd5b82525081516020918201928201910280838360005b8381101561226657818101518382015260200161224e565b50505050905001604052505050925092509250909192565b6000805b845181101561244c57600085828151811061229957fe5b60200260200101516001600160a01b03166323b872dd33308886815181106122bd57fe5b60200260200101516040518463ffffffff1660e01b815260040180846001600160a01b03168152602001836001600160a01b031681526020018281526020019350505050602060405180830381600087803b15801561231b57600080fd5b505af115801561232f573d6000803e3d6000fd5b505050506040513d602081101561234557600080fd5b50519050806123855760405162461bcd60e51b81526004018080602001828103825260358152602001806131ef6035913960400191505060405180910390fd5b85828151811061239157fe5b60200260200101516001600160a01b031663095ea7b3600260009054906101000a90046001600160a01b03168785815181106123c957fe5b60200260200101516040518363ffffffff1660e01b815260040180836001600160a01b0316815260200182815260200192505050602060405180830381600087803b15801561241757600080fd5b505af115801561242b573d6000803e3d6000fd5b505050506040513d602081101561244157600080fd5b505050600101612282565b506002546040805163efc908a160e01b81526004810191825286516044820152865160009384936001600160a01b039091169263efc908a1928a928a92909182916024810191606490910190602080880191028083838d5b838110156124bc5781810151838201526020016124a4565b50505050905001838103825284818151815260200191508051906020019060200280838360005b838110156124fb5781810151838201526020016124e3565b50505050905001945050505050600060405180830381600087803b15801561252257600080fd5b505af1158015612536573d6000803e3d6000fd5b505050506040513d6000823e601f3d908101601f19168201604090815281101561255f57600080fd5b8101908080516040519392919084600160201b82111561257e57600080fd5b90830190602082018581111561259357600080fd5b82518660208202830111600160201b821117156125af57600080fd5b82525081516020918201928201910280838360005b838110156125dc5781810151838201526020016125c4565b5050505090500160405260200180516040519392919084600160201b82111561260457600080fd5b90830190602082018581111561261957600080fd5b82518660208202830111600160201b8211171561263557600080fd5b82525081516020918201928201910280838360005b8381101561266257818101518382015260200161264a565b50505050905001604052505050915091506000806126808484612b64565b9150915060005b82518110156127565782818151811061269c57fe5b60200260200101516001600160a01b031663095ea7b3600160009054906101000a90046001600160a01b03168484815181106126d457fe5b60200260200101516040518363ffffffff1660e01b815260040180836001600160a01b0316815260200182815260200192505050602060405180830381600087803b15801561272257600080fd5b505af1158015612736573d6000803e3d6000fd5b505050506040513d602081101561274c57600080fd5b5050600101612687565b50600154604051635e2a002360e01b8152604481018890526060600482019081528451606483015284516000936001600160a01b031692635e2a002392879287928d929182916024810191608490910190602080890191028083838e5b838110156127cb5781810151838201526020016127b3565b50505050905001838103825285818151815260200191508051906020019060200280838360005b8381101561280a5781810151838201526020016127f2565b5050505090500195505050505050602060405180830381600087803b15801561283257600080fd5b505af1158015612846573d6000803e3d6000fd5b505050506040513d602081101561285c57600080fd5b50516001546040805163a9059cbb60e01b81523360048201526024810184905290519293506001600160a01b039091169163a9059cbb916044808201926020929091908290030181600087803b1580156128b557600080fd5b505af11580156128c9573d6000803e3d6000fd5b505050506040513d60208110156128df57600080fd5b5051612932576040805162461bcd60e51b815260206004820152601860248201527f6661696c656420746f2073656e64206261636b206779726f0000000000000000604482015290519081900360640190fd5b98975050505050505050565b6000546001600160a01b0316331461298b576040805162461bcd60e51b815260206004820181905260248201526000805160206131cf833981519152604482015290519081900360640190fd5b600080546040516001600160a01b03909116907f8be0079c531659141344cd1fd0a4f28419497f9722a3daafe3b4186f6b6457e0908390a3600080546001600160a01b0319169055565b6000546001600160a01b03163314612a22576040805162461bcd60e51b815260206004820181905260248201526000805160206131cf833981519152604482015290519081900360640190fd5b600180546001600160a01b0319166001600160a01b0392909216919091179055565b60015460408051638f7873ed60e01b815290516060926001600160a01b031691638f7873ed916004808301926000929190829003018186803b158015612a8957600080fd5b505afa158015612a9d573d6000803e3d6000fd5b505050506040513d6000823e601f3d908101601f191682016040526020811015612ac657600080fd5b8101908080516040519392919084600160201b821115612ae557600080fd5b908301906020820185811115612afa57600080fd5b82518660208202830111600160201b82111715612b1657600080fd5b82525081516020918201928201910280838360005b83811015612b43578181015183820152602001612b2b565b50505050905001604052505050905090565b6000546001600160a01b031690565b6060806000600160009054906101000a90046001600160a01b03166001600160a01b0316638f7873ed6040518163ffffffff1660e01b815260040160006040518083038186803b158015612bb757600080fd5b505afa158015612bcb573d6000803e3d6000fd5b505050506040513d6000823e601f3d908101601f191682016040526020811015612bf457600080fd5b8101908080516040519392919084600160201b821115612c1357600080fd5b908301906020820185811115612c2857600080fd5b82518660208202830111600160201b82111715612c4457600080fd5b82525081516020918201928201910280838360005b83811015612c71578181015183820152602001612c59565b5050505090500160405250505090506000815167ffffffffffffffff81118015612c9a57600080fd5b50604051908082528060200260200182016040528015612cc4578160200160208202803683370190505b50905060005b8651811015612dbf576000805b8451811015612d6357888381518110612cec57fe5b60200260200101516001600160a01b0316858281518110612d0957fe5b60200260200101516001600160a01b03161415612d5b57878381518110612d2c57fe5b6020026020010151848281518110612d4057fe5b60200260200101818151019150818152505060019150612d63565b600101612cd7565b5080612db6576040805162461bcd60e51b815260206004820152601960248201527f636f756c64206e6f742066696e642076616c696420706f6f6c00000000000000604482015290519081900360640190fd5b50600101612cca565b50909590945092505050565b60025460408051634fb4dc1f60e11b815260048101918252845160448201528451600093849384936001600160a01b0390921692639f69b83e928992899290918291602482019160640190602080880191028083838d5b83811015612e3a578181015183820152602001612e22565b50505050905001838103825284818151815260200191508051906020019060200280838360005b83811015612e79578181015183820152602001612e61565b5050505090500194505050505060006040518083038186803b158015612e9e57600080fd5b505afa158015612eb2573d6000803e3d6000fd5b505050506040513d6000823e601f3d908101601f191682016040908152811015612edb57600080fd5b8101908080516040519392919084600160201b821115612efa57600080fd5b908301906020820185811115612f0f57600080fd5b82518660208202830111600160201b82111715612f2b57600080fd5b82525081516020918201928201910280838360005b83811015612f58578181015183820152602001612f40565b5050505090500160405260200180516040519392919084600160201b821115612f8057600080fd5b908301906020820185811115612f9557600080fd5b82518660208202830111600160201b82111715612fb157600080fd5b82525081516020918201928201910280838360005b83811015612fde578181015183820152602001612fc6565b5050505090500160405250505091509150600080612ffc8484612b64565b60015460405163a3767d0f60e01b8152600a604482018190526060600483019081528551606484015285519597509395506000946001600160a01b039093169363a3767d0f9388938893929182916024810191608490910190602080890191028083838e831561195a578181015183820152602001611942565b60015460408051634f5548bb60e01b815290516060926001600160a01b031691634f5548bb916004808301926000929190829003018186803b158015612a8957600080fd5b6000546001600160a01b03163314613108576040805162461bcd60e51b815260206004820181905260248201526000805160206131cf833981519152604482015290519081900360640190fd5b6001600160a01b03811661314d5760405162461bcd60e51b81526004018080602001828103825260268152602001806131a96026913960400191505060405180910390fd5b600080546040516001600160a01b03808516939216917f8be0079c531659141344cd1fd0a4f28419497f9722a3daafe3b4186f6b6457e091a3600080546001600160a01b0319166001600160a01b039290921691909117905556fe4f776e61626c653a206e6577206f776e657220697320746865207a65726f20616464726573734f776e61626c653a2063616c6c6572206973206e6f7420746865206f776e65726661696c656420746f207472616e7366657220746f6b656e732066726f6d204779726f46756e6420746f204772796f526f75746572a26469706673582212201f74cfc22a96a21040924b436ab26243a6fe6057be3da0c8b22205e65a65eb3f64736f6c63430007060033",
  "devdoc": {
    "kind": "dev",
    "methods": {
      "owner()": {
        "details": "Returns the address of the current owner."
      },
      "renounceOwnership()": {
        "details": "Leaves the contract without owner. It will not be possible to call `onlyOwner` functions anymore. Can only be called by the current owner. NOTE: Renouncing ownership will leave the contract without an owner, thereby removing any functionality that is only available to the owner."
      },
      "transferOwnership(address)": {
        "details": "Transfers ownership of the contract to a new account (`newOwner`). Can only be called by the current owner."
      }
    },
    "version": 1
  },
  "userdoc": {
    "kind": "user",
    "methods": {},
    "version": 1
  },
  "storageLayout": {
    "storage": [
      {
        "astId": 8721,
        "contract": "contracts/GyroLib.sol:GyroLib",
        "label": "_owner",
        "offset": 0,
        "slot": "0",
        "type": "t_address"
      },
      {
        "astId": 7410,
        "contract": "contracts/GyroLib.sol:GyroLib",
        "label": "fund",
        "offset": 0,
        "slot": "1",
        "type": "t_contract(GyroFundV1)7401"
      },
      {
        "astId": 7412,
        "contract": "contracts/GyroLib.sol:GyroLib",
        "label": "externalTokensRouter",
        "offset": 0,
        "slot": "2",
        "type": "t_contract(BalancerExternalTokenRouter)2250"
      }
    ],
    "types": {
      "t_address": {
        "encoding": "inplace",
        "label": "address",
        "numberOfBytes": "20"
      },
      "t_contract(BalancerExternalTokenRouter)2250": {
        "encoding": "inplace",
        "label": "contract BalancerExternalTokenRouter",
        "numberOfBytes": "20"
      },
      "t_contract(GyroFundV1)7401": {
        "encoding": "inplace",
        "label": "contract GyroFundV1",
        "numberOfBytes": "20"
      }
    }
  }
}