{
  "address": "0x2469FE6C62949Cc9c8DeD71c8adD6c32C2Ed8B2e",
  "abi": [
    {
      "inputs": [
        {
          "internalType": "uint256",
          "name": "_portfolioWeightEpsilon",
          "type": "uint256"
        },
        {
          "internalType": "address",
          "name": "_priceOracleAddress",
          "type": "address"
        },
        {
          "internalType": "address",
          "name": "_routerAddress",
          "type": "address"
        },
        {
          "internalType": "uint256",
          "name": "_memoryParam",
          "type": "uint256"
        }
      ],
      "stateMutability": "nonpayable",
      "type": "constructor"
    },
    {
      "anonymous": false,
      "inputs": [
        {
          "indexed": true,
          "internalType": "address",
          "name": "owner",
          "type": "address"
        },
        {
          "indexed": true,
          "internalType": "address",
          "name": "spender",
          "type": "address"
        },
        {
          "indexed": false,
          "internalType": "uint256",
          "name": "value",
          "type": "uint256"
        }
      ],
      "name": "Approval",
      "type": "event"
    },
    {
      "anonymous": false,
      "inputs": [
        {
          "indexed": false,
          "internalType": "address",
          "name": "minter",
          "type": "address"
        },
        {
          "indexed": false,
          "internalType": "uint256",
          "name": "amount",
          "type": "uint256"
        }
      ],
      "name": "Mint",
      "type": "event"
    },
    {
      "anonymous": false,
      "inputs": [
        {
          "indexed": true,
          "internalType": "address",
          "name": "previousOwner",
          "type": "address"
        },
        {
          "indexed": true,
          "internalType": "address",
          "name": "newOwner",
          "type": "address"
        }
      ],
      "name": "OwnershipTransferred",
      "type": "event"
    },
    {
      "anonymous": false,
      "inputs": [
        {
          "indexed": false,
          "internalType": "address",
          "name": "redeemer",
          "type": "address"
        },
        {
          "indexed": false,
          "internalType": "uint256",
          "name": "amount",
          "type": "uint256"
        }
      ],
      "name": "Redeem",
      "type": "event"
    },
    {
      "anonymous": false,
      "inputs": [
        {
          "indexed": true,
          "internalType": "address",
          "name": "from",
          "type": "address"
        },
        {
          "indexed": true,
          "internalType": "address",
          "name": "to",
          "type": "address"
        },
        {
          "indexed": false,
          "internalType": "uint256",
          "name": "value",
          "type": "uint256"
        }
      ],
      "name": "Transfer",
      "type": "event"
    },
    {
      "inputs": [
        {
          "internalType": "address",
          "name": "_bpoolAddress",
          "type": "address"
        },
        {
          "internalType": "uint256",
          "name": "_initialPoolWeight",
          "type": "uint256"
        }
      ],
      "name": "addPool",
      "outputs": [],
      "stateMutability": "nonpayable",
      "type": "function"
    },
    {
      "inputs": [
        {
          "internalType": "address",
          "name": "tokenAddress",
          "type": "address"
        },
        {
          "internalType": "address",
          "name": "oracleAddress",
          "type": "address"
        },
        {
          "internalType": "bool",
          "name": "isStable",
          "type": "bool"
        }
      ],
      "name": "addToken",
      "outputs": [],
      "stateMutability": "nonpayable",
      "type": "function"
    },
    {
      "inputs": [
        {
          "internalType": "address",
          "name": "owner",
          "type": "address"
        },
        {
          "internalType": "address",
          "name": "spender",
          "type": "address"
        }
      ],
      "name": "allowance",
      "outputs": [
        {
          "internalType": "uint256",
          "name": "",
          "type": "uint256"
        }
      ],
      "stateMutability": "view",
      "type": "function"
    },
    {
      "inputs": [
        {
          "internalType": "address",
          "name": "spender",
          "type": "address"
        },
        {
          "internalType": "uint256",
          "name": "amount",
          "type": "uint256"
        }
      ],
      "name": "approve",
      "outputs": [
        {
          "internalType": "bool",
          "name": "",
          "type": "bool"
        }
      ],
      "stateMutability": "nonpayable",
      "type": "function"
    },
    {
      "inputs": [
        {
          "internalType": "address",
          "name": "account",
          "type": "address"
        }
      ],
      "name": "balanceOf",
      "outputs": [
        {
          "internalType": "uint256",
          "name": "",
          "type": "uint256"
        }
      ],
      "stateMutability": "view",
      "type": "function"
    },
    {
      "inputs": [
        {
          "internalType": "uint256[]",
          "name": "_allUnderlyingPrices",
          "type": "uint256[]"
        }
      ],
      "name": "calculateAllPoolPrices",
      "outputs": [
        {
          "internalType": "uint256[]",
          "name": "",
          "type": "uint256[]"
        }
      ],
      "stateMutability": "view",
      "type": "function"
    },
    {
      "inputs": [],
      "name": "decimals",
      "outputs": [
        {
          "internalType": "uint8",
          "name": "",
          "type": "uint8"
        }
      ],
      "stateMutability": "view",
      "type": "function"
    },
    {
      "inputs": [
        {
          "internalType": "address",
          "name": "spender",
          "type": "address"
        },
        {
          "internalType": "uint256",
          "name": "subtractedValue",
          "type": "uint256"
        }
      ],
      "name": "decreaseAllowance",
      "outputs": [
        {
          "internalType": "bool",
          "name": "",
          "type": "bool"
        }
      ],
      "stateMutability": "nonpayable",
      "type": "function"
    },
    {
      "inputs": [
        {
          "internalType": "uint256",
          "name": "errorCode",
          "type": "uint256"
        }
      ],
      "name": "errorCodeToString",
      "outputs": [
        {
          "internalType": "string",
          "name": "",
          "type": "string"
        }
      ],
      "stateMutability": "pure",
      "type": "function"
    },
    {
      "inputs": [],
      "name": "getAllTokenPrices",
      "outputs": [
        {
          "internalType": "uint256[]",
          "name": "",
          "type": "uint256[]"
        }
      ],
      "stateMutability": "view",
      "type": "function"
    },
    {
      "inputs": [],
      "name": "getReserveValues",
      "outputs": [
        {
          "internalType": "uint256",
          "name": "",
          "type": "uint256"
        },
        {
          "internalType": "address[]",
          "name": "",
          "type": "address[]"
        },
        {
          "internalType": "uint256[]",
          "name": "",
          "type": "uint256[]"
        }
      ],
      "stateMutability": "view",
      "type": "function"
    },
    {
      "inputs": [],
      "name": "getUnderlyingTokenAddresses",
      "outputs": [
        {
          "internalType": "address[]",
          "name": "",
          "type": "address[]"
        }
      ],
      "stateMutability": "view",
      "type": "function"
    },
    {
      "inputs": [],
      "name": "gyroPriceOracle",
      "outputs": [
        {
          "internalType": "contract GyroPriceOracle",
          "name": "",
          "type": "address"
        }
      ],
      "stateMutability": "view",
      "type": "function"
    },
    {
      "inputs": [],
      "name": "gyroRouter",
      "outputs": [
        {
          "internalType": "contract GyroRouter",
          "name": "",
          "type": "address"
        }
      ],
      "stateMutability": "view",
      "type": "function"
    },
    {
      "inputs": [
        {
          "internalType": "address",
          "name": "spender",
          "type": "address"
        },
        {
          "internalType": "uint256",
          "name": "addedValue",
          "type": "uint256"
        }
      ],
      "name": "increaseAllowance",
      "outputs": [
        {
          "internalType": "bool",
          "name": "",
          "type": "bool"
        }
      ],
      "stateMutability": "nonpayable",
      "type": "function"
    },
    {
      "inputs": [],
      "name": "initializeOwner",
      "outputs": [],
      "stateMutability": "nonpayable",
      "type": "function"
    },
    {
      "inputs": [
        {
          "internalType": "address[]",
          "name": "_BPTokensIn",
          "type": "address[]"
        },
        {
          "internalType": "uint256[]",
          "name": "_amountsIn",
          "type": "uint256[]"
        },
        {
          "internalType": "uint256",
          "name": "_minGyroMinted",
          "type": "uint256"
        }
      ],
      "name": "mint",
      "outputs": [
        {
          "internalType": "uint256",
          "name": "amountToMint",
          "type": "uint256"
        }
      ],
      "stateMutability": "nonpayable",
      "type": "function"
    },
    {
      "inputs": [
        {
          "internalType": "address[]",
          "name": "_BPTokensIn",
          "type": "address[]"
        },
        {
          "internalType": "uint256[]",
          "name": "_amountsIn",
          "type": "uint256[]"
        },
        {
          "internalType": "uint256",
          "name": "_minGyroMinted",
          "type": "uint256"
        }
      ],
      "name": "mintChecksPass",
      "outputs": [
        {
          "internalType": "uint256",
          "name": "errorCode",
          "type": "uint256"
        },
        {
          "internalType": "uint256",
          "name": "estimatedMint",
          "type": "uint256"
        }
      ],
      "stateMutability": "view",
      "type": "function"
    },
    {
      "inputs": [
        {
          "internalType": "address[]",
          "name": "_BPTokensIn",
          "type": "address[]"
        },
        {
          "internalType": "uint256[]",
          "name": "_amountsIn",
          "type": "uint256[]"
        }
      ],
      "name": "mintTest",
      "outputs": [
        {
          "internalType": "uint256",
          "name": "",
          "type": "uint256"
        }
      ],
      "stateMutability": "nonpayable",
      "type": "function"
    },
    {
      "inputs": [],
      "name": "name",
      "outputs": [
        {
          "internalType": "string",
          "name": "",
          "type": "string"
        }
      ],
      "stateMutability": "view",
      "type": "function"
    },
    {
      "inputs": [],
      "name": "owner",
      "outputs": [
        {
          "internalType": "address",
          "name": "",
          "type": "address"
        }
      ],
      "stateMutability": "view",
      "type": "function"
    },
    {
      "inputs": [],
      "name": "poolAddresses",
      "outputs": [
        {
          "internalType": "address[]",
          "name": "",
          "type": "address[]"
        }
      ],
      "stateMutability": "view",
      "type": "function"
    },
    {
      "inputs": [
        {
          "internalType": "uint256",
          "name": "",
          "type": "uint256"
        }
      ],
      "name": "poolProperties",
      "outputs": [
        {
          "internalType": "address",
          "name": "poolAddress",
          "type": "address"
        },
        {
          "internalType": "uint256",
          "name": "initialPoolWeight",
          "type": "uint256"
        },
        {
          "internalType": "uint256",
          "name": "initialPoolPrice",
          "type": "uint256"
        }
      ],
      "stateMutability": "view",
      "type": "function"
    },
    {
      "inputs": [],
      "name": "portfolioWeightEpsilon",
      "outputs": [
        {
          "internalType": "uint256",
          "name": "",
          "type": "uint256"
        }
      ],
      "stateMutability": "view",
      "type": "function"
    },
    {
      "inputs": [],
      "name": "priceOracle",
      "outputs": [
        {
          "internalType": "contract PriceOracle",
          "name": "",
          "type": "address"
        }
      ],
      "stateMutability": "view",
      "type": "function"
    },
    {
      "inputs": [
        {
          "internalType": "address[]",
          "name": "_BPTokensOut",
          "type": "address[]"
        },
        {
          "internalType": "uint256[]",
          "name": "_amountsOut",
          "type": "uint256[]"
        },
        {
          "internalType": "uint256",
          "name": "_maxGyroRedeemed",
          "type": "uint256"
        }
      ],
      "name": "redeem",
      "outputs": [
        {
          "internalType": "uint256",
          "name": "_gyroRedeemed",
          "type": "uint256"
        }
      ],
      "stateMutability": "nonpayable",
      "type": "function"
    },
    {
      "inputs": [
        {
          "internalType": "address[]",
          "name": "_BPTokensOut",
          "type": "address[]"
        },
        {
          "internalType": "uint256[]",
          "name": "_amountsOut",
          "type": "uint256[]"
        },
        {
          "internalType": "uint256",
          "name": "_maxGyroRedeemed",
          "type": "uint256"
        }
      ],
      "name": "redeemChecksPass",
      "outputs": [
        {
          "internalType": "uint256",
          "name": "errorCode",
          "type": "uint256"
        },
        {
          "internalType": "uint256",
          "name": "estimatedAmount",
          "type": "uint256"
        }
      ],
      "stateMutability": "view",
      "type": "function"
    },
    {
      "inputs": [],
      "name": "renounceOwnership",
      "outputs": [],
      "stateMutability": "nonpayable",
      "type": "function"
    },
    {
      "inputs": [],
      "name": "symbol",
      "outputs": [
        {
          "internalType": "string",
          "name": "",
          "type": "string"
        }
      ],
      "stateMutability": "view",
      "type": "function"
    },
    {
      "inputs": [],
      "name": "totalSupply",
      "outputs": [
        {
          "internalType": "uint256",
          "name": "",
          "type": "uint256"
        }
      ],
      "stateMutability": "view",
      "type": "function"
    },
    {
      "inputs": [
        {
          "internalType": "address",
          "name": "recipient",
          "type": "address"
        },
        {
          "internalType": "uint256",
          "name": "amount",
          "type": "uint256"
        }
      ],
      "name": "transfer",
      "outputs": [
        {
          "internalType": "bool",
          "name": "",
          "type": "bool"
        }
      ],
      "stateMutability": "nonpayable",
      "type": "function"
    },
    {
      "inputs": [
        {
          "internalType": "address",
          "name": "sender",
          "type": "address"
        },
        {
          "internalType": "address",
          "name": "recipient",
          "type": "address"
        },
        {
          "internalType": "uint256",
          "name": "amount",
          "type": "uint256"
        }
      ],
      "name": "transferFrom",
      "outputs": [
        {
          "internalType": "bool",
          "name": "",
          "type": "bool"
        }
      ],
      "stateMutability": "nonpayable",
      "type": "function"
    },
    {
      "inputs": [
        {
          "internalType": "address",
          "name": "newOwner",
          "type": "address"
        }
      ],
      "name": "transferOwnership",
      "outputs": [],
      "stateMutability": "nonpayable",
      "type": "function"
    }
  ],
  "transactionHash": "0xf3ae6e9d5ccf24fc34209f5695422044d7c782a0234878a1003b64af24114a2d",
  "args": [
    "100000000000000000",
    "0xf955Ff8de5955fd87C3138b817f59F66662A94c5",
    "0x9a7892efF942Bcd888E6D41B1abF9D5b39f3C713",
    "999993123563518195"
  ],
  "solcInputHash": "b9c1c371959ae948f7febc3c74d2616b",
  "bytecode": "0x60806040523480156200001157600080fd5b506040516200510e3803806200510e833981810160405260808110156200003757600080fd5b50805160208083015160408085015160609095015181518083018352600b81526a23bcb937902237b63630b960a91b81860190815283518085019094526004808552635553446760e01b9685019690965281519697949694959294919392620000a3929091906200011a565b508051620000b99060059060208401906200011a565b505060068054601260ff199091168117610100600160a81b0319166101006001600160a01b039788160217909155600780546001600160a01b031916949095169390931790935543600f5560006010819055601155905550600e55620001c6565b828054600181600116156101000203166002900490600052602060002090601f0160209004810192826200015257600085556200019d565b82601f106200016d57805160ff19168380011785556200019d565b828001600101855582156200019d579182015b828111156200019d57825182559160200191906001019062000180565b50620001ab929150620001af565b5090565b5b80821115620001ab5760008155600101620001b0565b614f3880620001d66000396000f3fe608060405234801561001057600080fd5b50600436106101fb5760003560e01c806370a082311161011a578063a652db1f116100ad578063dd62ed3e1161007c578063dd62ed3e14610b84578063e858a4d414610bb2578063ec6756dc14610c53578063ef1c69a214610c70578063f2fde38b14610ca8576101fb565b8063a652db1f146109e6578063a9059cbb14610a2b578063af1a153114610a57578063be48b5e414610b7c576101fb565b80638f7873ed116100e95780638f7873ed1461088557806395d89b411461088d578063a3767d0f14610895578063a457c2d7146109ba576101fb565b806370a082311461072c578063715018a6146107525780637a61edf41461075a5780638da5cb5b1461087d576101fb565b806339509351116101925780635e2a0023116101615780635e2a0023146104195780635f53837f1461053e578063639431e81461054657806367691bf3146105ee576101fb565b806339509351146103d55780633c1cd0da146104015780634f5548bb1461040957806355af8e1814610411576101fb565b806323b872dd116101ce57806323b872dd1461032f5780632630c12f14610365578063313ce5671461038957806332a9caba146103a7576101fb565b806306fdde0314610200578063095ea7b31461027d57806318160ddd146102bd5780631b23fcb0146102d7575b600080fd5b610208610cce565b6040805160208082528351818301528351919283929083019185019080838360005b8381101561024257818101518382015260200161022a565b50505050905090810190601f16801561026f5780820380516001836020036101000a031916815260200191505b509250505060405180910390f35b6102a96004803603604081101561029357600080fd5b506001600160a01b038135169060200135610d64565b604080519115158252519081900360200190f35b6102c5610d82565b60408051918252519081900360200190f35b6102df610d88565b60408051602080825283518183015283519192839290830191858101910280838360005b8381101561031b578181015183820152602001610303565b505050509050019250505060405180910390f35b6102a96004803603606081101561034557600080fd5b506001600160a01b03813581169160208101359091169060400135610f0b565b61036d610f92565b604080516001600160a01b039092168252519081900360200190f35b610391610fa1565b6040805160ff9092168252519081900360200190f35b6103d3600480360360408110156103bd57600080fd5b506001600160a01b038135169060200135610faa565b005b6102a9600480360360408110156103eb57600080fd5b506001600160a01b0381351690602001356114fd565b6102c561154b565b6102df611551565b61036d611600565b6102c56004803603606081101561042f57600080fd5b810190602081018135600160201b81111561044957600080fd5b82018360208201111561045b57600080fd5b803590602001918460208302840111600160201b8311171561047c57600080fd5b9190808060200260200160405190810160405280939291908181526020018383602002808284376000920191909152509295949360208101935035915050600160201b8111156104cb57600080fd5b8201836020820111156104dd57600080fd5b803590602001918460208302840111600160201b831117156104fe57600080fd5b9190808060200260200160405190810160405280939291908181526020018383602002808284376000920191909152509295505091359250611614915050565b6103d361184b565b61054e6118bd565b604051808481526020018060200180602001838103835285818151815260200191508051906020019060200280838360005b83811015610598578181015183820152602001610580565b50505050905001838103825284818151815260200191508051906020019060200280838360005b838110156105d75781810151838201526020016105bf565b505050509050019550505050505060405180910390f35b6107136004803603606081101561060457600080fd5b810190602081018135600160201b81111561061e57600080fd5b82018360208201111561063057600080fd5b803590602001918460208302840111600160201b8311171561065157600080fd5b9190808060200260200160405190810160405280939291908181526020018383602002808284376000920191909152509295949360208101935035915050600160201b8111156106a057600080fd5b8201836020820111156106b257600080fd5b803590602001918460208302840111600160201b831117156106d357600080fd5b9190808060200260200160405190810160405280939291908181526020018383602002808284376000920191909152509295505091359250611a7e915050565b6040805192835260208301919091528051918290030190f35b6102c56004803603602081101561074257600080fd5b50356001600160a01b0316611aa2565b6103d3611ac1565b6102c56004803603604081101561077057600080fd5b810190602081018135600160201b81111561078a57600080fd5b82018360208201111561079c57600080fd5b803590602001918460208302840111600160201b831117156107bd57600080fd5b9190808060200260200160405190810160405280939291908181526020018383602002808284376000920191909152509295949360208101935035915050600160201b81111561080c57600080fd5b82018360208201111561081e57600080fd5b803590602001918460208302840111600160201b8311171561083f57600080fd5b919080806020026020016040519081016040528093929190818152602001838360200280828437600092019190915250929550611b58945050505050565b61036d611dbe565b6102df611dcd565b610208611e7d565b610713600480360360608110156108ab57600080fd5b810190602081018135600160201b8111156108c557600080fd5b8201836020820111156108d757600080fd5b803590602001918460208302840111600160201b831117156108f857600080fd5b9190808060200260200160405190810160405280939291908181526020018383602002808284376000920191909152509295949360208101935035915050600160201b81111561094757600080fd5b82018360208201111561095957600080fd5b803590602001918460208302840111600160201b8311171561097a57600080fd5b9190808060200260200160405190810160405280939291908181526020018383602002808284376000920191909152509295505091359250611ede915050565b6102a9600480360360408110156109d057600080fd5b506001600160a01b038135169060200135611eef565b610a03600480360360208110156109fc57600080fd5b5035611f57565b604080516001600160a01b039094168452602084019290925282820152519081900360600190f35b6102a960048036036040811015610a4157600080fd5b506001600160a01b038135169060200135611f94565b6102c560048036036060811015610a6d57600080fd5b810190602081018135600160201b811115610a8757600080fd5b820183602082011115610a9957600080fd5b803590602001918460208302840111600160201b83111715610aba57600080fd5b9190808060200260200160405190810160405280939291908181526020018383602002808284376000920191909152509295949360208101935035915050600160201b811115610b0957600080fd5b820183602082011115610b1b57600080fd5b803590602001918460208302840111600160201b83111715610b3c57600080fd5b9190808060200260200160405190810160405280939291908181526020018383602002808284376000920191909152509295505091359250611fa8915050565b61036d6123d2565b6102c560048036036040811015610b9a57600080fd5b506001600160a01b03813581169160200135166123e1565b6102df60048036036020811015610bc857600080fd5b810190602081018135600160201b811115610be257600080fd5b820183602082011115610bf457600080fd5b803590602001918460208302840111600160201b83111715610c1557600080fd5b91908080602002602001604051908101604052809392919081815260200183836020028082843760009201919091525092955061240c945050505050565b61020860048036036020811015610c6957600080fd5b5035612787565b6103d360048036036060811015610c8657600080fd5b506001600160a01b03813581169160208101359091169060400135151561282f565b6103d360048036036020811015610cbe57600080fd5b50356001600160a01b0316612b35565b60048054604080516020601f6002600019610100600188161502019095169490940493840181900481028201810190925282815260609390929091830182828015610d5a5780601f10610d2f57610100808354040283529160200191610d5a565b820191906000526020600020905b815481529060010190602001808311610d3d57829003601f168201915b5050505050905090565b6000610d78610d71612c22565b8484612c26565b5060015b92915050565b60035490565b600d546060906000906001600160401b0381118015610da657600080fd5b50604051908082528060200260200182016040528015610dd0578160200160208202803683370190505b50905060005b600d54811015610f05576000600d8281548110610def57fe5b6000918252602082200154600d80546001600160a01b039092169350600a9183919086908110610e1b57fe5b60009182526020808320909101546001600160a01b031683528281019390935260409182019020600190810180548351601f6002600019958416156101000295909501909216939093049081018590048502830185019093528282529092909190830182828015610ecd5780601f10610ea257610100808354040283529160200191610ecd565b820191906000526020600020905b815481529060010190602001808311610eb057829003601f168201915b505050505090506000610ee08383612d12565b905080858581518110610eef57fe5b6020908102919091010152505050600101610dd6565b50905090565b6000610f18848484612e00565b610f8884610f24612c22565b610f8385604051806060016040528060288152602001614dc3602891396001600160a01b038a16600090815260026020526040812090610f62612c22565b6001600160a01b031681526020810191909152604001600020549190612f5d565b612c26565b5060019392505050565b6008546001600160a01b031681565b60065460ff1690565b6000546001600160a01b03163314610ff7576040805162461bcd60e51b81526020600482018190526024820152600080516020614deb833981519152604482015290519081900360640190fd5b60005b60095481101561109057826001600160a01b03166009828154811061101b57fe5b60009182526020909120600390910201546001600160a01b03161415611088576040805162461bcd60e51b815260206004820152601860248201527f7468697320706f6f6c20616c7265616479206578697374730000000000000000604482015290519081900360640190fd5b600101610ffa565b506001600160a01b0382166000818152600b6020526040808220805460ff191660011790558051635f1dde9760e11b8152905185939163be3bbd2e9160048083019286929190829003018186803b1580156110ea57600080fd5b505afa1580156110fe573d6000803e3d6000fd5b505050506040513d6000823e601f3d908101601f19168201604052602081101561112757600080fd5b8101908080516040519392919084600160201b82111561114657600080fd5b90830190602082018581111561115b57600080fd5b82518660208202830111600160201b8211171561117757600080fd5b82525081516020918201928201910280838360005b838110156111a457818101518382015260200161118c565b505050509050016040525050509050600081516001600160401b03811180156111cc57600080fd5b506040519080825280602002602001820160405280156111f6578160200160208202803683370190505b50905060005b825181101561137057600083828151811061121357fe5b602002602001015190506000816001600160a01b03166395d89b416040518163ffffffff1660e01b815260040160006040518083038186803b15801561125857600080fd5b505afa15801561126c573d6000803e3d6000fd5b505050506040513d6000823e601f3d908101601f19168201604052602081101561129557600080fd5b8101908080516040519392919084600160201b8211156112b457600080fd5b9083019060208201858111156112c957600080fd5b8251600160201b8111828201881017156112e257600080fd5b82525081516020918201929091019080838360005b8381101561130f5781810151838201526020016112f7565b50505050905090810190601f16801561133c5780820380516001836020036101000a031916815260200191505b50604052505050905061134f8282612d12565b84848151811061135b57fe5b602090810291909101015250506001016111fc565b506006546040805163305cbde760e01b81526001600160a01b03888116600483019081526024830193845285516044840152855160009561010090049092169363305cbde7938b938893929160640190602080860191028083838c5b838110156113e45781810151838201526020016113cc565b50505050905001935050505060206040518083038186803b15801561140857600080fd5b505afa15801561141c573d6000803e3d6000fd5b505050506040513d602081101561143257600080fd5b5051604080516060810182526001600160a01b039889168152602081019788529081019182526009805460018101825560009190915290517f6e1540171b6c0c960b71a7020d9f60077f6af931a8bbf590da0223dacf75c7af600390920291820180546001600160a01b031916919099161790975594517f6e1540171b6c0c960b71a7020d9f60077f6af931a8bbf590da0223dacf75c7b0870155505091517f6e1540171b6c0c960b71a7020d9f60077f6af931a8bbf590da0223dacf75c7b1909301929092555050565b6000610d7861150a612c22565b84610f83856002600061151b612c22565b6001600160a01b03908116825260208083019390935260409182016000908120918c168152925290205490612fb7565b600e5481565b600d546060906000906001600160401b038111801561156f57600080fd5b50604051908082528060200260200182016040528015611599578160200160208202803683370190505b50905060005b600d54811015610f0557600d81815481106115b657fe5b9060005260206000200160009054906101000a90046001600160a01b03168282815181106115e057fe5b6001600160a01b039092166020928302919091019091015260010161159f565b60065461010090046001600160a01b031681565b600080600080611625878787613018565b9250925092508260001461163884612787565b906116c15760405162461bcd60e51b81526004018080602001828103825283818151815260200191508051906020019080838360005b8381101561168657818101518382015260200161166e565b50505050905090810190601f1680156116b35780820380516001836020036101000a031916815260200191505b509250505060405180910390fd5b5060005b87518110156117d15760008882815181106116dc57fe5b60200260200101516001600160a01b03166323b872dd33308b868151811061170057fe5b60200260200101516040518463ffffffff1660e01b815260040180846001600160a01b03168152602001836001600160a01b031681526020018281526020019350505050602060405180830381600087803b15801561175e57600080fd5b505af1158015611772573d6000803e3d6000fd5b505050506040513d602081101561178857600080fd5b50519050806117c85760405162461bcd60e51b815260040180806020018281038252602a815260200180614ccd602a913960400191505060405180910390fd5b506001016116c5565b508160e0015193506117e333856132b3565b611806816000015182602001518460e001516000856040015186606001516133a5565b604080513381526020810186905281517f0f6798a560793a54c3bcfe86a93cde1e73087d944c0ea20544137d4121396885929181900390910190a15050509392505050565b6000546001600160a01b0316156118a9576040805162461bcd60e51b815260206004820152601960248201527f6f776e657220616c726561647920696e697469616c697a656400000000000000604482015290519081900360640190fd5b600080546001600160a01b03191633179055565b600060608060006009805490506001600160401b03811180156118df57600080fd5b50604051908082528060200260200182016040528015611909578160200160208202803683370190505b506009549091506000906001600160401b038111801561192857600080fd5b50604051908082528060200260200182016040528015611952578160200160208202803683370190505b50905060005b6009548110156119ba576009818154811061196f57fe5b600091825260209091206003909102015483516001600160a01b039091169084908390811061199a57fe5b6001600160a01b0390921660209283029190910190910152600101611958565b506000806119ca84846000613018565b5091509150600084516001600160401b03811180156119e857600080fd5b50604051908082528060200260200182016040528015611a12578160200160208202803683370190505b50905060005b8551811015611a6e57611a4f8360a0015184602001518381518110611a3957fe5b60200260200101516133e390919063ffffffff16565b828281518110611a5b57fe5b6020908102919091010152600101611a18565b5091965092945092505050909192565b600080600080611a8f8787876133f1565b5060e00151909890975095505050505050565b6001600160a01b0381166000908152600160205260409020545b919050565b6000546001600160a01b03163314611b0e576040805162461bcd60e51b81526020600482018190526024820152600080516020614deb833981519152604482015290519081900360640190fd5b600080546040516001600160a01b03909116907f8be0079c531659141344cd1fd0a4f28419497f9722a3daafe3b4186f6b6457e0908390a3600080546001600160a01b0319169055565b600080546001600160a01b03163314611ba6576040805162461bcd60e51b81526020600482018190526024820152600080516020614deb833981519152604482015290519081900360640190fd5b60005b8351811015611cb5576000848281518110611bc057fe5b60200260200101516001600160a01b03166323b872dd3330878681518110611be457fe5b60200260200101516040518463ffffffff1660e01b815260040180846001600160a01b03168152602001836001600160a01b031681526020018281526020019350505050602060405180830381600087803b158015611c4257600080fd5b505af1158015611c56573d6000803e3d6000fd5b505050506040513d6020811015611c6c57600080fd5b5051905080611cac5760405162461bcd60e51b815260040180806020018281038252602a815260200180614ccd602a913960400191505060405180910390fd5b50600101611ba9565b506000611cc0610d88565b90506000611ccd8261240c565b90506000805b8651811015611d1357611d09611d02848381518110611cee57fe5b6020026020010151888481518110611a3957fe5b8390612fb7565b9150600101611cd3565b5060065460408051634999a2ef60e01b815260048101849052600060248201819052670de0b6b3a764000060448301529151919261010090046001600160a01b031691634999a2ef91606480820192602092909190829003018186803b158015611d7c57600080fd5b505afa158015611d90573d6000803e3d6000fd5b505050506040513d6020811015611da657600080fd5b50519050611db433826132b3565b9695505050505050565b6000546001600160a01b031690565b6009546060906000906001600160401b0381118015611deb57600080fd5b50604051908082528060200260200182016040528015611e15578160200160208202803683370190505b50905060005b600954811015610f055760098181548110611e3257fe5b600091825260209091206003909102015482516001600160a01b0390911690839083908110611e5d57fe5b6001600160a01b0390921660209283029190910190910152600101611e1b565b60058054604080516020601f6002600019610100600188161502019095169490940493840181900481028201810190925282815260609390929091830182828015610d5a5780601f10610d2f57610100808354040283529160200191610d5a565b600080600080611a8f878787613018565b6000610d78611efc612c22565b84610f8385604051806060016040528060258152602001614ede6025913960026000611f26612c22565b6001600160a01b03908116825260208083019390935260409182016000908120918d16815292529020549190612f5d565b60098181548110611f6757600080fd5b60009182526020909120600390910201805460018201546002909201546001600160a01b03909116925083565b6000610d78611fa1612c22565b8484612e00565b600080600080611fb98787876133f1565b92509250925082600014611fcc84612787565b906120185760405162461bcd60e51b815260206004820181815283516024840152835190928392604490910191908501908083836000831561168657818101518382015260200161166e565b508160e00151935061202a3385613680565b60075460408051636f36b6cb60e11b8152600481019182528951604482015289516001600160a01b039093169263de6d6d96928b928b92829160248101916064909101906020808801910280838360005b8381101561209357818101518382015260200161207b565b50505050905001838103825284818151815260200191508051906020019060200280838360005b838110156120d25781810151838201526020016120ba565b50505050905001945050505050600060405180830381600087803b1580156120f957600080fd5b505af115801561210d573d6000803e3d6000fd5b505050506040513d6000823e601f3d908101601f19168201604090815281101561213657600080fd5b8101908080516040519392919084600160201b82111561215557600080fd5b90830190602082018581111561216a57600080fd5b82518660208202830111600160201b8211171561218657600080fd5b82525081516020918201928201910280838360005b838110156121b357818101518382015260200161219b565b5050505090500160405260200180516040519392919084600160201b8211156121db57600080fd5b9083019060208201858111156121f057600080fd5b82518660208202830111600160201b8211171561220c57600080fd5b82525081516020918201928201910280838360005b83811015612239578181015183820152602001612221565b50505050905001604052505050505060005b865181101561236d57600088828151811061226257fe5b60200260200101516001600160a01b03166323b872dd30338b868151811061228657fe5b60200260200101516040518463ffffffff1660e01b815260040180846001600160a01b03168152602001836001600160a01b031681526020018281526020019350505050602060405180830381600087803b1580156122e457600080fd5b505af11580156122f8573d6000803e3d6000fd5b505050506040513d602081101561230e57600080fd5b5051905080612364576040805162461bcd60e51b815260206004820152601960248201527f6661696c656420746f207472616e7366657220746f6b656e7300000000000000604482015290519081900360640190fd5b5060010161224b565b50604080513381526020810186905281517f222838db2794d11532d940e8dec38ae307ed0b63cd97c233322e221f998767a6929181900390910190a16123c881600001518260200151600087856040015186606001516133a5565b5050509392505050565b6007546001600160a01b031681565b6001600160a01b03918216600090815260026020908152604080832093909416825291909152205490565b6009546060906000906001600160401b038111801561242a57600080fd5b50604051908082528060200260200182016040528015612454578160200160208202803683370190505b50905060005b6009548110156127805760006009828154811061247357fe5b6000918252602082206003909102015460408051635f1dde9760e11b815290516001600160a01b039092169350839163be3bbd2e916004808201928692909190829003018186803b1580156124c757600080fd5b505afa1580156124db573d6000803e3d6000fd5b505050506040513d6000823e601f3d908101601f19168201604052602081101561250457600080fd5b8101908080516040519392919084600160201b82111561252357600080fd5b90830190602082018581111561253857600080fd5b82518660208202830111600160201b8211171561255457600080fd5b82525081516020918201928201910280838360005b83811015612581578181015183820152602001612569565b5050505090500160405250505090506000600d805490506001600160401b03811180156125ad57600080fd5b506040519080825280602002602001820160405280156125d7578160200160208202803683370190505b50905060005b82518110156126565787600a60008584815181106125f757fe5b6020908102919091018101516001600160a01b0316825281019190915260400160002060020154815161ffff90911690811061262f57fe5b602002602001015182828151811061264357fe5b60209081029190910101526001016125dd565b50600660019054906101000a90046001600160a01b03166001600160a01b031663305cbde76009868154811061268857fe5b906000526020600020906003020160000160009054906101000a90046001600160a01b0316836040518363ffffffff1660e01b815260040180836001600160a01b0316815260200180602001828103825283818151815260200191508051906020019060200280838360005b8381101561270c5781810151838201526020016126f4565b50505050905001935050505060206040518083038186803b15801561273057600080fd5b505afa158015612744573d6000803e3d6000fd5b505050506040513d602081101561275a57600080fd5b5051855186908690811061276a57fe5b602090810291909101015250505060010161245a565b5092915050565b606060018216156127cc575060408051808201909152601d81527f4552525f574f554c445f554e42414c414e43455f4759524f53434f50450000006020820152611abc565b600282161561280757506040805180820190915260158152744552525f544f4f5f4d5543485f534c49505041474560581b6020820152611abc565b5060408051808201909152600b81526a22a9292faaa725a727aba760a91b6020820152611abc565b6000546001600160a01b0316331461287c576040805162461bcd60e51b81526020600482018190526024820152600080516020614deb833981519152604482015290519081900360640190fd5b60005b600d5481101561291057836001600160a01b0316600d82815481106128a057fe5b6000918252602090912001546001600160a01b03161415612908576040805162461bcd60e51b815260206004820152601960248201527f7468697320746f6b656e20616c72656164792065786973747300000000000000604482015290519081900360640190fd5b60010161287f565b506001600160a01b0383166000818152600c6020526040808220805460ff191685151517905580516395d89b4160e01b815290519192916395d89b41916004808201928692909190829003018186803b15801561296c57600080fd5b505afa158015612980573d6000803e3d6000fd5b505050506040513d6000823e601f3d908101601f1916820160405260208110156129a957600080fd5b8101908080516040519392919084600160201b8211156129c857600080fd5b9083019060208201858111156129dd57600080fd5b8251600160201b8111828201881017156129f657600080fd5b82525081516020918201929091019080838360005b83811015612a23578181015183820152602001612a0b565b50505050905090810190601f168015612a505780820380516001836020036101000a031916815260200191505b506060810160409081526001600160a01b0389811683526020808401888152600d5461ffff16848601528c83166000908152600a835293909320845181546001600160a01b0319169316929092178255915180519798509296909550612abf9450600186019350910190614b57565b50604091909101516002909101805461ffff191661ffff9092169190911790555050600d80546001810182556000919091527fd7b6990105719101dabeb77144f2a3385c8033acd3af97e9423a695e81ad1eb50180546001600160a01b0319166001600160a01b03939093169290921790915550565b6000546001600160a01b03163314612b82576040805162461bcd60e51b81526020600482018190526024820152600080516020614deb833981519152604482015290519081900360640190fd5b6001600160a01b038116612bc75760405162461bcd60e51b8152600401808060200182810382526026815260200180614cf76026913960400191505060405180910390fd5b600080546040516001600160a01b03808516939216917f8be0079c531659141344cd1fd0a4f28419497f9722a3daafe3b4186f6b6457e091a3600080546001600160a01b0319166001600160a01b0392909216919091179055565b3390565b6001600160a01b038316612c6b5760405162461bcd60e51b8152600401808060200182810382526024815260200180614e516024913960400191505060405180910390fd5b6001600160a01b038216612cb05760405162461bcd60e51b8152600401808060200182810382526022815260200180614d1d6022913960400191505060405180910390fd5b6001600160a01b03808416600081815260026020908152604080832094871680845294825291829020859055815185815291517f8c5be1e5ebec7d5bd14f71427d1e84f3dd0314c0f7b2291e5b200ac8c7c3b9259281900390910190a3505050565b6001600160a01b038083166000908152600a6020908152604080832054905163524f388960e01b8152600481018381528651602483015286519495929092169363524f38899387939283926044909101918501908083838b5b83811015612d83578181015183820152602001612d6b565b50505050905090810190601f168015612db05780820380516001836020036101000a031916815260200191505b509250505060206040518083038186803b158015612dcd57600080fd5b505afa158015612de1573d6000803e3d6000fd5b505050506040513d6020811015612df757600080fd5b50519392505050565b6001600160a01b038316612e455760405162461bcd60e51b8152600401808060200182810382526025815260200180614e2c6025913960400191505060405180910390fd5b6001600160a01b038216612e8a5760405162461bcd60e51b8152600401808060200182810382526023815260200180614c886023913960400191505060405180910390fd5b612e9583838361377c565b612ed281604051806060016040528060268152602001614d3f602691396001600160a01b0386166000908152600160205260409020549190612f5d565b6001600160a01b038085166000908152600160205260408082209390935590841681522054612f019082612fb7565b6001600160a01b0380841660008181526001602090815260409182902094909455805185815290519193928716927fddf252ad1be2c89b69c2b068fc378daa952ba7f163c4a11628f55a4df523b3ef92918290030190a3505050565b60008184841115612faf5760405162461bcd60e51b815260206004820181815283516024840152835190928392604490910191908501908083836000831561168657818101518382015260200161166e565b505050900390565b600082820183811015613011576040805162461bcd60e51b815260206004820152601b60248201527f536166654d6174683a206164646974696f6e206f766572666c6f770000000000604482015290519081900360640190fd5b9392505050565b6000613022614bdf565b61302a614c24565b845186511461306a5760405162461bcd60e51b815260040180806020018281038252603d815260200180614d65603d913960400191505060405180910390fd5b600061307587613781565b9050806130b35760405162461bcd60e51b8152600401808060200182810382526036815260200180614e756036913960400191505060405180910390fd5b60006130bd610d88565b905060006130ca8261240c565b905088516001600160401b03811180156130e357600080fd5b5060405190808252806020026020018201604052801561310d578160200160208202803683370190505b5060c086015260005b89518110156131445760008660c00151828151811061313157fe5b6020908102919091010152600101613116565b50613155818a8a8860c00151613835565b60a08a015260608901526040880181905260208801829052828852600092613186928d92919087908e908890613a3f565b905080613194576001871796505b6000608087018190525b8a518110156131e5576131d86131cd8483815181106131b957fe5b60200260200101518c8481518110611a3957fe5b608089015190612fb7565b608088015260010161319e565b506131ee613b57565b9450600660019054906101000a90046001600160a01b03166001600160a01b0316634999a2ef8760800151876000015189606001516040518463ffffffff1660e01b815260040180848152602001838152602001828152602001935050505060206040518083038186803b15801561326557600080fd5b505afa158015613279573d6000803e3d6000fd5b505050506040513d602081101561328f57600080fd5b505160e087018190528811156132a6576002871796505b5050505093509350939050565b6001600160a01b03821661330e576040805162461bcd60e51b815260206004820152601f60248201527f45524332303a206d696e7420746f20746865207a65726f206164647265737300604482015290519081900360640190fd5b61331a6000838361377c565b6003546133279082612fb7565b6003556001600160a01b03821660009081526001602052604090205461334d9082612fb7565b6001600160a01b03831660008181526001602090815260408083209490945583518581529351929391927fddf252ad1be2c89b69c2b068fc378daa952ba7f163c4a11628f55a4df523b3ef9281900390910190a35050565b83156133b9576133b58685612fb7565b6010555b82156133cd576133c98584612fb7565b6011555b818110156133db57600f8290555b505050505050565b600061301183836012613bea565b60006133fb614bdf565b613403614c24565b84518651146134435760405162461bcd60e51b815260040180806020018281038252603d815260200180614d65603d913960400191505060405180910390fd5b61344c86613781565b6134875760405162461bcd60e51b8152600401808060200182810382526036815260200180614e756036913960400191505060405180910390fd5b85516001600160401b038111801561349e57600080fd5b506040519080825280602002602001820160405280156134c8578160200160208202803683370190505b5060c083015260005b86518110156134ff5760008360c0015182815181106134ec57fe5b60209081029190910101526001016134d1565b50600061350a610d88565b905060006135178261240c565b905061352981898660c001518a613835565b60a089015260608801526040870181905260208701829052828752600092613554928c929190613c0c565b905080613562576001861795505b6000608086018190525b89518110156135b3576135a661359b84838151811061358757fe5b60200260200101518b8481518110611a3957fe5b608088015190612fb7565b608087015260010161356c565b506135bc613b57565b9350600660019054906101000a90046001600160a01b03166001600160a01b0316630882addc8660800151866020015188606001516040518463ffffffff1660e01b815260040180848152602001838152602001828152602001935050505060206040518083038186803b15801561363357600080fd5b505afa158015613647573d6000803e3d6000fd5b505050506040513d602081101561365d57600080fd5b505160e08601819052871015613674576002861795505b50505093509350939050565b6001600160a01b0382166136c55760405162461bcd60e51b8152600401808060200182810382526021815260200180614e0b6021913960400191505060405180910390fd5b6136d18260008361377c565b61370e81604051806060016040528060228152602001614cab602291396001600160a01b0385166000908152600160205260409020549190612f5d565b6001600160a01b0383166000908152600160205260409020556003546137349082613d32565b6003556040805182815290516000916001600160a01b038516917fddf252ad1be2c89b69c2b068fc378daa952ba7f163c4a11628f55a4df523b3ef9181900360200190a35050565b505050565b6009548151600091146137c55760405162461bcd60e51b8152600401808060200182810382526033815260200180614eab6033913960400191505060405180910390fd5b50600160005b60095481101561382f578281815181106137e157fe5b60200260200101516001600160a01b0316600982815481106137ff57fe5b60009182526020909120600390910201546001600160a01b031614613827576000915061382f565b6001016137cb565b50919050565b606080606060008061384689613d74565b9450600088516001600160401b038111801561386157600080fd5b5060405190808252806020026020018201604052801561388b578160200160208202803683370190505b509050600089516001600160401b03811180156138a757600080fd5b506040519080825280602002602001820160405280156138d1578160200160208202803683370190505b50905060005b8a51811015613a015760008b82815181106138ee57fe5b60200260200101519050806001600160a01b03166370a08231306040518263ffffffff1660e01b815260040180826001600160a01b0316815260200191505060206040518083038186803b15801561394557600080fd5b505afa158015613959573d6000803e3d6000fd5b505050506040513d602081101561396f57600080fd5b5051835184908490811061397f57fe5b6020026020010181815250506139e18a838151811061399a57fe5b60200260200101516139db8d85815181106139b157fe5b60200260200101518686815181106139c557fe5b6020026020010151612fb790919063ffffffff16565b90613d32565b8483815181106139ed57fe5b6020908102919091010152506001016138d7565b50613a0c818c614018565b909650925082613a1a578695505b613a2383614114565b9350613a2f828c614018565b5094505050945094509450945094565b6000613a49614c4c565b613a5589898989614150565b60608501526040808501919091529015156020808501918252921515845281518083018352601081526f5f616c6c506f6f6c734865616c74687960801b818501528451835180850190945260168452752fb0b6362837b7b639abb4ba3434b722b839b4b637b760511b948401949094529051613ad39391929061425f565b805115613aee57806020015115613ae957600191505b613b4a565b600080613afb8787614018565b915091508060001415613b0c578891505b826020015115613b2d57613b268b8460400151848c614386565b9350613b47565b613b448b8460400151848c8e8a8960600151614401565b93505b50505b505b979650505050505050565b613b5f614c24565b600f5460608201819052436040830181905260105483526011546020840152601254911015613be657613bb8613bb0613ba984606001518560400151613d3290919063ffffffff16565b83906144ee565b8351906133e3565b825260608201516040830151613be091613bd591613ba991613d32565b6020840151906133e3565b60208301525b5090565b6000613c04600a83900a613bfe86866144fc565b90614555565b949350505050565b6000806000905060008087516001600160401b0381118015613c2d57600080fd5b50604051908082528060200260200182016040528015613c57578160200160208202803683370190505b509050613c65888888614597565b90925090508115613c7d575060019250613c04915050565b6000805b8951811015613d1a57828181518110613c9657fe5b6020026020010151613d12576000613cd48a8381518110613cb357fe5b60200260200101518a8481518110613cc757fe5b60200260200101516146c8565b90506000613cfb898481518110613ce757fe5b60200260200101518b8581518110613cc757fe5b9050808210613d0f57600193505050613d1a565b50505b600101613c81565b5080613d2557600193505b5091979650505050505050565b600061301183836040518060400160405280601e81526020017f536166654d6174683a207375627472616374696f6e206f766572666c6f770000815250612f5d565b6060600082516001600160401b0381118015613d8f57600080fd5b50604051908082528060200260200182016040528015613db9578160200160208202803683370190505b509050600083516001600160401b0381118015613dd557600080fd5b50604051908082528060200260200182016040528015613dff578160200160208202803683370190505b509050600084516001600160401b0381118015613e1b57600080fd5b50604051908082528060200260200182016040528015613e45578160200160208202803683370190505b509050600085516001600160401b0381118015613e6157600080fd5b50604051908082528060200260200182016040528015613e8b578160200160208202803683370190505b50905060005b600954811015613f105760098181548110613ea857fe5b906000526020600020906003020160020154838281518110613ec657fe5b60200260200101818152505060098181548110613edf57fe5b906000526020600020906003020160010154828281518110613efd57fe5b6020908102919091010152600101613e91565b5060005b8651811015613f9257613f73828281518110613f2c57fe5b6020026020010151613f6d858481518110613f4357fe5b60200260200101518a8581518110613f5757fe5b60200260200101516146ec90919063ffffffff16565b906133e3565b848281518110613f7f57fe5b6020908102919091010152600101613f14565b506000805b8751811015613fd057613fc6858281518110613faf57fe5b602002602001015183612fb790919063ffffffff16565b9150600101613f97565b5060005b875181101561400c57613fed82868381518110613f5757fe5b868281518110613ff957fe5b6020908102919091010152600101613fd4565b50939695505050505050565b606060008083516001600160401b038111801561403457600080fd5b5060405190808252806020026020018201604052801561405e578160200160208202803683370190505b5090506000805b865181101561409e57614094611d0287838151811061408057fe5b6020026020010151898481518110611a3957fe5b9150600101614065565b50806140ae57909250905061410d565b60005b8651811015614106576140e7826140e18884815181106140cd57fe5b60200260200101518a8581518110611a3957fe5b906146ec565b8382815181106140f357fe5b60209081029190910101526001016140b1565b5090925090505b9250929050565b60008061411f610d82565b9050801561414057614139614132610d82565b84906146ec565b915061382f565b50670de0b6b3a764000092915050565b60008060608060008089516001600160401b038111801561417057600080fd5b5060405190808252806020026020018201604052801561419a578160200160208202803683370190505b50905060008a516001600160401b03811180156141b657600080fd5b506040519080825280602002602001820160405280156141e0578160200160208202803683370190505b50905060016141f08c8c8c614597565b909450925060005b8c5181101561424e5761420b8a826146fa565b83828151811061421757fe5b91151560209283029190910190910152818015614244575082818151811061423b57fe5b60200260200101515b91506001016141f8565b509b929a5098509650945050505050565b6143808484848460405160240180806020018515158152602001806020018415158152602001838103835287818151815260200191508051906020019080838360005b838110156142ba5781810151838201526020016142a2565b50505050905090810190601f1680156142e75780820380516001836020036101000a031916815260200191505b50838103825285518152855160209182019187019080838360005b8381101561431a578181015183820152602001614302565b50505050905090810190601f1680156143475780820380516001836020036101000a031916815260200191505b5060408051601f198184030181529190526020810180516001600160e01b0316633f8a701d60e01b179052965061490a95505050505050565b50505050565b60006001815b86518110156143ec578581815181106143a157fe5b60200260200101516143e4578381815181106143b957fe5b60200260200101518582815181106143cd57fe5b602002602001015111156143e457600091506143ec565b60010161438c565b5080156143f857600191505b50949350505050565b6000805b88518110156144e05787818151811061441a57fe5b602002602001015161445d5785818151811061443257fe5b602002602001015187828151811061444657fe5b6020026020010151111561445d57600191506144e0565b82818151811061446957fe5b60200260200101516144d857600061449a86838151811061448657fe5b6020026020010151888481518110613cc757fe5b905060006144c18684815181106144ad57fe5b6020026020010151898581518110613cc757fe5b90508082106144d5576001935050506144e0565b50505b600101614405565b5080613b4c57506001613b4c565b60006130118383601261492b565b60008261450b57506000610d7c565b8282028284828161451857fe5b04146130115760405162461bcd60e51b8152600401808060200182810382526021815260200180614da26021913960400191505060405180910390fd5b600061301183836040518060400160405280601a81526020017f536166654d6174683a206469766973696f6e206279207a65726f000000000000815250614955565b60006060600060019050600086516001600160401b03811180156145ba57600080fd5b506040519080825280602002602001820160405280156145e4578160200160208202803683370190505b50905060005b87518110156146bb57600182828151811061460157fe5b602002602001019015159081151581525050614625600e548783815181106139c557fe5b87828151811061463157fe5b6020026020010151106146655760009250600082828151811061465057fe5b911515602092830291909101909101526146b3565b85818151811061467157fe5b602002602001015161468b600e548984815181106139c557fe5b116146b3576000925060008282815181106146a257fe5b911515602092830291909101909101525b6001016145ea565b5090969095509350505050565b60008183106146e2576146db8383613d32565b9050610d7c565b6146db8284613d32565b6000613011838360126149ba565b6000806001905060006009848154811061471057fe5b6000918252602082206003909102015460408051635f1dde9760e11b815290516001600160a01b039092169350839163be3bbd2e916004808201928692909190829003018186803b15801561476457600080fd5b505afa158015614778573d6000803e3d6000fd5b505050506040513d6000823e601f3d908101601f1916820160405260208110156147a157600080fd5b8101908080516040519392919084600160201b8211156147c057600080fd5b9083019060208201858111156147d557600080fd5b82518660208202830111600160201b821117156147f157600080fd5b82525081516020918201928201910280838360005b8381101561481e578181015183820152602001614806565b50505050905001604052505050905060005b81518110156148ff57600c600083838151811061484957fe5b6020908102919091018101516001600160a01b031682528101919091526040016000205460ff16156148f757600087600a600085858151811061488857fe5b6020908102919091018101516001600160a01b0316825281019190915260400160002060020154815161ffff9091169081106148c057fe5b602002602001015190506148e7818484815181106148da57fe5b60200260200101516149ce565b6148f55760009450506148ff565b505b600101614830565b509195945050505050565b80516a636f6e736f6c652e6c6f67602083016000808483855afa5050505050565b6000670de0b6b3a7640000815b848110156143f85761494b828786613bea565b9150600101614938565b600081836149a45760405162461bcd60e51b815260206004820181815283516024840152835190928392604490910191908501908083836000831561168657818101518382015260200161166e565b5060008385816149b057fe5b0495945050505050565b6000613c0483613bfe86600a86900a6144fc565b600080600190506000836001600160a01b031663313ce5676040518163ffffffff1660e01b815260040160206040518083038186803b158015614a1057600080fd5b505afa158015614a24573d6000803e3d6000fd5b505050506040513d6020811015614a3a57600080fd5b505160ff1690506001198101600a90810a6005029082900a8082018710614a645760009350614a72565b8181038711614a7257600093505b6148ff86604051806040016040528060068152602001650d0cac2d8e8d60d31b8152508661377c83838360405160240180846001600160a01b03168152602001806020018315158152602001828103825284818151815260200191508051906020019080838360005b83811015614af3578181015183820152602001614adb565b50505050905090810190601f168015614b205780820380516001836020036101000a031916815260200191505b5060408051601f198184030181529190526020810180516001600160e01b031663cf020fb160e01b179052945061490a9350505050565b828054600181600116156101000203166002900490600052602060002090601f016020900481019282614b8d5760008555614bd3565b82601f10614ba657805160ff1916838001178555614bd3565b82800160010185558215614bd3579182015b82811115614bd3578251825591602001919060010190614bb8565b50613be6929150614c72565b60405180610100016040528060608152602001606081526020016060815260200160008152602001600081526020016000815260200160608152602001600081525090565b6040518060800160405280600081526020016000815260200160008152602001600081525090565b604080516080810182526000808252602082015260609181018290528181019190915290565b5b80821115613be65760008155600101614c7356fe45524332303a207472616e7366657220746f20746865207a65726f206164647265737345524332303a206275726e20616d6f756e7420657863656564732062616c616e63656661696c656420746f207472616e7366657220746f6b656e732c20636865636b20616c6c6f77616e63654f776e61626c653a206e6577206f776e657220697320746865207a65726f206164647265737345524332303a20617070726f766520746f20746865207a65726f206164647265737345524332303a207472616e7366657220616d6f756e7420657863656564732062616c616e6365746f6b656e73496e20616e642076616c756573496e2073686f756c642068617665207468652073616d65206e756d626572206f6620656c656d656e7473536166654d6174683a206d756c7469706c69636174696f6e206f766572666c6f7745524332303a207472616e7366657220616d6f756e74206578636565647320616c6c6f77616e63654f776e61626c653a2063616c6c6572206973206e6f7420746865206f776e657245524332303a206275726e2066726f6d20746865207a65726f206164647265737345524332303a207472616e736665722066726f6d20746865207a65726f206164647265737345524332303a20617070726f76652066726f6d20746865207a65726f2061646472657373496e70757420746f6b656e7320696e2077726f6e67206f72646572206f7220636f6e7461696e7320696e76616c696420746f6b656e736270746f6b656e7320646f206e6f7420686176652074686520636f7272656374206e756d626572206f6620616464726573657345524332303a2064656372656173656420616c6c6f77616e63652062656c6f77207a65726fa2646970667358221220f91300244b05ddd98d28283a8ac8d34bb3f4927f62d3fb05881fd8a3c8584df064736f6c63430007060033",
  "devdoc": {
    "kind": "dev",
    "methods": {
      "allowance(address,address)": {
        "details": "See {IERC20-allowance}."
      },
      "approve(address,uint256)": {
        "details": "See {IERC20-approve}. Requirements: - `spender` cannot be the zero address."
      },
      "balanceOf(address)": {
        "details": "See {IERC20-balanceOf}."
      },
      "decimals()": {
        "details": "Returns the number of decimals used to get its user representation. For example, if `decimals` equals `2`, a balance of `505` tokens should be displayed to a user as `5,05` (`505 / 10 ** 2`). Tokens usually opt for a value of 18, imitating the relationship between Ether and Wei. This is the value {ERC20} uses, unless {_setupDecimals} is called. NOTE: This information is only used for _display_ purposes: it in no way affects any of the arithmetic of the contract, including {IERC20-balanceOf} and {IERC20-transfer}."
      },
      "decreaseAllowance(address,uint256)": {
        "details": "Atomically decreases the allowance granted to `spender` by the caller. This is an alternative to {approve} that can be used as a mitigation for problems described in {IERC20-approve}. Emits an {Approval} event indicating the updated allowance. Requirements: - `spender` cannot be the zero address. - `spender` must have allowance for the caller of at least `subtractedValue`."
      },
      "increaseAllowance(address,uint256)": {
        "details": "Atomically increases the allowance granted to `spender` by the caller. This is an alternative to {approve} that can be used as a mitigation for problems described in {IERC20-approve}. Emits an {Approval} event indicating the updated allowance. Requirements: - `spender` cannot be the zero address."
      },
      "mintChecksPass(address[],uint256[],uint256)": {
        "params": {
          "_BPTokensIn": "addresses of the input balancer pool tokens",
          "_amountsIn": "amounts of the input balancer pool tokens",
          "_minGyroMinted": "mininum amount of gyro to mint"
        },
        "returns": {
          "errorCode": "of 0 is no error happens or a value described in errors.json"
        }
      },
      "name()": {
        "details": "Returns the name of the token."
      },
      "owner()": {
        "details": "Returns the address of the current owner."
      },
      "renounceOwnership()": {
        "details": "Leaves the contract without owner. It will not be possible to call `onlyOwner` functions anymore. Can only be called by the current owner. NOTE: Renouncing ownership will leave the contract without an owner, thereby removing any functionality that is only available to the owner."
      },
      "symbol()": {
        "details": "Returns the symbol of the token, usually a shorter version of the name."
      },
      "totalSupply()": {
        "details": "See {IERC20-totalSupply}."
      },
      "transfer(address,uint256)": {
        "details": "See {IERC20-transfer}. Requirements: - `recipient` cannot be the zero address. - the caller must have a balance of at least `amount`."
      },
      "transferFrom(address,address,uint256)": {
        "details": "See {IERC20-transferFrom}. Emits an {Approval} event indicating the updated allowance. This is not required by the EIP. See the note at the beginning of {ERC20}. Requirements: - `sender` and `recipient` cannot be the zero address. - `sender` must have a balance of at least `amount`. - the caller must have allowance for ``sender``'s tokens of at least `amount`."
      },
      "transferOwnership(address)": {
        "details": "Transfers ownership of the contract to a new account (`newOwner`). Can only be called by the current owner."
      }
    },
    "version": 1
  },
  "userdoc": {
    "kind": "user",
    "methods": {
      "mintChecksPass(address[],uint256[],uint256)": {
        "notice": "Takes in the same parameters as mint and returns whether the mint will succeed or not as well as the estimated mint amount"
      }
    },
    "version": 1
  },
  "storageLayout": {
    "storage": [
      {
        "astId": 8721,
        "contract": "contracts/GyroFund.sol:GyroFundV1",
        "label": "_owner",
        "offset": 0,
        "slot": "0",
        "type": "t_address"
      },
      {
        "astId": 235,
        "contract": "contracts/GyroFund.sol:GyroFundV1",
        "label": "_balances",
        "offset": 0,
        "slot": "1",
        "type": "t_mapping(t_address,t_uint256)"
      },
      {
        "astId": 241,
        "contract": "contracts/GyroFund.sol:GyroFundV1",
        "label": "_allowances",
        "offset": 0,
        "slot": "2",
        "type": "t_mapping(t_address,t_mapping(t_address,t_uint256))"
      },
      {
        "astId": 243,
        "contract": "contracts/GyroFund.sol:GyroFundV1",
        "label": "_totalSupply",
        "offset": 0,
        "slot": "3",
        "type": "t_uint256"
      },
      {
        "astId": 245,
        "contract": "contracts/GyroFund.sol:GyroFundV1",
        "label": "_name",
        "offset": 0,
        "slot": "4",
        "type": "t_string_storage"
      },
      {
        "astId": 247,
        "contract": "contracts/GyroFund.sol:GyroFundV1",
        "label": "_symbol",
        "offset": 0,
        "slot": "5",
        "type": "t_string_storage"
      },
      {
        "astId": 249,
        "contract": "contracts/GyroFund.sol:GyroFundV1",
        "label": "_decimals",
        "offset": 0,
        "slot": "6",
        "type": "t_uint8"
      },
      {
        "astId": 4327,
        "contract": "contracts/GyroFund.sol:GyroFundV1",
        "label": "gyroPriceOracle",
        "offset": 1,
        "slot": "6",
        "type": "t_contract(GyroPriceOracle)8152"
      },
      {
        "astId": 4329,
        "contract": "contracts/GyroFund.sol:GyroFundV1",
        "label": "gyroRouter",
        "offset": 0,
        "slot": "7",
        "type": "t_contract(GyroRouter)8658"
      },
      {
        "astId": 4331,
        "contract": "contracts/GyroFund.sol:GyroFundV1",
        "label": "priceOracle",
        "offset": 0,
        "slot": "8",
        "type": "t_contract(PriceOracle)8119"
      },
      {
        "astId": 4389,
        "contract": "contracts/GyroFund.sol:GyroFundV1",
        "label": "poolProperties",
        "offset": 0,
        "slot": "9",
        "type": "t_array(t_struct(PoolProperties)4345_storage)dyn_storage"
      },
      {
        "astId": 4393,
        "contract": "contracts/GyroFund.sol:GyroFundV1",
        "label": "_tokenAddressToProperties",
        "offset": 0,
        "slot": "10",
        "type": "t_mapping(t_address,t_struct(TokenProperties)4338_storage)"
      },
      {
        "astId": 4397,
        "contract": "contracts/GyroFund.sol:GyroFundV1",
        "label": "_checkPoolIsValid",
        "offset": 0,
        "slot": "11",
        "type": "t_mapping(t_address,t_bool)"
      },
      {
        "astId": 4401,
        "contract": "contracts/GyroFund.sol:GyroFundV1",
        "label": "_checkIsStablecoin",
        "offset": 0,
        "slot": "12",
        "type": "t_mapping(t_address,t_bool)"
      },
      {
        "astId": 4404,
        "contract": "contracts/GyroFund.sol:GyroFundV1",
        "label": "underlyingTokenAddresses",
        "offset": 0,
        "slot": "13",
        "type": "t_array(t_address)dyn_storage"
      },
      {
        "astId": 4406,
        "contract": "contracts/GyroFund.sol:GyroFundV1",
        "label": "portfolioWeightEpsilon",
        "offset": 0,
        "slot": "14",
        "type": "t_uint256"
      },
      {
        "astId": 4408,
        "contract": "contracts/GyroFund.sol:GyroFundV1",
        "label": "lastSeenBlock",
        "offset": 0,
        "slot": "15",
        "type": "t_uint256"
      },
      {
        "astId": 4410,
        "contract": "contracts/GyroFund.sol:GyroFundV1",
        "label": "inflowHistory",
        "offset": 0,
        "slot": "16",
        "type": "t_uint256"
      },
      {
        "astId": 4412,
        "contract": "contracts/GyroFund.sol:GyroFundV1",
        "label": "outflowHistory",
        "offset": 0,
        "slot": "17",
        "type": "t_uint256"
      },
      {
        "astId": 4414,
        "contract": "contracts/GyroFund.sol:GyroFundV1",
        "label": "memoryParam",
        "offset": 0,
        "slot": "18",
        "type": "t_uint256"
      }
    ],
    "types": {
      "t_address": {
        "encoding": "inplace",
        "label": "address",
        "numberOfBytes": "20"
      },
      "t_array(t_address)dyn_storage": {
        "base": "t_address",
        "encoding": "dynamic_array",
        "label": "address[]",
        "numberOfBytes": "32"
      },
      "t_array(t_struct(PoolProperties)4345_storage)dyn_storage": {
        "base": "t_struct(PoolProperties)4345_storage",
        "encoding": "dynamic_array",
        "label": "struct GyroFundV1.PoolProperties[]",
        "numberOfBytes": "32"
      },
      "t_bool": {
        "encoding": "inplace",
        "label": "bool",
        "numberOfBytes": "1"
      },
      "t_contract(GyroPriceOracle)8152": {
        "encoding": "inplace",
        "label": "contract GyroPriceOracle",
        "numberOfBytes": "20"
      },
      "t_contract(GyroRouter)8658": {
        "encoding": "inplace",
        "label": "contract GyroRouter",
        "numberOfBytes": "20"
      },
      "t_contract(PriceOracle)8119": {
        "encoding": "inplace",
        "label": "contract PriceOracle",
        "numberOfBytes": "20"
      },
      "t_mapping(t_address,t_bool)": {
        "encoding": "mapping",
        "key": "t_address",
        "label": "mapping(address => bool)",
        "numberOfBytes": "32",
        "value": "t_bool"
      },
      "t_mapping(t_address,t_mapping(t_address,t_uint256))": {
        "encoding": "mapping",
        "key": "t_address",
        "label": "mapping(address => mapping(address => uint256))",
        "numberOfBytes": "32",
        "value": "t_mapping(t_address,t_uint256)"
      },
      "t_mapping(t_address,t_struct(TokenProperties)4338_storage)": {
        "encoding": "mapping",
        "key": "t_address",
        "label": "mapping(address => struct GyroFundV1.TokenProperties)",
        "numberOfBytes": "32",
        "value": "t_struct(TokenProperties)4338_storage"
      },
      "t_mapping(t_address,t_uint256)": {
        "encoding": "mapping",
        "key": "t_address",
        "label": "mapping(address => uint256)",
        "numberOfBytes": "32",
        "value": "t_uint256"
      },
      "t_string_storage": {
        "encoding": "bytes",
        "label": "string",
        "numberOfBytes": "32"
      },
      "t_struct(PoolProperties)4345_storage": {
        "encoding": "inplace",
        "label": "struct GyroFundV1.PoolProperties",
        "members": [
          {
            "astId": 4340,
            "contract": "contracts/GyroFund.sol:GyroFundV1",
            "label": "poolAddress",
            "offset": 0,
            "slot": "0",
            "type": "t_address"
          },
          {
            "astId": 4342,
            "contract": "contracts/GyroFund.sol:GyroFundV1",
            "label": "initialPoolWeight",
            "offset": 0,
            "slot": "1",
            "type": "t_uint256"
          },
          {
            "astId": 4344,
            "contract": "contracts/GyroFund.sol:GyroFundV1",
            "label": "initialPoolPrice",
            "offset": 0,
            "slot": "2",
            "type": "t_uint256"
          }
        ],
        "numberOfBytes": "96"
      },
      "t_struct(TokenProperties)4338_storage": {
        "encoding": "inplace",
        "label": "struct GyroFundV1.TokenProperties",
        "members": [
          {
            "astId": 4333,
            "contract": "contracts/GyroFund.sol:GyroFundV1",
            "label": "oracleAddress",
            "offset": 0,
            "slot": "0",
            "type": "t_address"
          },
          {
            "astId": 4335,
            "contract": "contracts/GyroFund.sol:GyroFundV1",
            "label": "tokenSymbol",
            "offset": 0,
            "slot": "1",
            "type": "t_string_storage"
          },
          {
            "astId": 4337,
            "contract": "contracts/GyroFund.sol:GyroFundV1",
            "label": "tokenIndex",
            "offset": 0,
            "slot": "2",
            "type": "t_uint16"
          }
        ],
        "numberOfBytes": "96"
      },
      "t_uint16": {
        "encoding": "inplace",
        "label": "uint16",
        "numberOfBytes": "2"
      },
      "t_uint256": {
        "encoding": "inplace",
        "label": "uint256",
        "numberOfBytes": "32"
      },
      "t_uint8": {
        "encoding": "inplace",
        "label": "uint8",
        "numberOfBytes": "1"
      }
    }
  }
}