{
  "address": "0x14babea2Bd40a439Df7b2d805634E02c2171CBE7",
  "abi": [
    {
      "inputs": [
        {
          "internalType": "address[]",
          "name": "_tokenFaucets",
          "type": "address[]"
        }
      ],
      "stateMutability": "nonpayable",
      "type": "constructor"
    },
    {
      "anonymous": false,
      "inputs": [
        {
          "indexed": true,
          "internalType": "address",
          "name": "account",
          "type": "address"
        },
        {
          "indexed": true,
          "internalType": "address",
          "name": "token",
          "type": "address"
        },
        {
          "indexed": true,
          "internalType": "uint256",
          "name": "amount",
          "type": "uint256"
        }
      ],
      "name": "Mint",
      "type": "event"
    },
    {
      "anonymous": false,
      "inputs": [
        {
          "indexed": true,
          "internalType": "address",
          "name": "previousOwner",
          "type": "address"
        },
        {
          "indexed": true,
          "internalType": "address",
          "name": "newOwner",
          "type": "address"
        }
      ],
      "name": "OwnershipTransferred",
      "type": "event"
    },
    {
      "inputs": [],
      "name": "getTokens",
      "outputs": [
        {
          "internalType": "address[]",
          "name": "",
          "type": "address[]"
        }
      ],
      "stateMutability": "view",
      "type": "function"
    },
    {
      "inputs": [],
      "name": "initializeOwner",
      "outputs": [],
      "stateMutability": "nonpayable",
      "type": "function"
    },
    {
      "inputs": [],
      "name": "mint",
      "outputs": [
        {
          "internalType": "bool",
          "name": "",
          "type": "bool"
        }
      ],
      "stateMutability": "nonpayable",
      "type": "function"
    },
    {
      "inputs": [
        {
          "internalType": "address",
          "name": "token",
          "type": "address"
        },
        {
          "internalType": "address",
          "name": "dst",
          "type": "address"
        },
        {
          "internalType": "uint256",
          "name": "amt",
          "type": "uint256"
        }
      ],
      "name": "mintAsOwner",
      "outputs": [
        {
          "internalType": "bool",
          "name": "",
          "type": "bool"
        }
      ],
      "stateMutability": "nonpayable",
      "type": "function"
    },
    {
      "inputs": [],
      "name": "owner",
      "outputs": [
        {
          "internalType": "address",
          "name": "",
          "type": "address"
        }
      ],
      "stateMutability": "view",
      "type": "function"
    },
    {
      "inputs": [],
      "name": "renounceOwnership",
      "outputs": [],
      "stateMutability": "nonpayable",
      "type": "function"
    },
    {
      "inputs": [],
      "name": "restoreAllFaucetsOwnership",
      "outputs": [],
      "stateMutability": "nonpayable",
      "type": "function"
    },
    {
      "inputs": [
        {
          "internalType": "address",
          "name": "token",
          "type": "address"
        }
      ],
      "name": "restoreFaucetOwnership",
      "outputs": [],
      "stateMutability": "nonpayable",
      "type": "function"
    },
    {
      "inputs": [
        {
          "internalType": "uint256",
          "name": "",
          "type": "uint256"
        }
      ],
      "name": "tokenFaucets",
      "outputs": [
        {
          "internalType": "address",
          "name": "",
          "type": "address"
        }
      ],
      "stateMutability": "view",
      "type": "function"
    },
    {
      "inputs": [
        {
          "internalType": "address",
          "name": "newOwner",
          "type": "address"
        }
      ],
      "name": "transferOwnership",
      "outputs": [],
      "stateMutability": "nonpayable",
      "type": "function"
    }
  ],
  "args": [
    [
      "0x741E34176508fEd00aa98908d4CdF366e9808640",
      "0x17D484e98402321551d39CF4A0050B18a343780F",
      "0x8028693F15502721629B2C75fa30ECeDadB3573d",
      "0x23C587972b49d593531E56C8c659A8D22b12EC1E",
      "0x06dd97f996f19A12F372488a1dD39B687AE525D2"
    ]
  ],
  "solcInputHash": "2b7051465becf8c281447fea93bb4a84",
  "bytecode": "0x608060405234801561001057600080fd5b50604051610c5b380380610c5b8339818101604052602081101561003357600080fd5b810190808051604051939291908464010000000082111561005357600080fd5b90830190602082018581111561006857600080fd5b825186602082028301116401000000008211171561008557600080fd5b82525081516020918201928201910280838360005b838110156100b257818101518382015260200161009a565b5050505091909101604052505082516100d492506002915060208401906100db565b5050610155565b828054828255906000526020600020908101928215610130579160200282015b8281111561013057825182546001600160a01b0319166001600160a01b039091161782556020909201916001909101906100fb565b5061013c929150610140565b5090565b5b8082111561013c5760008155600101610141565b610af7806101646000396000f3fe608060405234801561001057600080fd5b506004361061009e5760003560e01c80638218fb57116100665780638218fb571461012d5780638da5cb5b14610135578063aa6ca80814610159578063ed83df24146101b1578063f2fde38b146101ce5761009e565b80631249c58b146100a3578063528002e3146100bf5780635f53837f146100e7578063715018a6146100ef578063790385a5146100f7575b600080fd5b6100ab6101f4565b604080519115158252519081900360200190f35b6100e5600480360360208110156100d557600080fd5b50356001600160a01b03166104c3565b005b6100e5610572565b6100e56105e4565b6100ab6004803603606081101561010d57600080fd5b506001600160a01b0381358116916020810135909116906040013561067b565b6100e5610754565b61013d610896565b604080516001600160a01b039092168252519081900360200190f35b6101616108a5565b60408051602080825283518183015283519192839290830191858101910280838360005b8381101561019d578181015183820152602001610185565b505050509050019250505060405180910390f35b61013d600480360360208110156101c757600080fd5b503561090b565b6100e5600480360360208110156101e457600080fd5b50356001600160a01b0316610935565b60006101ff33610a22565b610250576040805162461bcd60e51b815260206004820152601d60248201527f6e6f742063757272656e746c7920616c6c6f77656420746f206d696e74000000604482015290519081900360640190fd5b3360009081526001602090815260408083204290556002805482518185028101850190935280835291929091908301828280156102b657602002820191906000526020600020905b81546001600160a01b03168152600190910190602001808311610298575b5050505050905060005b81518110156104ba5760008282815181106102d757fe5b602002602001015190506000816001600160a01b031663313ce5676040518163ffffffff1660e01b815260040160206040518083038186803b15801561031c57600080fd5b505afa158015610330573d6000803e3d6000fd5b505050506040513d602081101561034657600080fd5b505160408051636c97925760e11b8152905160ff909216600a0a916001600160a01b0385169163d92f24ae916004808301926020929190829003018186803b15801561039157600080fd5b505afa1580156103a5573d6000803e3d6000fd5b505050506040513d60208110156103bb57600080fd5b50518551910291508490849081106103cf57fe5b60200260200101516001600160a01b0316635a05f11133836040518363ffffffff1660e01b815260040180836001600160a01b0316815260200182815260200192505050602060405180830381600087803b15801561042d57600080fd5b505af1158015610441573d6000803e3d6000fd5b505050506040513d602081101561045757600080fd5b50508351819085908590811061046957fe5b60200260200101516001600160a01b0316336001600160a01b03167fab8530f87dc9b59234c4623bf917212bb2536d647574c8e7e5da92c2ede0c9f860405160405180910390a450506001016102c0565b50600191505090565b6000546001600160a01b03163314610510576040805162461bcd60e51b81526020600482018190526024820152600080516020610aa2833981519152604482015290519081900360640190fd5b6040805163f2fde38b60e01b815233600482015290516001600160a01b0383169163f2fde38b91602480830192600092919082900301818387803b15801561055757600080fd5b505af115801561056b573d6000803e3d6000fd5b5050505050565b6000546001600160a01b0316156105d0576040805162461bcd60e51b815260206004820152601960248201527f6f776e657220616c726561647920696e697469616c697a656400000000000000604482015290519081900360640190fd5b600080546001600160a01b03191633179055565b6000546001600160a01b03163314610631576040805162461bcd60e51b81526020600482018190526024820152600080516020610aa2833981519152604482015290519081900360640190fd5b600080546040516001600160a01b03909116907f8be0079c531659141344cd1fd0a4f28419497f9722a3daafe3b4186f6b6457e0908390a3600080546001600160a01b0319169055565b600080546001600160a01b031633146106c9576040805162461bcd60e51b81526020600482018190526024820152600080516020610aa2833981519152604482015290519081900360640190fd5b836001600160a01b0316635a05f11184846040518363ffffffff1660e01b815260040180836001600160a01b0316815260200182815260200192505050602060405180830381600087803b15801561072057600080fd5b505af1158015610734573d6000803e3d6000fd5b505050506040513d602081101561074a57600080fd5b5051949350505050565b6000546001600160a01b031633146107a1576040805162461bcd60e51b81526020600482018190526024820152600080516020610aa2833981519152604482015290519081900360640190fd5b600060028054806020026020016040519081016040528092919081815260200182805480156107f957602002820191906000526020600020905b81546001600160a01b031681526001909101906020018083116107db575b5050505050905060005b81518110156108925781818151811061081857fe5b60200260200101516001600160a01b031663f2fde38b336040518263ffffffff1660e01b815260040180826001600160a01b03168152602001915050600060405180830381600087803b15801561086e57600080fd5b505af1158015610882573d6000803e3d6000fd5b5050600190920191506108039050565b5050565b6000546001600160a01b031690565b6060600060028054806020026020016040519081016040528092919081815260200182805480156108ff57602002820191906000526020600020905b81546001600160a01b031681526001909101906020018083116108e1575b50939550505050505090565b6002818154811061091b57600080fd5b6000918252602090912001546001600160a01b0316905081565b6000546001600160a01b03163314610982576040805162461bcd60e51b81526020600482018190526024820152600080516020610aa2833981519152604482015290519081900360640190fd5b6001600160a01b0381166109c75760405162461bcd60e51b8152600401808060200182810382526026815260200180610a7c6026913960400191505060405180910390fd5b600080546040516001600160a01b03808516939216917f8be0079c531659141344cd1fd0a4f28419497f9722a3daafe3b4186f6b6457e091a3600080546001600160a01b0319166001600160a01b0392909216919091179055565b6001600160a01b038116600090815260016020526040812054610a4757506001610a76565b6001600160a01b038216600090815260016020526040902054610708014210610a7257506001610a76565b5060005b91905056fe4f776e61626c653a206e6577206f776e657220697320746865207a65726f20616464726573734f776e61626c653a2063616c6c6572206973206e6f7420746865206f776e6572a264697066735822122056e81c6c91a1e20eef6356bff432456257e5bec461370419fb45337955bc325864736f6c63430007060033",
  "devdoc": {
    "kind": "dev",
    "methods": {
      "owner()": {
        "details": "Returns the address of the current owner."
      },
      "renounceOwnership()": {
        "details": "Leaves the contract without owner. It will not be possible to call `onlyOwner` functions anymore. Can only be called by the current owner. NOTE: Renouncing ownership will leave the contract without an owner, thereby removing any functionality that is only available to the owner."
      },
      "transferOwnership(address)": {
        "details": "Transfers ownership of the contract to a new account (`newOwner`). Can only be called by the current owner."
      }
    },
    "version": 1
  },
  "userdoc": {
    "kind": "user",
    "methods": {},
    "version": 1
  },
  "storageLayout": {
    "storage": [
      {
        "astId": 8348,
        "contract": "contracts/TokenFaucet.sol:MetaFaucet",
        "label": "_owner",
        "offset": 0,
        "slot": "0",
        "type": "t_address"
      },
      {
        "astId": 9078,
        "contract": "contracts/TokenFaucet.sol:MetaFaucet",
        "label": "lastAccessTime",
        "offset": 0,
        "slot": "1",
        "type": "t_mapping(t_address,t_uint256)"
      },
      {
        "astId": 9081,
        "contract": "contracts/TokenFaucet.sol:MetaFaucet",
        "label": "tokenFaucets",
        "offset": 0,
        "slot": "2",
        "type": "t_array(t_address)dyn_storage"
      }
    ],
    "types": {
      "t_address": {
        "encoding": "inplace",
        "label": "address",
        "numberOfBytes": "20"
      },
      "t_array(t_address)dyn_storage": {
        "base": "t_address",
        "encoding": "dynamic_array",
        "label": "address[]",
        "numberOfBytes": "32"
      },
      "t_mapping(t_address,t_uint256)": {
        "encoding": "mapping",
        "key": "t_address",
        "label": "mapping(address => uint256)",
        "numberOfBytes": "32",
        "value": "t_uint256"
      },
      "t_uint256": {
        "encoding": "inplace",
        "label": "uint256",
        "numberOfBytes": "32"
      }
    }
  }
}